{
  "_format": "hh-sol-artifact-1",
  "contractName": "NFTMarketplaceToken",
  "sourceName": "contracts/NFT.sol",
  "abi": [
    {
      "inputs": [
        {
          "internalType": "uint256",
          "name": "_mintPrice",
          "type": "uint256"
        },
        {
          "internalType": "address",
          "name": "_marketPlaceAddress",
          "type": "address"
        }
      ],
      "stateMutability": "nonpayable",
      "type": "constructor"
    },
    {
      "inputs": [
        {
          "internalType": "address",
          "name": "sender",
          "type": "address"
        },
        {
          "internalType": "uint256",
          "name": "tokenId",
          "type": "uint256"
        },
        {
          "internalType": "address",
          "name": "owner",
          "type": "address"
        }
      ],
      "name": "ERC721IncorrectOwner",
      "type": "error"
    },
    {
      "inputs": [
        {
          "internalType": "address",
          "name": "operator",
          "type": "address"
        },
        {
          "internalType": "uint256",
          "name": "tokenId",
          "type": "uint256"
        }
      ],
      "name": "ERC721InsufficientApproval",
      "type": "error"
    },
    {
      "inputs": [
        {
          "internalType": "address",
          "name": "approver",
          "type": "address"
        }
      ],
      "name": "ERC721InvalidApprover",
      "type": "error"
    },
    {
      "inputs": [
        {
          "internalType": "address",
          "name": "operator",
          "type": "address"
        }
      ],
      "name": "ERC721InvalidOperator",
      "type": "error"
    },
    {
      "inputs": [
        {
          "internalType": "address",
          "name": "owner",
          "type": "address"
        }
      ],
      "name": "ERC721InvalidOwner",
      "type": "error"
    },
    {
      "inputs": [
        {
          "internalType": "address",
          "name": "receiver",
          "type": "address"
        }
      ],
      "name": "ERC721InvalidReceiver",
      "type": "error"
    },
    {
      "inputs": [
        {
          "internalType": "address",
          "name": "sender",
          "type": "address"
        }
      ],
      "name": "ERC721InvalidSender",
      "type": "error"
    },
    {
      "inputs": [
        {
          "internalType": "uint256",
          "name": "tokenId",
          "type": "uint256"
        }
      ],
      "name": "ERC721NonexistentToken",
      "type": "error"
    },
    {
      "inputs": [
        {
          "internalType": "address",
          "name": "owner",
          "type": "address"
        }
      ],
      "name": "OwnableInvalidOwner",
      "type": "error"
    },
    {
      "inputs": [
        {
          "internalType": "address",
          "name": "account",
          "type": "address"
        }
      ],
      "name": "OwnableUnauthorizedAccount",
      "type": "error"
    },
    {
      "anonymous": false,
      "inputs": [
        {
          "indexed": true,
          "internalType": "address",
          "name": "owner",
          "type": "address"
        },
        {
          "indexed": true,
          "internalType": "address",
          "name": "approved",
          "type": "address"
        },
        {
          "indexed": true,
          "internalType": "uint256",
          "name": "tokenId",
          "type": "uint256"
        }
      ],
      "name": "Approval",
      "type": "event"
    },
    {
      "anonymous": false,
      "inputs": [
        {
          "indexed": true,
          "internalType": "address",
          "name": "owner",
          "type": "address"
        },
        {
          "indexed": true,
          "internalType": "address",
          "name": "operator",
          "type": "address"
        },
        {
          "indexed": false,
          "internalType": "bool",
          "name": "approved",
          "type": "bool"
        }
      ],
      "name": "ApprovalForAll",
      "type": "event"
    },
    {
      "anonymous": false,
      "inputs": [
        {
          "indexed": true,
          "internalType": "address",
          "name": "previousOwner",
          "type": "address"
        },
        {
          "indexed": true,
          "internalType": "address",
          "name": "newOwner",
          "type": "address"
        }
      ],
      "name": "OwnershipTransferred",
      "type": "event"
    },
    {
      "anonymous": false,
      "inputs": [
        {
          "indexed": true,
          "internalType": "address",
          "name": "from",
          "type": "address"
        },
        {
          "indexed": true,
          "internalType": "address",
          "name": "to",
          "type": "address"
        },
        {
          "indexed": true,
          "internalType": "uint256",
          "name": "tokenId",
          "type": "uint256"
        }
      ],
      "name": "Transfer",
      "type": "event"
    },
    {
      "inputs": [
        {
          "internalType": "address",
          "name": "to",
          "type": "address"
        },
        {
          "internalType": "uint256",
          "name": "tokenId",
          "type": "uint256"
        }
      ],
      "name": "approve",
      "outputs": [],
      "stateMutability": "nonpayable",
      "type": "function"
    },
    {
      "inputs": [
        {
          "internalType": "address",
          "name": "owner",
          "type": "address"
        }
      ],
      "name": "balanceOf",
      "outputs": [
        {
          "internalType": "uint256",
          "name": "",
          "type": "uint256"
        }
      ],
      "stateMutability": "view",
      "type": "function"
    },
    {
      "inputs": [
        {
          "internalType": "uint256",
          "name": "tokenId",
          "type": "uint256"
        }
      ],
      "name": "getApproved",
      "outputs": [
        {
          "internalType": "address",
          "name": "",
          "type": "address"
        }
      ],
      "stateMutability": "view",
      "type": "function"
    },
    {
      "inputs": [
        {
          "internalType": "address",
          "name": "owner",
          "type": "address"
        },
        {
          "internalType": "address",
          "name": "operator",
          "type": "address"
        }
      ],
      "name": "isApprovedForAll",
      "outputs": [
        {
          "internalType": "bool",
          "name": "",
          "type": "bool"
        }
      ],
      "stateMutability": "view",
      "type": "function"
    },
    {
      "inputs": [],
      "name": "marketPlaceAddress",
      "outputs": [
        {
          "internalType": "address",
          "name": "",
          "type": "address"
        }
      ],
      "stateMutability": "view",
      "type": "function"
    },
    {
      "inputs": [
        {
          "internalType": "address",
          "name": "to",
          "type": "address"
        }
      ],
      "name": "mint",
      "outputs": [],
      "stateMutability": "payable",
      "type": "function"
    },
    {
      "inputs": [],
      "name": "mintPrice",
      "outputs": [
        {
          "internalType": "uint256",
          "name": "",
          "type": "uint256"
        }
      ],
      "stateMutability": "view",
      "type": "function"
    },
    {
      "inputs": [],
      "name": "name",
      "outputs": [
        {
          "internalType": "string",
          "name": "",
          "type": "string"
        }
      ],
      "stateMutability": "view",
      "type": "function"
    },
    {
      "inputs": [],
      "name": "nextTokenId",
      "outputs": [
        {
          "internalType": "uint256",
          "name": "",
          "type": "uint256"
        }
      ],
      "stateMutability": "view",
      "type": "function"
    },
    {
      "inputs": [],
      "name": "owner",
      "outputs": [
        {
          "internalType": "address",
          "name": "",
          "type": "address"
        }
      ],
      "stateMutability": "view",
      "type": "function"
    },
    {
      "inputs": [
        {
          "internalType": "uint256",
          "name": "tokenId",
          "type": "uint256"
        }
      ],
      "name": "ownerOf",
      "outputs": [
        {
          "internalType": "address",
          "name": "",
          "type": "address"
        }
      ],
      "stateMutability": "view",
      "type": "function"
    },
    {
      "inputs": [],
      "name": "renounceOwnership",
      "outputs": [],
      "stateMutability": "nonpayable",
      "type": "function"
    },
    {
      "inputs": [
        {
          "internalType": "address",
          "name": "from",
          "type": "address"
        },
        {
          "internalType": "address",
          "name": "to",
          "type": "address"
        },
        {
          "internalType": "uint256",
          "name": "tokenId",
          "type": "uint256"
        }
      ],
      "name": "safeTransferFrom",
      "outputs": [],
      "stateMutability": "nonpayable",
      "type": "function"
    },
    {
      "inputs": [
        {
          "internalType": "address",
          "name": "from",
          "type": "address"
        },
        {
          "internalType": "address",
          "name": "to",
          "type": "address"
        },
        {
          "internalType": "uint256",
          "name": "tokenId",
          "type": "uint256"
        },
        {
          "internalType": "bytes",
          "name": "data",
          "type": "bytes"
        }
      ],
      "name": "safeTransferFrom",
      "outputs": [],
      "stateMutability": "nonpayable",
      "type": "function"
    },
    {
      "inputs": [
        {
          "internalType": "address",
          "name": "operator",
          "type": "address"
        },
        {
          "internalType": "bool",
          "name": "approved",
          "type": "bool"
        }
      ],
      "name": "setApprovalForAll",
      "outputs": [],
      "stateMutability": "nonpayable",
      "type": "function"
    },
    {
      "inputs": [
        {
          "internalType": "address",
          "name": "_marketPlaceAddress",
          "type": "address"
        }
      ],
      "name": "setMarketplaceAddress",
      "outputs": [],
      "stateMutability": "nonpayable",
      "type": "function"
    },
    {
      "inputs": [
        {
          "internalType": "bytes4",
          "name": "interfaceId",
          "type": "bytes4"
        }
      ],
      "name": "supportsInterface",
      "outputs": [
        {
          "internalType": "bool",
          "name": "",
          "type": "bool"
        }
      ],
      "stateMutability": "view",
      "type": "function"
    },
    {
      "inputs": [],
      "name": "symbol",
      "outputs": [
        {
          "internalType": "string",
          "name": "",
          "type": "string"
        }
      ],
      "stateMutability": "view",
      "type": "function"
    },
    {
      "inputs": [
        {
          "internalType": "uint256",
          "name": "tokenId",
          "type": "uint256"
        }
      ],
      "name": "tokenURI",
      "outputs": [
        {
          "internalType": "string",
          "name": "",
          "type": "string"
        }
      ],
      "stateMutability": "view",
      "type": "function"
    },
    {
      "inputs": [
        {
          "internalType": "address",
          "name": "from",
          "type": "address"
        },
        {
          "internalType": "address",
          "name": "to",
          "type": "address"
        },
        {
          "internalType": "uint256",
          "name": "tokenId",
          "type": "uint256"
        }
      ],
      "name": "transferFrom",
      "outputs": [],
      "stateMutability": "nonpayable",
      "type": "function"
    },
    {
      "inputs": [
        {
          "internalType": "address",
          "name": "newOwner",
          "type": "address"
        }
      ],
      "name": "transferOwnership",
      "outputs": [],
      "stateMutability": "nonpayable",
      "type": "function"
    },
    {
      "inputs": [],
      "name": "withdraw",
      "outputs": [],
      "stateMutability": "nonpayable",
      "type": "function"
    }
  ],
  "bytecode": "0x608060405234801561001057600080fd5b50604051612a8c380380612a8c833981810160405281019061003291906102f1565b336040518060400160405280601381526020017f4e46544d61726b6574706c616365546f6b656e000000000000000000000000008152506040518060400160405280600381526020017f4e4d54000000000000000000000000000000000000000000000000000000000081525081600090816100ae9190610577565b5080600190816100be9190610577565b505050600073ffffffffffffffffffffffffffffffffffffffff168173ffffffffffffffffffffffffffffffffffffffff16036101335760006040517f1e4fbdf700000000000000000000000000000000000000000000000000000000815260040161012a9190610658565b60405180910390fd5b6101428161019260201b60201c565b508160088190555080600960006101000a81548173ffffffffffffffffffffffffffffffffffffffff021916908373ffffffffffffffffffffffffffffffffffffffff1602179055505050610673565b6000600660009054906101000a900473ffffffffffffffffffffffffffffffffffffffff16905081600660006101000a81548173ffffffffffffffffffffffffffffffffffffffff021916908373ffffffffffffffffffffffffffffffffffffffff1602179055508173ffffffffffffffffffffffffffffffffffffffff168173ffffffffffffffffffffffffffffffffffffffff167f8be0079c531659141344cd1fd0a4f28419497f9722a3daafe3b4186f6b6457e060405160405180910390a35050565b600080fd5b6000819050919050565b6102708161025d565b811461027b57600080fd5b50565b60008151905061028d81610267565b92915050565b600073ffffffffffffffffffffffffffffffffffffffff82169050919050565b60006102be82610293565b9050919050565b6102ce816102b3565b81146102d957600080fd5b50565b6000815190506102eb816102c5565b92915050565b6000806040838503121561030857610307610258565b5b60006103168582860161027e565b9250506020610327858286016102dc565b9150509250929050565b600081519050919050565b7f4e487b7100000000000000000000000000000000000000000000000000000000600052604160045260246000fd5b7f4e487b7100000000000000000000000000000000000000000000000000000000600052602260045260246000fd5b600060028204905060018216806103b257607f821691505b6020821081036103c5576103c461036b565b5b50919050565b60008190508160005260206000209050919050565b60006020601f8301049050919050565b600082821b905092915050565b60006008830261042d7fffffffffffffffffffffffffffffffffffffffffffffffffffffffffffffffff826103f0565b61043786836103f0565b95508019841693508086168417925050509392505050565b6000819050919050565b600061047461046f61046a8461025d565b61044f565b61025d565b9050919050565b6000819050919050565b61048e83610459565b6104a261049a8261047b565b8484546103fd565b825550505050565b600090565b6104b76104aa565b6104c2818484610485565b505050565b5b818110156104e6576104db6000826104af565b6001810190506104c8565b5050565b601f82111561052b576104fc816103cb565b610505846103e0565b81016020851015610514578190505b610528610520856103e0565b8301826104c7565b50505b505050565b600082821c905092915050565b600061054e60001984600802610530565b1980831691505092915050565b6000610567838361053d565b9150826002028217905092915050565b61058082610331565b67ffffffffffffffff8111156105995761059861033c565b5b6105a3825461039a565b6105ae8282856104ea565b600060209050601f8311600181146105e157600084156105cf578287015190505b6105d9858261055b565b865550610641565b601f1984166105ef866103cb565b60005b82811015610617578489015182556001820191506020850194506020810190506105f2565b868310156106345784890151610630601f89168261053d565b8355505b6001600288020188555050505b505050505050565b610652816102b3565b82525050565b600060208201905061066d6000830184610649565b92915050565b61240a806106826000396000f3fe6080604052600436106101355760003560e01c8063715018a6116100ab578063b47cc5561161006f578063b47cc556146103f3578063b88d4fde1461041c578063c87b56dd14610445578063e985e9c514610482578063ed27107b146104bf578063f2fde38b146104ea57610135565b8063715018a61461033257806375794a3c146103495780638da5cb5b1461037457806395d89b411461039f578063a22cb465146103ca57610135565b80633ccfd60b116100fd5780633ccfd60b1461023157806342842e0e146102485780636352211e146102715780636817c76c146102ae5780636a627842146102d957806370a08231146102f557610135565b806301ffc9a71461013a57806306fdde0314610177578063081812fc146101a2578063095ea7b3146101df57806323b872dd14610208575b600080fd5b34801561014657600080fd5b50610161600480360381019061015c9190611b71565b610513565b60405161016e9190611bb9565b60405180910390f35b34801561018357600080fd5b5061018c6105f5565b6040516101999190611c64565b60405180910390f35b3480156101ae57600080fd5b506101c960048036038101906101c49190611cbc565b610687565b6040516101d69190611d2a565b60405180910390f35b3480156101eb57600080fd5b5061020660048036038101906102019190611d71565b6106a3565b005b34801561021457600080fd5b5061022f600480360381019061022a9190611db1565b6106b9565b005b34801561023d57600080fd5b506102466107bb565b005b34801561025457600080fd5b5061026f600480360381019061026a9190611db1565b610813565b005b34801561027d57600080fd5b5061029860048036038101906102939190611cbc565b610833565b6040516102a59190611d2a565b60405180910390f35b3480156102ba57600080fd5b506102c3610845565b6040516102d09190611e13565b60405180910390f35b6102f360048036038101906102ee9190611e2e565b61084b565b005b34801561030157600080fd5b5061031c60048036038101906103179190611e2e565b6108bd565b6040516103299190611e13565b60405180910390f35b34801561033e57600080fd5b50610347610977565b005b34801561035557600080fd5b5061035e61098b565b60405161036b9190611e13565b60405180910390f35b34801561038057600080fd5b50610389610991565b6040516103969190611d2a565b60405180910390f35b3480156103ab57600080fd5b506103b46109bb565b6040516103c19190611c64565b60405180910390f35b3480156103d657600080fd5b506103f160048036038101906103ec9190611e87565b610a4d565b005b3480156103ff57600080fd5b5061041a60048036038101906104159190611e2e565b610a63565b005b34801561042857600080fd5b50610443600480360381019061043e9190611ffc565b610aaf565b005b34801561045157600080fd5b5061046c60048036038101906104679190611cbc565b610ad4565b6040516104799190611c64565b60405180910390f35b34801561048e57600080fd5b506104a960048036038101906104a4919061207f565b610b3d565b6040516104b69190611bb9565b60405180910390f35b3480156104cb57600080fd5b506104d4610bd1565b6040516104e19190611d2a565b60405180910390f35b3480156104f657600080fd5b50610511600480360381019061050c9190611e2e565b610bf7565b005b60007f80ac58cd000000000000000000000000000000000000000000000000000000007bffffffffffffffffffffffffffffffffffffffffffffffffffffffff1916827bffffffffffffffffffffffffffffffffffffffffffffffffffffffff191614806105de57507f5b5e139f000000000000000000000000000000000000000000000000000000007bffffffffffffffffffffffffffffffffffffffffffffffffffffffff1916827bffffffffffffffffffffffffffffffffffffffffffffffffffffffff1916145b806105ee57506105ed82610c7d565b5b9050919050565b606060008054610604906120ee565b80601f0160208091040260200160405190810160405280929190818152602001828054610630906120ee565b801561067d5780601f106106525761010080835404028352916020019161067d565b820191906000526020600020905b81548152906001019060200180831161066057829003601f168201915b5050505050905090565b600061069282610ce7565b5061069c82610d6f565b9050919050565b6106b582826106b0610dac565b610db4565b5050565b600073ffffffffffffffffffffffffffffffffffffffff168273ffffffffffffffffffffffffffffffffffffffff160361072b5760006040517f64a0ae920000000000000000000000000000000000000000000000000000000081526004016107229190611d2a565b60405180910390fd5b600061073f838361073a610dac565b610dc6565b90508373ffffffffffffffffffffffffffffffffffffffff168173ffffffffffffffffffffffffffffffffffffffff16146107b5578382826040517f64283d7b0000000000000000000000000000000000000000000000000000000081526004016107ac9392919061211f565b60405180910390fd5b50505050565b6107c3610fe0565b6107cb610991565b73ffffffffffffffffffffffffffffffffffffffff166108fc479081150290604051600060405180830381858888f19350505050158015610810573d6000803e3d6000fd5b50565b61082e83838360405180602001604052806000815250610aaf565b505050565b600061083e82610ce7565b9050919050565b60085481565b600854341015610890576040517f08c379a0000000000000000000000000000000000000000000000000000000008152600401610887906121a2565b60405180910390fd5b60006007549050600760008154809291906108aa906121f1565b91905055506108b98282611067565b5050565b60008073ffffffffffffffffffffffffffffffffffffffff168273ffffffffffffffffffffffffffffffffffffffff16036109305760006040517f89c62b640000000000000000000000000000000000000000000000000000000081526004016109279190611d2a565b60405180910390fd5b600360008373ffffffffffffffffffffffffffffffffffffffff1673ffffffffffffffffffffffffffffffffffffffff168152602001908152602001600020549050919050565b61097f610fe0565b6109896000611160565b565b60075481565b6000600660009054906101000a900473ffffffffffffffffffffffffffffffffffffffff16905090565b6060600180546109ca906120ee565b80601f01602080910402602001604051908101604052809291908181526020018280546109f6906120ee565b8015610a435780601f10610a1857610100808354040283529160200191610a43565b820191906000526020600020905b815481529060010190602001808311610a2657829003601f168201915b5050505050905090565b610a5f610a58610dac565b8383611226565b5050565b610a6b610fe0565b80600960006101000a81548173ffffffffffffffffffffffffffffffffffffffff021916908373ffffffffffffffffffffffffffffffffffffffff16021790555050565b610aba8484846106b9565b610ace610ac5610dac565b85858585611395565b50505050565b6060610adf82610ce7565b506000610aea611546565b90506000815111610b0a5760405180602001604052806000815250610b35565b80610b148461155d565b604051602001610b25929190612275565b6040516020818303038152906040525b915050919050565b6000600560008473ffffffffffffffffffffffffffffffffffffffff1673ffffffffffffffffffffffffffffffffffffffff16815260200190815260200160002060008373ffffffffffffffffffffffffffffffffffffffff1673ffffffffffffffffffffffffffffffffffffffff16815260200190815260200160002060009054906101000a900460ff16905092915050565b600960009054906101000a900473ffffffffffffffffffffffffffffffffffffffff1681565b610bff610fe0565b600073ffffffffffffffffffffffffffffffffffffffff168173ffffffffffffffffffffffffffffffffffffffff1603610c715760006040517f1e4fbdf7000000000000000000000000000000000000000000000000000000008152600401610c689190611d2a565b60405180910390fd5b610c7a81611160565b50565b60007f01ffc9a7000000000000000000000000000000000000000000000000000000007bffffffffffffffffffffffffffffffffffffffffffffffffffffffff1916827bffffffffffffffffffffffffffffffffffffffffffffffffffffffff1916149050919050565b600080610cf38361162b565b9050600073ffffffffffffffffffffffffffffffffffffffff168173ffffffffffffffffffffffffffffffffffffffff1603610d6657826040517f7e273289000000000000000000000000000000000000000000000000000000008152600401610d5d9190611e13565b60405180910390fd5b80915050919050565b60006004600083815260200190815260200160002060009054906101000a900473ffffffffffffffffffffffffffffffffffffffff169050919050565b600033905090565b610dc18383836001611668565b505050565b600080610dd28461162b565b9050600073ffffffffffffffffffffffffffffffffffffffff168373ffffffffffffffffffffffffffffffffffffffff1614610e1457610e1381848661182d565b5b600073ffffffffffffffffffffffffffffffffffffffff168173ffffffffffffffffffffffffffffffffffffffff1614610ea557610e56600085600080611668565b6001600360008373ffffffffffffffffffffffffffffffffffffffff1673ffffffffffffffffffffffffffffffffffffffff168152602001908152602001600020600082825403925050819055505b600073ffffffffffffffffffffffffffffffffffffffff168573ffffffffffffffffffffffffffffffffffffffff1614610f28576001600360008773ffffffffffffffffffffffffffffffffffffffff1673ffffffffffffffffffffffffffffffffffffffff168152602001908152602001600020600082825401925050819055505b846002600086815260200190815260200160002060006101000a81548173ffffffffffffffffffffffffffffffffffffffff021916908373ffffffffffffffffffffffffffffffffffffffff160217905550838573ffffffffffffffffffffffffffffffffffffffff168273ffffffffffffffffffffffffffffffffffffffff167fddf252ad1be2c89b69c2b068fc378daa952ba7f163c4a11628f55a4df523b3ef60405160405180910390a4809150509392505050565b610fe8610dac565b73ffffffffffffffffffffffffffffffffffffffff16611006610991565b73ffffffffffffffffffffffffffffffffffffffff161461106557611029610dac565b6040517f118cdaa700000000000000000000000000000000000000000000000000000000815260040161105c9190611d2a565b60405180910390fd5b565b600073ffffffffffffffffffffffffffffffffffffffff168273ffffffffffffffffffffffffffffffffffffffff16036110d95760006040517f64a0ae920000000000000000000000000000000000000000000000000000000081526004016110d09190611d2a565b60405180910390fd5b60006110e783836000610dc6565b9050600073ffffffffffffffffffffffffffffffffffffffff168173ffffffffffffffffffffffffffffffffffffffff161461115b5760006040517f73c6ac6e0000000000000000000000000000000000000000000000000000000081526004016111529190611d2a565b60405180910390fd5b505050565b6000600660009054906101000a900473ffffffffffffffffffffffffffffffffffffffff16905081600660006101000a81548173ffffffffffffffffffffffffffffffffffffffff021916908373ffffffffffffffffffffffffffffffffffffffff1602179055508173ffffffffffffffffffffffffffffffffffffffff168173ffffffffffffffffffffffffffffffffffffffff167f8be0079c531659141344cd1fd0a4f28419497f9722a3daafe3b4186f6b6457e060405160405180910390a35050565b600073ffffffffffffffffffffffffffffffffffffffff168273ffffffffffffffffffffffffffffffffffffffff160361129757816040517f5b08ba1800000000000000000000000000000000000000000000000000000000815260040161128e9190611d2a565b60405180910390fd5b80600560008573ffffffffffffffffffffffffffffffffffffffff1673ffffffffffffffffffffffffffffffffffffffff16815260200190815260200160002060008473ffffffffffffffffffffffffffffffffffffffff1673ffffffffffffffffffffffffffffffffffffffff16815260200190815260200160002060006101000a81548160ff0219169083151502179055508173ffffffffffffffffffffffffffffffffffffffff168373ffffffffffffffffffffffffffffffffffffffff167f17307eab39ab6107e8899845ad3d59bd9653f200f220920489ca2b5937696c31836040516113889190611bb9565b60405180910390a3505050565b60008373ffffffffffffffffffffffffffffffffffffffff163b111561153f578273ffffffffffffffffffffffffffffffffffffffff1663150b7a02868685856040518563ffffffff1660e01b81526004016113f494939291906122ee565b6020604051808303816000875af192505050801561143057506040513d601f19601f8201168201806040525081019061142d919061234f565b60015b6114b4573d8060008114611460576040519150601f19603f3d011682016040523d82523d6000602084013e611465565b606091505b5060008151036114ac57836040517f64a0ae920000000000000000000000000000000000000000000000000000000081526004016114a39190611d2a565b60405180910390fd5b805181602001fd5b63150b7a0260e01b7bffffffffffffffffffffffffffffffffffffffffffffffffffffffff1916817bffffffffffffffffffffffffffffffffffffffffffffffffffffffff19161461153d57836040517f64a0ae920000000000000000000000000000000000000000000000000000000081526004016115349190611d2a565b60405180910390fd5b505b5050505050565b606060405180602001604052806000815250905090565b60606000600161156c846118f1565b01905060008167ffffffffffffffff81111561158b5761158a611ed1565b5b6040519080825280601f01601f1916602001820160405280156115bd5781602001600182028036833780820191505090505b509050600082602001820190505b600115611620578080600190039150507f3031323334353637383961626364656600000000000000000000000000000000600a86061a8153600a85816116145761161361237c565b5b049450600085036115cb575b819350505050919050565b60006002600083815260200190815260200160002060009054906101000a900473ffffffffffffffffffffffffffffffffffffffff169050919050565b80806116a15750600073ffffffffffffffffffffffffffffffffffffffff168273ffffffffffffffffffffffffffffffffffffffff1614155b156117d55760006116b184610ce7565b9050600073ffffffffffffffffffffffffffffffffffffffff168373ffffffffffffffffffffffffffffffffffffffff161415801561171c57508273ffffffffffffffffffffffffffffffffffffffff168173ffffffffffffffffffffffffffffffffffffffff1614155b801561172f575061172d8184610b3d565b155b1561177157826040517fa9fbf51f0000000000000000000000000000000000000000000000000000000081526004016117689190611d2a565b60405180910390fd5b81156117d357838573ffffffffffffffffffffffffffffffffffffffff168273ffffffffffffffffffffffffffffffffffffffff167f8c5be1e5ebec7d5bd14f71427d1e84f3dd0314c0f7b2291e5b200ac8c7c3b92560405160405180910390a45b505b836004600085815260200190815260200160002060006101000a81548173ffffffffffffffffffffffffffffffffffffffff021916908373ffffffffffffffffffffffffffffffffffffffff16021790555050505050565b611838838383611a44565b6118ec57600073ffffffffffffffffffffffffffffffffffffffff168373ffffffffffffffffffffffffffffffffffffffff16036118ad57806040517f7e2732890000000000000000000000000000000000000000000000000000000081526004016118a49190611e13565b60405180910390fd5b81816040517f177e802f0000000000000000000000000000000000000000000000000000000081526004016118e39291906123ab565b60405180910390fd5b505050565b600080600090507a184f03e93ff9f4daa797ed6e38ed64bf6a1f010000000000000000831061194f577a184f03e93ff9f4daa797ed6e38ed64bf6a1f01000000000000000083816119455761194461237c565b5b0492506040810190505b6d04ee2d6d415b85acef8100000000831061198c576d04ee2d6d415b85acef810000000083816119825761198161237c565b5b0492506020810190505b662386f26fc1000083106119bb57662386f26fc1000083816119b1576119b061237c565b5b0492506010810190505b6305f5e10083106119e4576305f5e10083816119da576119d961237c565b5b0492506008810190505b6127108310611a095761271083816119ff576119fe61237c565b5b0492506004810190505b60648310611a2c5760648381611a2257611a2161237c565b5b0492506002810190505b600a8310611a3b576001810190505b80915050919050565b60008073ffffffffffffffffffffffffffffffffffffffff168373ffffffffffffffffffffffffffffffffffffffff1614158015611afc57508273ffffffffffffffffffffffffffffffffffffffff168473ffffffffffffffffffffffffffffffffffffffff161480611abd5750611abc8484610b3d565b5b80611afb57508273ffffffffffffffffffffffffffffffffffffffff16611ae383610d6f565b73ffffffffffffffffffffffffffffffffffffffff16145b5b90509392505050565b6000604051905090565b600080fd5b600080fd5b60007fffffffff0000000000000000000000000000000000000000000000000000000082169050919050565b611b4e81611b19565b8114611b5957600080fd5b50565b600081359050611b6b81611b45565b92915050565b600060208284031215611b8757611b86611b0f565b5b6000611b9584828501611b5c565b91505092915050565b60008115159050919050565b611bb381611b9e565b82525050565b6000602082019050611bce6000830184611baa565b92915050565b600081519050919050565b600082825260208201905092915050565b60005b83811015611c0e578082015181840152602081019050611bf3565b60008484015250505050565b6000601f19601f8301169050919050565b6000611c3682611bd4565b611c408185611bdf565b9350611c50818560208601611bf0565b611c5981611c1a565b840191505092915050565b60006020820190508181036000830152611c7e8184611c2b565b905092915050565b6000819050919050565b611c9981611c86565b8114611ca457600080fd5b50565b600081359050611cb681611c90565b92915050565b600060208284031215611cd257611cd1611b0f565b5b6000611ce084828501611ca7565b91505092915050565b600073ffffffffffffffffffffffffffffffffffffffff82169050919050565b6000611d1482611ce9565b9050919050565b611d2481611d09565b82525050565b6000602082019050611d3f6000830184611d1b565b92915050565b611d4e81611d09565b8114611d5957600080fd5b50565b600081359050611d6b81611d45565b92915050565b60008060408385031215611d8857611d87611b0f565b5b6000611d9685828601611d5c565b9250506020611da785828601611ca7565b9150509250929050565b600080600060608486031215611dca57611dc9611b0f565b5b6000611dd886828701611d5c565b9350506020611de986828701611d5c565b9250506040611dfa86828701611ca7565b9150509250925092565b611e0d81611c86565b82525050565b6000602082019050611e286000830184611e04565b92915050565b600060208284031215611e4457611e43611b0f565b5b6000611e5284828501611d5c565b91505092915050565b611e6481611b9e565b8114611e6f57600080fd5b50565b600081359050611e8181611e5b565b92915050565b60008060408385031215611e9e57611e9d611b0f565b5b6000611eac85828601611d5c565b9250506020611ebd85828601611e72565b9150509250929050565b600080fd5b600080fd5b7f4e487b7100000000000000000000000000000000000000000000000000000000600052604160045260246000fd5b611f0982611c1a565b810181811067ffffffffffffffff82111715611f2857611f27611ed1565b5b80604052505050565b6000611f3b611b05565b9050611f478282611f00565b919050565b600067ffffffffffffffff821115611f6757611f66611ed1565b5b611f7082611c1a565b9050602081019050919050565b82818337600083830152505050565b6000611f9f611f9a84611f4c565b611f31565b905082815260208101848484011115611fbb57611fba611ecc565b5b611fc6848285611f7d565b509392505050565b600082601f830112611fe357611fe2611ec7565b5b8135611ff3848260208601611f8c565b91505092915050565b6000806000806080858703121561201657612015611b0f565b5b600061202487828801611d5c565b945050602061203587828801611d5c565b935050604061204687828801611ca7565b925050606085013567ffffffffffffffff81111561206757612066611b14565b5b61207387828801611fce565b91505092959194509250565b6000806040838503121561209657612095611b0f565b5b60006120a485828601611d5c565b92505060206120b585828601611d5c565b9150509250929050565b7f4e487b7100000000000000000000000000000000000000000000000000000000600052602260045260246000fd5b6000600282049050600182168061210657607f821691505b602082108103612119576121186120bf565b5b50919050565b60006060820190506121346000830186611d1b565b6121416020830185611e04565b61214e6040830184611d1b565b949350505050565b7f496e73756666696369656e742045544820746f206d696e742e00000000000000600082015250565b600061218c601983611bdf565b915061219782612156565b602082019050919050565b600060208201905081810360008301526121bb8161217f565b9050919050565b7f4e487b7100000000000000000000000000000000000000000000000000000000600052601160045260246000fd5b60006121fc82611c86565b91507fffffffffffffffffffffffffffffffffffffffffffffffffffffffffffffffff820361222e5761222d6121c2565b5b600182019050919050565b600081905092915050565b600061224f82611bd4565b6122598185612239565b9350612269818560208601611bf0565b80840191505092915050565b60006122818285612244565b915061228d8284612244565b91508190509392505050565b600081519050919050565b600082825260208201905092915050565b60006122c082612299565b6122ca81856122a4565b93506122da818560208601611bf0565b6122e381611c1a565b840191505092915050565b60006080820190506123036000830187611d1b565b6123106020830186611d1b565b61231d6040830185611e04565b818103606083015261232f81846122b5565b905095945050505050565b60008151905061234981611b45565b92915050565b60006020828403121561236557612364611b0f565b5b60006123738482850161233a565b91505092915050565b7f4e487b7100000000000000000000000000000000000000000000000000000000600052601260045260246000fd5b60006040820190506123c06000830185611d1b565b6123cd6020830184611e04565b939250505056fea264697066735822122032f44055c5159145ee004fb797120db5cf3ba78f7d4d68640b071f9ca4110ccd64736f6c634300081c0033",
  "linkReferences": {},
  "deployedLinkReferences": {}
}