{
  "_format": "hh-sol-artifact-1",
  "contractName": "NFTMarketplaceToken",
  "sourceName": "contracts/NFT.sol",
  "abi": [
    {
      "inputs": [
        {
          "internalType": "uint256",
          "name": "_mintPrice",
          "type": "uint256"
        },
        {
          "internalType": "address",
          "name": "_marketPlaceAddress",
          "type": "address"
        }
      ],
      "stateMutability": "nonpayable",
      "type": "constructor"
    },
    {
      "inputs": [
        {
          "internalType": "address",
          "name": "sender",
          "type": "address"
        },
        {
          "internalType": "uint256",
          "name": "tokenId",
          "type": "uint256"
        },
        {
          "internalType": "address",
          "name": "owner",
          "type": "address"
        }
      ],
      "name": "ERC721IncorrectOwner",
      "type": "error"
    },
    {
      "inputs": [
        {
          "internalType": "address",
          "name": "operator",
          "type": "address"
        },
        {
          "internalType": "uint256",
          "name": "tokenId",
          "type": "uint256"
        }
      ],
      "name": "ERC721InsufficientApproval",
      "type": "error"
    },
    {
      "inputs": [
        {
          "internalType": "address",
          "name": "approver",
          "type": "address"
        }
      ],
      "name": "ERC721InvalidApprover",
      "type": "error"
    },
    {
      "inputs": [
        {
          "internalType": "address",
          "name": "operator",
          "type": "address"
        }
      ],
      "name": "ERC721InvalidOperator",
      "type": "error"
    },
    {
      "inputs": [
        {
          "internalType": "address",
          "name": "owner",
          "type": "address"
        }
      ],
      "name": "ERC721InvalidOwner",
      "type": "error"
    },
    {
      "inputs": [
        {
          "internalType": "address",
          "name": "receiver",
          "type": "address"
        }
      ],
      "name": "ERC721InvalidReceiver",
      "type": "error"
    },
    {
      "inputs": [
        {
          "internalType": "address",
          "name": "sender",
          "type": "address"
        }
      ],
      "name": "ERC721InvalidSender",
      "type": "error"
    },
    {
      "inputs": [
        {
          "internalType": "uint256",
          "name": "tokenId",
          "type": "uint256"
        }
      ],
      "name": "ERC721NonexistentToken",
      "type": "error"
    },
    {
      "inputs": [
        {
          "internalType": "address",
          "name": "owner",
          "type": "address"
        }
      ],
      "name": "OwnableInvalidOwner",
      "type": "error"
    },
    {
      "inputs": [
        {
          "internalType": "address",
          "name": "account",
          "type": "address"
        }
      ],
      "name": "OwnableUnauthorizedAccount",
      "type": "error"
    },
    {
      "inputs": [],
      "name": "ReentrancyGuardReentrantCall",
      "type": "error"
    },
    {
      "anonymous": false,
      "inputs": [
        {
          "indexed": true,
          "internalType": "address",
          "name": "owner",
          "type": "address"
        },
        {
          "indexed": true,
          "internalType": "address",
          "name": "approved",
          "type": "address"
        },
        {
          "indexed": true,
          "internalType": "uint256",
          "name": "tokenId",
          "type": "uint256"
        }
      ],
      "name": "Approval",
      "type": "event"
    },
    {
      "anonymous": false,
      "inputs": [
        {
          "indexed": true,
          "internalType": "address",
          "name": "owner",
          "type": "address"
        },
        {
          "indexed": true,
          "internalType": "address",
          "name": "operator",
          "type": "address"
        },
        {
          "indexed": false,
          "internalType": "bool",
          "name": "approved",
          "type": "bool"
        }
      ],
      "name": "ApprovalForAll",
      "type": "event"
    },
    {
      "anonymous": false,
      "inputs": [
        {
          "indexed": false,
          "internalType": "address",
          "name": "oldAddress",
          "type": "address"
        },
        {
          "indexed": false,
          "internalType": "address",
          "name": "newAddress",
          "type": "address"
        }
      ],
      "name": "MarketplaceAddressUpdated",
      "type": "event"
    },
    {
      "anonymous": false,
      "inputs": [
        {
          "indexed": false,
          "internalType": "uint256",
          "name": "oldPrice",
          "type": "uint256"
        },
        {
          "indexed": false,
          "internalType": "uint256",
          "name": "newPrice",
          "type": "uint256"
        }
      ],
      "name": "MintPriceUpdated",
      "type": "event"
    },
    {
      "anonymous": false,
      "inputs": [
        {
          "indexed": true,
          "internalType": "uint256",
          "name": "tokenId",
          "type": "uint256"
        },
        {
          "indexed": true,
          "internalType": "address",
          "name": "creator",
          "type": "address"
        },
        {
          "indexed": false,
          "internalType": "string",
          "name": "metadataURI",
          "type": "string"
        },
        {
          "indexed": false,
          "internalType": "uint256",
          "name": "price",
          "type": "uint256"
        },
        {
          "indexed": false,
          "internalType": "uint256",
          "name": "createdAt",
          "type": "uint256"
        }
      ],
      "name": "NFTCreated",
      "type": "event"
    },
    {
      "anonymous": false,
      "inputs": [
        {
          "indexed": true,
          "internalType": "uint256",
          "name": "tokenId",
          "type": "uint256"
        },
        {
          "indexed": true,
          "internalType": "address",
          "name": "minter",
          "type": "address"
        },
        {
          "indexed": true,
          "internalType": "address",
          "name": "owner",
          "type": "address"
        },
        {
          "indexed": false,
          "internalType": "uint256",
          "name": "mintedAt",
          "type": "uint256"
        }
      ],
      "name": "NFTMinted",
      "type": "event"
    },
    {
      "anonymous": false,
      "inputs": [
        {
          "indexed": true,
          "internalType": "address",
          "name": "previousOwner",
          "type": "address"
        },
        {
          "indexed": true,
          "internalType": "address",
          "name": "newOwner",
          "type": "address"
        }
      ],
      "name": "OwnershipTransferred",
      "type": "event"
    },
    {
      "anonymous": false,
      "inputs": [
        {
          "indexed": true,
          "internalType": "address",
          "name": "from",
          "type": "address"
        },
        {
          "indexed": true,
          "internalType": "address",
          "name": "to",
          "type": "address"
        },
        {
          "indexed": true,
          "internalType": "uint256",
          "name": "tokenId",
          "type": "uint256"
        }
      ],
      "name": "Transfer",
      "type": "event"
    },
    {
      "inputs": [
        {
          "internalType": "address",
          "name": "to",
          "type": "address"
        },
        {
          "internalType": "uint256",
          "name": "tokenId",
          "type": "uint256"
        }
      ],
      "name": "approve",
      "outputs": [],
      "stateMutability": "nonpayable",
      "type": "function"
    },
    {
      "inputs": [
        {
          "internalType": "address",
          "name": "owner",
          "type": "address"
        }
      ],
      "name": "balanceOf",
      "outputs": [
        {
          "internalType": "uint256",
          "name": "",
          "type": "uint256"
        }
      ],
      "stateMutability": "view",
      "type": "function"
    },
    {
      "inputs": [
        {
          "internalType": "string",
          "name": "metadataURI",
          "type": "string"
        },
        {
          "internalType": "uint256",
          "name": "price",
          "type": "uint256"
        }
      ],
      "name": "createNFT",
      "outputs": [
        {
          "internalType": "uint256",
          "name": "",
          "type": "uint256"
        }
      ],
      "stateMutability": "nonpayable",
      "type": "function"
    },
    {
      "inputs": [
        {
          "internalType": "uint256",
          "name": "tokenId",
          "type": "uint256"
        }
      ],
      "name": "getApproved",
      "outputs": [
        {
          "internalType": "address",
          "name": "",
          "type": "address"
        }
      ],
      "stateMutability": "view",
      "type": "function"
    },
    {
      "inputs": [
        {
          "internalType": "address",
          "name": "owner",
          "type": "address"
        },
        {
          "internalType": "address",
          "name": "operator",
          "type": "address"
        }
      ],
      "name": "isApprovedForAll",
      "outputs": [
        {
          "internalType": "bool",
          "name": "",
          "type": "bool"
        }
      ],
      "stateMutability": "view",
      "type": "function"
    },
    {
      "inputs": [],
      "name": "marketPlaceAddress",
      "outputs": [
        {
          "internalType": "address",
          "name": "",
          "type": "address"
        }
      ],
      "stateMutability": "view",
      "type": "function"
    },
    {
      "inputs": [
        {
          "internalType": "uint256",
          "name": "tokenId",
          "type": "uint256"
        },
        {
          "internalType": "address",
          "name": "to",
          "type": "address"
        }
      ],
      "name": "mintNFT",
      "outputs": [],
      "stateMutability": "payable",
      "type": "function"
    },
    {
      "inputs": [],
      "name": "mintPrice",
      "outputs": [
        {
          "internalType": "uint256",
          "name": "",
          "type": "uint256"
        }
      ],
      "stateMutability": "view",
      "type": "function"
    },
    {
      "inputs": [],
      "name": "name",
      "outputs": [
        {
          "internalType": "string",
          "name": "",
          "type": "string"
        }
      ],
      "stateMutability": "view",
      "type": "function"
    },
    {
      "inputs": [],
      "name": "nextTokenId",
      "outputs": [
        {
          "internalType": "uint256",
          "name": "",
          "type": "uint256"
        }
      ],
      "stateMutability": "view",
      "type": "function"
    },
    {
      "inputs": [
        {
          "internalType": "uint256",
          "name": "",
          "type": "uint256"
        }
      ],
      "name": "nftDetails",
      "outputs": [
        {
          "internalType": "address",
          "name": "creator",
          "type": "address"
        },
        {
          "internalType": "uint256",
          "name": "createdAt",
          "type": "uint256"
        },
        {
          "internalType": "string",
          "name": "metadataURI",
          "type": "string"
        },
        {
          "internalType": "uint256",
          "name": "price",
          "type": "uint256"
        },
        {
          "internalType": "bool",
          "name": "isMinted",
          "type": "bool"
        }
      ],
      "stateMutability": "view",
      "type": "function"
    },
    {
      "inputs": [],
      "name": "owner",
      "outputs": [
        {
          "internalType": "address",
          "name": "",
          "type": "address"
        }
      ],
      "stateMutability": "view",
      "type": "function"
    },
    {
      "inputs": [
        {
          "internalType": "uint256",
          "name": "tokenId",
          "type": "uint256"
        }
      ],
      "name": "ownerOf",
      "outputs": [
        {
          "internalType": "address",
          "name": "",
          "type": "address"
        }
      ],
      "stateMutability": "view",
      "type": "function"
    },
    {
      "inputs": [],
      "name": "renounceOwnership",
      "outputs": [],
      "stateMutability": "nonpayable",
      "type": "function"
    },
    {
      "inputs": [
        {
          "internalType": "address",
          "name": "from",
          "type": "address"
        },
        {
          "internalType": "address",
          "name": "to",
          "type": "address"
        },
        {
          "internalType": "uint256",
          "name": "tokenId",
          "type": "uint256"
        }
      ],
      "name": "safeTransferFrom",
      "outputs": [],
      "stateMutability": "nonpayable",
      "type": "function"
    },
    {
      "inputs": [
        {
          "internalType": "address",
          "name": "from",
          "type": "address"
        },
        {
          "internalType": "address",
          "name": "to",
          "type": "address"
        },
        {
          "internalType": "uint256",
          "name": "tokenId",
          "type": "uint256"
        },
        {
          "internalType": "bytes",
          "name": "data",
          "type": "bytes"
        }
      ],
      "name": "safeTransferFrom",
      "outputs": [],
      "stateMutability": "nonpayable",
      "type": "function"
    },
    {
      "inputs": [
        {
          "internalType": "address",
          "name": "operator",
          "type": "address"
        },
        {
          "internalType": "bool",
          "name": "approved",
          "type": "bool"
        }
      ],
      "name": "setApprovalForAll",
      "outputs": [],
      "stateMutability": "nonpayable",
      "type": "function"
    },
    {
      "inputs": [
        {
          "internalType": "address",
          "name": "_marketPlaceAddress",
          "type": "address"
        }
      ],
      "name": "setMarketplaceAddress",
      "outputs": [],
      "stateMutability": "nonpayable",
      "type": "function"
    },
    {
      "inputs": [
        {
          "internalType": "uint256",
          "name": "_mintPrice",
          "type": "uint256"
        }
      ],
      "name": "setMintPrice",
      "outputs": [],
      "stateMutability": "nonpayable",
      "type": "function"
    },
    {
      "inputs": [
        {
          "internalType": "bytes4",
          "name": "interfaceId",
          "type": "bytes4"
        }
      ],
      "name": "supportsInterface",
      "outputs": [
        {
          "internalType": "bool",
          "name": "",
          "type": "bool"
        }
      ],
      "stateMutability": "view",
      "type": "function"
    },
    {
      "inputs": [],
      "name": "symbol",
      "outputs": [
        {
          "internalType": "string",
          "name": "",
          "type": "string"
        }
      ],
      "stateMutability": "view",
      "type": "function"
    },
    {
      "inputs": [
        {
          "internalType": "uint256",
          "name": "tokenId",
          "type": "uint256"
        }
      ],
      "name": "tokenURI",
      "outputs": [
        {
          "internalType": "string",
          "name": "",
          "type": "string"
        }
      ],
      "stateMutability": "view",
      "type": "function"
    },
    {
      "inputs": [
        {
          "internalType": "address",
          "name": "from",
          "type": "address"
        },
        {
          "internalType": "address",
          "name": "to",
          "type": "address"
        },
        {
          "internalType": "uint256",
          "name": "tokenId",
          "type": "uint256"
        }
      ],
      "name": "transferFrom",
      "outputs": [],
      "stateMutability": "nonpayable",
      "type": "function"
    },
    {
      "inputs": [
        {
          "internalType": "address",
          "name": "newOwner",
          "type": "address"
        }
      ],
      "name": "transferOwnership",
      "outputs": [],
      "stateMutability": "nonpayable",
      "type": "function"
    },
    {
      "inputs": [],
      "name": "withdraw",
      "outputs": [],
      "stateMutability": "nonpayable",
      "type": "function"
    }
  ],
  "bytecode": "0x608060405234801561001057600080fd5b50604051611e80380380611e8083398101604081905261002f91610208565b336040518060400160405280601381526020017f4e46544d61726b6574706c616365546f6b656e000000000000000000000000008152506040518060400160405280600381526020016213935560ea1b815250816000908161009191906102e4565b50600161009e82826102e4565b5050506001600160a01b0381166100d057604051631e4fbdf760e01b8152600060048201526024015b60405180910390fd5b6100d9816101b6565b506001600755816101365760405162461bcd60e51b815260206004820152602160248201527f4d696e74207072696365206d7573742062652067726561746572207468616e206044820152600360fc1b60648201526084016100c7565b6001600160a01b03811661018c5760405162461bcd60e51b815260206004820152601b60248201527f496e76616c6964206d61726b6574706c6163652061646472657373000000000060448201526064016100c7565b600991909155600a80546001600160a01b0319166001600160a01b039092169190911790556103a2565b600680546001600160a01b038381166001600160a01b0319831681179093556040519116919082907f8be0079c531659141344cd1fd0a4f28419497f9722a3daafe3b4186f6b6457e090600090a35050565b6000806040838503121561021b57600080fd5b825160208401519092506001600160a01b038116811461023a57600080fd5b809150509250929050565b634e487b7160e01b600052604160045260246000fd5b600181811c9082168061026f57607f821691505b60208210810361028f57634e487b7160e01b600052602260045260246000fd5b50919050565b601f8211156102df57806000526020600020601f840160051c810160208510156102bc5750805b601f840160051c820191505b818110156102dc57600081556001016102c8565b50505b505050565b81516001600160401b038111156102fd576102fd610245565b6103118161030b845461025b565b84610295565b6020601f821160018114610345576000831561032d5750848201515b600019600385901b1c1916600184901b1784556102dc565b600084815260208120601f198516915b828110156103755787850151825560209485019460019092019101610355565b50848210156103935786840151600019600387901b60f8161c191681555b50505050600190811b01905550565b611acf806103b16000396000f3fe6080604052600436106101665760003560e01c8063715018a6116100d1578063b47cc5561161008a578063e985e9c511610064578063e985e9c514610417578063ed27107b14610437578063f2fde38b14610457578063f4a0a5281461047757600080fd5b8063b47cc556146103b7578063b88d4fde146103d7578063c87b56dd146103f757600080fd5b8063715018a61461030857806375794a3c1461031d5780637d4cd847146103335780638da5cb5b1461036457806395d89b4114610382578063a22cb4651461039757600080fd5b80633ccfd60b116101235780633ccfd60b1461026a57806342842e0e1461027f5780636352211e1461029f578063669f5a51146102bf5780636817c76c146102d257806370a08231146102e857600080fd5b806301ffc9a71461016b57806306fdde03146101a0578063081812fc146101c2578063095ea7b3146101fa57806323b872dd1461021c578063268291551461023c575b600080fd5b34801561017757600080fd5b5061018b610186366004611548565b610497565b60405190151581526020015b60405180910390f35b3480156101ac57600080fd5b506101b56104e9565b60405161019791906115b2565b3480156101ce57600080fd5b506101e26101dd3660046115c5565b61057b565b6040516001600160a01b039091168152602001610197565b34801561020657600080fd5b5061021a6102153660046115fa565b6105a4565b005b34801561022857600080fd5b5061021a610237366004611624565b6105b3565b34801561024857600080fd5b5061025c6102573660046116f1565b610643565b604051908152602001610197565b34801561027657600080fd5b5061021a6107ca565b34801561028b57600080fd5b5061021a61029a366004611624565b6108d7565b3480156102ab57600080fd5b506101e26102ba3660046115c5565b6108f7565b61021a6102cd36600461174a565b610902565b3480156102de57600080fd5b5061025c60095481565b3480156102f457600080fd5b5061025c610303366004611776565b610acf565b34801561031457600080fd5b5061021a610b17565b34801561032957600080fd5b5061025c60085481565b34801561033f57600080fd5b5061035361034e3660046115c5565b610b29565b604051610197959493929190611791565b34801561037057600080fd5b506006546001600160a01b03166101e2565b34801561038e57600080fd5b506101b5610bee565b3480156103a357600080fd5b5061021a6103b23660046117d1565b610bfd565b3480156103c357600080fd5b5061021a6103d2366004611776565b610c08565b3480156103e357600080fd5b5061021a6103f236600461180d565b610cc8565b34801561040357600080fd5b506101b56104123660046115c5565b610ce0565b34801561042357600080fd5b5061018b610432366004611889565b610d8d565b34801561044357600080fd5b50600a546101e2906001600160a01b031681565b34801561046357600080fd5b5061021a610472366004611776565b610dbb565b34801561048357600080fd5b5061021a6104923660046115c5565b610df9565b60006001600160e01b031982166380ac58cd60e01b14806104c857506001600160e01b03198216635b5e139f60e01b145b806104e357506301ffc9a760e01b6001600160e01b03198316145b92915050565b6060600080546104f8906118b3565b80601f0160208091040260200160405190810160405280929190818152602001828054610524906118b3565b80156105715780601f1061054657610100808354040283529160200191610571565b820191906000526020600020905b81548152906001019060200180831161055457829003601f168201915b5050505050905090565b600061058682610e99565b506000828152600460205260409020546001600160a01b03166104e3565b6105af828233610ed2565b5050565b6001600160a01b0382166105e257604051633250574960e11b8152600060048201526024015b60405180910390fd5b60006105ef838333610edf565b9050836001600160a01b0316816001600160a01b03161461063d576040516364283d7b60e01b81526001600160a01b03808616600483015260248201849052821660448201526064016105d9565b50505050565b60008083511161068a5760405162461bcd60e51b8152602060048201526012602482015271456d707479206d657461646174612055524960701b60448201526064016105d9565b600082116106da5760405162461bcd60e51b815260206004820152601c60248201527f5072696365206d7573742062652067726561746572207468616e20300000000060448201526064016105d9565b60088054600091826106eb836118ed565b909155506040805160a08101825233815242602080830191825282840189815260608401899052600060808501819052868152600b909252939020825181546001600160a01b0319166001600160a01b0390911617815590516001820155915192935091600282019061075e908261195b565b50606082015160038201556080909101516004909101805460ff1916911515919091179055604051339082907f5a19d1244d2e16926d5e9f726064ba2edb997ba80dca55d430bdab3ab5362099906107bb90889088904290611a1a565b60405180910390a39392505050565b6107d2610f62565b6107da610f8f565b47806108215760405162461bcd60e51b81526020600482015260166024820152754e6f2062616c616e636520746f20776974686472617760501b60448201526064016105d9565b60006108356006546001600160a01b031690565b6001600160a01b03168260405160006040518083038185875af1925050503d806000811461087f576040519150601f19603f3d011682016040523d82523d6000602084013e610884565b606091505b50509050806108c95760405162461bcd60e51b815260206004820152601160248201527015da5d1a191c985dd85b0819985a5b1959607a1b60448201526064016105d9565b50506108d56001600755565b565b6108f283838360405180602001604052806000815250610cc8565b505050565b60006104e382610e99565b61090a610f8f565b6001600160a01b0381166109605760405162461bcd60e51b815260206004820152601960248201527f496e76616c696420726563697069656e7420616464726573730000000000000060448201526064016105d9565b60085482106109a65760405162461bcd60e51b815260206004820152601260248201527113919508191bd95cc81b9bdd08195e1a5cdd60721b60448201526064016105d9565b6000828152600b602052604090206004015460ff16156109fd5760405162461bcd60e51b815260206004820152601260248201527113919508185b1c9958591e481b5a5b9d195960721b60448201526064016105d9565b600954341015610a4f5760405162461bcd60e51b815260206004820152601960248201527f496e73756666696369656e74206d696e74207061796d656e740000000000000060448201526064016105d9565b6000828152600b6020526040902060048101805460ff19166001179055610a768284610fb9565b816001600160a01b0316336001600160a01b0316847ff5086c3634d7283b9db5926687f3378e368c3e147c4a8878a308ae2eb9b4135842604051610abc91815260200190565b60405180910390a4506105af6001600755565b60006001600160a01b038216610afb576040516322718ad960e21b8152600060048201526024016105d9565b506001600160a01b031660009081526003602052604090205490565b610b1f610f62565b6108d56000610fd3565b600b602052600090815260409020805460018201546002830180546001600160a01b03909316939192610b5b906118b3565b80601f0160208091040260200160405190810160405280929190818152602001828054610b87906118b3565b8015610bd45780601f10610ba957610100808354040283529160200191610bd4565b820191906000526020600020905b815481529060010190602001808311610bb757829003601f168201915b50505050600383015460049093015491929160ff16905085565b6060600180546104f8906118b3565b6105af338383611025565b610c10610f62565b6001600160a01b038116610c665760405162461bcd60e51b815260206004820152601b60248201527f496e76616c6964206d61726b6574706c6163652061646472657373000000000060448201526064016105d9565b600a80546001600160a01b038381166001600160a01b031983168117909355604080519190921680825260208201939093527f920f4de0e7427ce5cf5551817fae8bbb29975314ec846a00f7a363831f0e501291015b60405180910390a15050565b610cd38484846105b3565b61063d33858585856110c4565b6060610ceb82610e99565b506000828152600b602052604090206002018054610d08906118b3565b80601f0160208091040260200160405190810160405280929190818152602001828054610d34906118b3565b8015610d815780601f10610d5657610100808354040283529160200191610d81565b820191906000526020600020905b815481529060010190602001808311610d6457829003601f168201915b50505050509050919050565b6001600160a01b03918216600090815260056020908152604080832093909416825291909152205460ff1690565b610dc3610f62565b6001600160a01b038116610ded57604051631e4fbdf760e01b8152600060048201526024016105d9565b610df681610fd3565b50565b610e01610f62565b60008111610e5b5760405162461bcd60e51b815260206004820152602160248201527f4d696e74207072696365206d7573742062652067726561746572207468616e206044820152600360fc1b60648201526084016105d9565b600980549082905560408051828152602081018490527f2e1c9e000c6e8dda4d03536adb13b7cb6034ccff90d17f01de381e4d5097b5259101610cbc565b6000818152600260205260408120546001600160a01b0316806104e357604051637e27328960e01b8152600481018490526024016105d9565b6108f283838360016111ef565b600a546000906001600160a01b0316331480610f0357506001600160a01b03821633145b610f4f5760405162461bcd60e51b815260206004820152601a60248201527f4e6f7420617574686f72697a656420746f207472616e7366657200000000000060448201526064016105d9565b610f5a8484846112f5565b949350505050565b6006546001600160a01b031633146108d55760405163118cdaa760e01b81523360048201526024016105d9565b600260075403610fb257604051633ee5aeb560e01b815260040160405180910390fd5b6002600755565b6105af8282604051806020016040528060008152506113ee565b600680546001600160a01b038381166001600160a01b0319831681179093556040519116919082907f8be0079c531659141344cd1fd0a4f28419497f9722a3daafe3b4186f6b6457e090600090a35050565b6001600160a01b03821661105757604051630b61174360e31b81526001600160a01b03831660048201526024016105d9565b6001600160a01b03838116600081815260056020908152604080832094871680845294825291829020805460ff191686151590811790915591519182527f17307eab39ab6107e8899845ad3d59bd9653f200f220920489ca2b5937696c31910160405180910390a3505050565b6001600160a01b0383163b156111e857604051630a85bd0160e11b81526001600160a01b0384169063150b7a0290611106908890889087908790600401611a3f565b6020604051808303816000875af1925050508015611141575060408051601f3d908101601f1916820190925261113e91810190611a7c565b60015b6111aa573d80801561116f576040519150601f19603f3d011682016040523d82523d6000602084013e611174565b606091505b5080516000036111a257604051633250574960e11b81526001600160a01b03851660048201526024016105d9565b805181602001fd5b6001600160e01b03198116630a85bd0160e11b146111e657604051633250574960e11b81526001600160a01b03851660048201526024016105d9565b505b5050505050565b808061120357506001600160a01b03821615155b156112c557600061121384610e99565b90506001600160a01b0383161580159061123f5750826001600160a01b0316816001600160a01b031614155b801561125257506112508184610d8d565b155b1561127b5760405163a9fbf51f60e01b81526001600160a01b03841660048201526024016105d9565b81156112c35783856001600160a01b0316826001600160a01b03167f8c5be1e5ebec7d5bd14f71427d1e84f3dd0314c0f7b2291e5b200ac8c7c3b92560405160405180910390a45b505b5050600090815260046020526040902080546001600160a01b0319166001600160a01b0392909216919091179055565b6000828152600260205260408120546001600160a01b039081169083161561132257611322818486611406565b6001600160a01b038116156113605761133f6000856000806111ef565b6001600160a01b038116600090815260036020526040902080546000190190555b6001600160a01b0385161561138f576001600160a01b0385166000908152600360205260409020805460010190555b60008481526002602052604080822080546001600160a01b0319166001600160a01b0389811691821790925591518793918516917fddf252ad1be2c89b69c2b068fc378daa952ba7f163c4a11628f55a4df523b3ef91a4949350505050565b6113f8838361146a565b6108f23360008585856110c4565b6114118383836114cf565b6108f2576001600160a01b03831661143f57604051637e27328960e01b8152600481018290526024016105d9565b60405163177e802f60e01b81526001600160a01b0383166004820152602481018290526044016105d9565b6001600160a01b03821661149457604051633250574960e11b8152600060048201526024016105d9565b60006114a283836000610edf565b90506001600160a01b038116156108f2576040516339e3563760e11b8152600060048201526024016105d9565b60006001600160a01b03831615801590610f5a5750826001600160a01b0316846001600160a01b0316148061150957506115098484610d8d565b80610f5a5750506000908152600460205260409020546001600160a01b03908116911614919050565b6001600160e01b031981168114610df657600080fd5b60006020828403121561155a57600080fd5b813561156581611532565b9392505050565b6000815180845260005b8181101561159257602081850181015186830182015201611576565b506000602082860101526020601f19601f83011685010191505092915050565b602081526000611565602083018461156c565b6000602082840312156115d757600080fd5b5035919050565b80356001600160a01b03811681146115f557600080fd5b919050565b6000806040838503121561160d57600080fd5b611616836115de565b946020939093013593505050565b60008060006060848603121561163957600080fd5b611642846115de565b9250611650602085016115de565b929592945050506040919091013590565b634e487b7160e01b600052604160045260246000fd5b60008067ffffffffffffffff84111561169257611692611661565b50604051601f19601f85018116603f0116810181811067ffffffffffffffff821117156116c1576116c1611661565b6040528381529050808284018510156116d957600080fd5b83836020830137600060208583010152509392505050565b6000806040838503121561170457600080fd5b823567ffffffffffffffff81111561171b57600080fd5b8301601f8101851361172c57600080fd5b61173b85823560208401611677565b95602094909401359450505050565b6000806040838503121561175d57600080fd5b8235915061176d602084016115de565b90509250929050565b60006020828403121561178857600080fd5b611565826115de565b60018060a01b038616815284602082015260a0604082015260006117b860a083018661156c565b6060830194909452509015156080909101529392505050565b600080604083850312156117e457600080fd5b6117ed836115de565b91506020830135801515811461180257600080fd5b809150509250929050565b6000806000806080858703121561182357600080fd5b61182c856115de565b935061183a602086016115de565b925060408501359150606085013567ffffffffffffffff81111561185d57600080fd5b8501601f8101871361186e57600080fd5b61187d87823560208401611677565b91505092959194509250565b6000806040838503121561189c57600080fd5b6118a5836115de565b915061176d602084016115de565b600181811c908216806118c757607f821691505b6020821081036118e757634e487b7160e01b600052602260045260246000fd5b50919050565b60006001820161190d57634e487b7160e01b600052601160045260246000fd5b5060010190565b601f8211156108f257806000526020600020601f840160051c8101602085101561193b5750805b601f840160051c820191505b818110156111e85760008155600101611947565b815167ffffffffffffffff81111561197557611975611661565b6119898161198384546118b3565b84611914565b6020601f8211600181146119bd57600083156119a55750848201515b600019600385901b1c1916600184901b1784556111e8565b600084815260208120601f198516915b828110156119ed57878501518255602094850194600190920191016119cd565b5084821015611a0b5786840151600019600387901b60f8161c191681555b50505050600190811b01905550565b606081526000611a2d606083018661156c565b60208301949094525060400152919050565b6001600160a01b0385811682528416602082015260408101839052608060608201819052600090611a729083018461156c565b9695505050505050565b600060208284031215611a8e57600080fd5b81516115658161153256fea2646970667358221220eda3bb207e1868cbf633b39eef3532fd058e0b7e69e1ddd7d496a0088fb2e0b864736f6c634300081c0033",
  "linkReferences": {},
  "deployedLinkReferences": {}
}