{
  "_format": "hh-sol-artifact-1",
  "contractName": "NFTMarketplaceToken",
  "sourceName": "contracts/NFT.sol",
  "abi": [
    {
      "inputs": [
        {
          "internalType": "uint256",
          "name": "_mintPrice",
          "type": "uint256"
        },
        {
          "internalType": "address",
          "name": "_marketPlaceAddress",
          "type": "address"
        }
      ],
      "stateMutability": "nonpayable",
      "type": "constructor"
    },
    {
      "inputs": [
        {
          "internalType": "address",
          "name": "sender",
          "type": "address"
        },
        {
          "internalType": "uint256",
          "name": "tokenId",
          "type": "uint256"
        },
        {
          "internalType": "address",
          "name": "owner",
          "type": "address"
        }
      ],
      "name": "ERC721IncorrectOwner",
      "type": "error"
    },
    {
      "inputs": [
        {
          "internalType": "address",
          "name": "operator",
          "type": "address"
        },
        {
          "internalType": "uint256",
          "name": "tokenId",
          "type": "uint256"
        }
      ],
      "name": "ERC721InsufficientApproval",
      "type": "error"
    },
    {
      "inputs": [
        {
          "internalType": "address",
          "name": "approver",
          "type": "address"
        }
      ],
      "name": "ERC721InvalidApprover",
      "type": "error"
    },
    {
      "inputs": [
        {
          "internalType": "address",
          "name": "operator",
          "type": "address"
        }
      ],
      "name": "ERC721InvalidOperator",
      "type": "error"
    },
    {
      "inputs": [
        {
          "internalType": "address",
          "name": "owner",
          "type": "address"
        }
      ],
      "name": "ERC721InvalidOwner",
      "type": "error"
    },
    {
      "inputs": [
        {
          "internalType": "address",
          "name": "receiver",
          "type": "address"
        }
      ],
      "name": "ERC721InvalidReceiver",
      "type": "error"
    },
    {
      "inputs": [
        {
          "internalType": "address",
          "name": "sender",
          "type": "address"
        }
      ],
      "name": "ERC721InvalidSender",
      "type": "error"
    },
    {
      "inputs": [
        {
          "internalType": "uint256",
          "name": "tokenId",
          "type": "uint256"
        }
      ],
      "name": "ERC721NonexistentToken",
      "type": "error"
    },
    {
      "inputs": [
        {
          "internalType": "address",
          "name": "owner",
          "type": "address"
        }
      ],
      "name": "OwnableInvalidOwner",
      "type": "error"
    },
    {
      "inputs": [
        {
          "internalType": "address",
          "name": "account",
          "type": "address"
        }
      ],
      "name": "OwnableUnauthorizedAccount",
      "type": "error"
    },
    {
      "inputs": [],
      "name": "ReentrancyGuardReentrantCall",
      "type": "error"
    },
    {
      "anonymous": false,
      "inputs": [
        {
          "indexed": true,
          "internalType": "address",
          "name": "owner",
          "type": "address"
        },
        {
          "indexed": true,
          "internalType": "address",
          "name": "approved",
          "type": "address"
        },
        {
          "indexed": true,
          "internalType": "uint256",
          "name": "tokenId",
          "type": "uint256"
        }
      ],
      "name": "Approval",
      "type": "event"
    },
    {
      "anonymous": false,
      "inputs": [
        {
          "indexed": true,
          "internalType": "address",
          "name": "owner",
          "type": "address"
        },
        {
          "indexed": true,
          "internalType": "address",
          "name": "operator",
          "type": "address"
        },
        {
          "indexed": false,
          "internalType": "bool",
          "name": "approved",
          "type": "bool"
        }
      ],
      "name": "ApprovalForAll",
      "type": "event"
    },
    {
      "anonymous": false,
      "inputs": [
        {
          "indexed": false,
          "internalType": "address",
          "name": "oldAddress",
          "type": "address"
        },
        {
          "indexed": false,
          "internalType": "address",
          "name": "newAddress",
          "type": "address"
        }
      ],
      "name": "MarketplaceAddressUpdated",
      "type": "event"
    },
    {
      "anonymous": false,
      "inputs": [
        {
          "indexed": false,
          "internalType": "uint256",
          "name": "oldPrice",
          "type": "uint256"
        },
        {
          "indexed": false,
          "internalType": "uint256",
          "name": "newPrice",
          "type": "uint256"
        }
      ],
      "name": "MintPriceUpdated",
      "type": "event"
    },
    {
      "anonymous": false,
      "inputs": [
        {
          "indexed": true,
          "internalType": "uint256",
          "name": "tokenId",
          "type": "uint256"
        },
        {
          "indexed": true,
          "internalType": "address",
          "name": "creator",
          "type": "address"
        },
        {
          "indexed": false,
          "internalType": "string",
          "name": "metadataURI",
          "type": "string"
        },
        {
          "indexed": false,
          "internalType": "string",
          "name": "imageURL",
          "type": "string"
        },
        {
          "indexed": false,
          "internalType": "uint256",
          "name": "price",
          "type": "uint256"
        },
        {
          "indexed": false,
          "internalType": "uint256",
          "name": "createdAt",
          "type": "uint256"
        }
      ],
      "name": "NFTCreated",
      "type": "event"
    },
    {
      "anonymous": false,
      "inputs": [
        {
          "indexed": true,
          "internalType": "uint256",
          "name": "tokenId",
          "type": "uint256"
        },
        {
          "indexed": true,
          "internalType": "address",
          "name": "minter",
          "type": "address"
        },
        {
          "indexed": true,
          "internalType": "address",
          "name": "owner",
          "type": "address"
        },
        {
          "indexed": false,
          "internalType": "uint256",
          "name": "mintedAt",
          "type": "uint256"
        }
      ],
      "name": "NFTMinted",
      "type": "event"
    },
    {
      "anonymous": false,
      "inputs": [
        {
          "indexed": true,
          "internalType": "address",
          "name": "previousOwner",
          "type": "address"
        },
        {
          "indexed": true,
          "internalType": "address",
          "name": "newOwner",
          "type": "address"
        }
      ],
      "name": "OwnershipTransferred",
      "type": "event"
    },
    {
      "anonymous": false,
      "inputs": [
        {
          "indexed": true,
          "internalType": "address",
          "name": "from",
          "type": "address"
        },
        {
          "indexed": true,
          "internalType": "address",
          "name": "to",
          "type": "address"
        },
        {
          "indexed": true,
          "internalType": "uint256",
          "name": "tokenId",
          "type": "uint256"
        }
      ],
      "name": "Transfer",
      "type": "event"
    },
    {
      "inputs": [
        {
          "internalType": "address",
          "name": "to",
          "type": "address"
        },
        {
          "internalType": "uint256",
          "name": "tokenId",
          "type": "uint256"
        }
      ],
      "name": "approve",
      "outputs": [],
      "stateMutability": "nonpayable",
      "type": "function"
    },
    {
      "inputs": [
        {
          "internalType": "address",
          "name": "owner",
          "type": "address"
        }
      ],
      "name": "balanceOf",
      "outputs": [
        {
          "internalType": "uint256",
          "name": "",
          "type": "uint256"
        }
      ],
      "stateMutability": "view",
      "type": "function"
    },
    {
      "inputs": [
        {
          "internalType": "string",
          "name": "name",
          "type": "string"
        },
        {
          "internalType": "string",
          "name": "imageURL",
          "type": "string"
        },
        {
          "internalType": "uint256",
          "name": "price",
          "type": "uint256"
        }
      ],
      "name": "createNFT",
      "outputs": [
        {
          "internalType": "uint256",
          "name": "",
          "type": "uint256"
        }
      ],
      "stateMutability": "nonpayable",
      "type": "function"
    },
    {
      "inputs": [],
      "name": "getAllNFTs",
      "outputs": [
        {
          "components": [
            {
              "internalType": "address",
              "name": "creator",
              "type": "address"
            },
            {
              "internalType": "uint256",
              "name": "createdAt",
              "type": "uint256"
            },
            {
              "internalType": "string",
              "name": "name",
              "type": "string"
            },
            {
              "internalType": "string",
              "name": "imageURL",
              "type": "string"
            },
            {
              "internalType": "uint256",
              "name": "price",
              "type": "uint256"
            },
            {
              "internalType": "bool",
              "name": "isMinted",
              "type": "bool"
            }
          ],
          "internalType": "struct NFTMarketplaceToken.NFTInfo[]",
          "name": "",
          "type": "tuple[]"
        }
      ],
      "stateMutability": "view",
      "type": "function"
    },
    {
      "inputs": [
        {
          "internalType": "uint256",
          "name": "tokenId",
          "type": "uint256"
        }
      ],
      "name": "getApproved",
      "outputs": [
        {
          "internalType": "address",
          "name": "",
          "type": "address"
        }
      ],
      "stateMutability": "view",
      "type": "function"
    },
    {
      "inputs": [
        {
          "internalType": "address",
          "name": "owner",
          "type": "address"
        },
        {
          "internalType": "address",
          "name": "operator",
          "type": "address"
        }
      ],
      "name": "isApprovedForAll",
      "outputs": [
        {
          "internalType": "bool",
          "name": "",
          "type": "bool"
        }
      ],
      "stateMutability": "view",
      "type": "function"
    },
    {
      "inputs": [],
      "name": "marketPlaceAddress",
      "outputs": [
        {
          "internalType": "address",
          "name": "",
          "type": "address"
        }
      ],
      "stateMutability": "view",
      "type": "function"
    },
    {
      "inputs": [
        {
          "internalType": "uint256",
          "name": "tokenId",
          "type": "uint256"
        },
        {
          "internalType": "address",
          "name": "to",
          "type": "address"
        }
      ],
      "name": "mintNFT",
      "outputs": [],
      "stateMutability": "payable",
      "type": "function"
    },
    {
      "inputs": [],
      "name": "mintPrice",
      "outputs": [
        {
          "internalType": "uint256",
          "name": "",
          "type": "uint256"
        }
      ],
      "stateMutability": "view",
      "type": "function"
    },
    {
      "inputs": [],
      "name": "name",
      "outputs": [
        {
          "internalType": "string",
          "name": "",
          "type": "string"
        }
      ],
      "stateMutability": "view",
      "type": "function"
    },
    {
      "inputs": [],
      "name": "nextTokenId",
      "outputs": [
        {
          "internalType": "uint256",
          "name": "",
          "type": "uint256"
        }
      ],
      "stateMutability": "view",
      "type": "function"
    },
    {
      "inputs": [
        {
          "internalType": "uint256",
          "name": "",
          "type": "uint256"
        }
      ],
      "name": "nftDetails",
      "outputs": [
        {
          "internalType": "address",
          "name": "creator",
          "type": "address"
        },
        {
          "internalType": "uint256",
          "name": "createdAt",
          "type": "uint256"
        },
        {
          "internalType": "string",
          "name": "name",
          "type": "string"
        },
        {
          "internalType": "string",
          "name": "imageURL",
          "type": "string"
        },
        {
          "internalType": "uint256",
          "name": "price",
          "type": "uint256"
        },
        {
          "internalType": "bool",
          "name": "isMinted",
          "type": "bool"
        }
      ],
      "stateMutability": "view",
      "type": "function"
    },
    {
      "inputs": [],
      "name": "owner",
      "outputs": [
        {
          "internalType": "address",
          "name": "",
          "type": "address"
        }
      ],
      "stateMutability": "view",
      "type": "function"
    },
    {
      "inputs": [
        {
          "internalType": "uint256",
          "name": "tokenId",
          "type": "uint256"
        }
      ],
      "name": "ownerOf",
      "outputs": [
        {
          "internalType": "address",
          "name": "",
          "type": "address"
        }
      ],
      "stateMutability": "view",
      "type": "function"
    },
    {
      "inputs": [],
      "name": "renounceOwnership",
      "outputs": [],
      "stateMutability": "nonpayable",
      "type": "function"
    },
    {
      "inputs": [
        {
          "internalType": "address",
          "name": "from",
          "type": "address"
        },
        {
          "internalType": "address",
          "name": "to",
          "type": "address"
        },
        {
          "internalType": "uint256",
          "name": "tokenId",
          "type": "uint256"
        }
      ],
      "name": "safeTransferFrom",
      "outputs": [],
      "stateMutability": "nonpayable",
      "type": "function"
    },
    {
      "inputs": [
        {
          "internalType": "address",
          "name": "from",
          "type": "address"
        },
        {
          "internalType": "address",
          "name": "to",
          "type": "address"
        },
        {
          "internalType": "uint256",
          "name": "tokenId",
          "type": "uint256"
        },
        {
          "internalType": "bytes",
          "name": "data",
          "type": "bytes"
        }
      ],
      "name": "safeTransferFrom",
      "outputs": [],
      "stateMutability": "nonpayable",
      "type": "function"
    },
    {
      "inputs": [
        {
          "internalType": "address",
          "name": "operator",
          "type": "address"
        },
        {
          "internalType": "bool",
          "name": "approved",
          "type": "bool"
        }
      ],
      "name": "setApprovalForAll",
      "outputs": [],
      "stateMutability": "nonpayable",
      "type": "function"
    },
    {
      "inputs": [
        {
          "internalType": "address",
          "name": "_marketPlaceAddress",
          "type": "address"
        }
      ],
      "name": "setMarketplaceAddress",
      "outputs": [],
      "stateMutability": "nonpayable",
      "type": "function"
    },
    {
      "inputs": [
        {
          "internalType": "uint256",
          "name": "_mintPrice",
          "type": "uint256"
        }
      ],
      "name": "setMintPrice",
      "outputs": [],
      "stateMutability": "nonpayable",
      "type": "function"
    },
    {
      "inputs": [
        {
          "internalType": "bytes4",
          "name": "interfaceId",
          "type": "bytes4"
        }
      ],
      "name": "supportsInterface",
      "outputs": [
        {
          "internalType": "bool",
          "name": "",
          "type": "bool"
        }
      ],
      "stateMutability": "view",
      "type": "function"
    },
    {
      "inputs": [],
      "name": "symbol",
      "outputs": [
        {
          "internalType": "string",
          "name": "",
          "type": "string"
        }
      ],
      "stateMutability": "view",
      "type": "function"
    },
    {
      "inputs": [
        {
          "internalType": "uint256",
          "name": "tokenId",
          "type": "uint256"
        }
      ],
      "name": "tokenURI",
      "outputs": [
        {
          "internalType": "string",
          "name": "",
          "type": "string"
        }
      ],
      "stateMutability": "view",
      "type": "function"
    },
    {
      "inputs": [
        {
          "internalType": "address",
          "name": "from",
          "type": "address"
        },
        {
          "internalType": "address",
          "name": "to",
          "type": "address"
        },
        {
          "internalType": "uint256",
          "name": "tokenId",
          "type": "uint256"
        }
      ],
      "name": "transferFrom",
      "outputs": [],
      "stateMutability": "nonpayable",
      "type": "function"
    },
    {
      "inputs": [
        {
          "internalType": "address",
          "name": "newOwner",
          "type": "address"
        }
      ],
      "name": "transferOwnership",
      "outputs": [],
      "stateMutability": "nonpayable",
      "type": "function"
    },
    {
      "inputs": [],
      "name": "withdraw",
      "outputs": [],
      "stateMutability": "nonpayable",
      "type": "function"
    }
  ],
  "bytecode": "0x608060405234801561001057600080fd5b506040516129fc3803806129fc83398101604081905261002f916105c3565b336040518060400160405280601381526020017f4e46544d61726b6574706c616365546f6b656e000000000000000000000000008152506040518060400160405280600381526020016213935560ea1b8152508160009081610091919061069f565b50600161009e828261069f565b5050506001600160a01b0381166100d057604051631e4fbdf760e01b8152600060048201526024015b60405180910390fd5b6100d981610390565b506001600755816101365760405162461bcd60e51b815260206004820152602160248201527f4d696e74207072696365206d7573742062652067726561746572207468616e206044820152600360fc1b60648201526084016100c7565b6001600160a01b03811661018c5760405162461bcd60e51b815260206004820152601b60248201527f496e76616c6964206d61726b6574706c6163652061646472657373000000000060448201526064016100c7565b6009829055600a80546001600160a01b0319166001600160a01b0383161790556040805180820182526008815267487970657241706560c01b602080830191909152825160a08101909352606a8084526101f693916129929083013967016345785d8a00006103e2565b506102496040518060400160405280600f81526020016e437962657250756e6b2050616e646160881b8152506040518060a00160405280606a8152602001612854606a91396702c68af0bb1400006103e2565b5061029b6040518060400160405280600e81526020016d23b0b630b1ba34b1902a34b3b2b960911b8152506040518060a00160405280606a81526020016127ea606a9139670429d069189e00006103e2565b506102eb6040518060400160405280600c81526020016b09ccadedc40a0d0decadcd2f60a31b8152506040518060a00160405280606a8152602001612780606a913967058d15e1762800006103e2565b506103396040518060400160405280600a81526020016920b9ba3937902bb7b63360b11b8152506040518060a00160405280606a81526020016128be606a91396706f05b59d3b200006103e2565b506103886040518060400160405280600b81526020016a0a2eac2dce8eada408cdef60ab1b8152506040518060a00160405280606a8152602001612928606a9139670853a0d2313c00006103e2565b505050610803565b600680546001600160a01b038381166001600160a01b0319831681179093556040519116919082907f8be0079c531659141344cd1fd0a4f28419497f9722a3daafe3b4186f6b6457e090600090a35050565b6000808451116104215760405162461bcd60e51b815260206004820152600a602482015269456d707479206e616d6560b01b60448201526064016100c7565b60008351116104645760405162461bcd60e51b815260206004820152600f60248201526e115b5c1d1e481a5b5859d948155493608a1b60448201526064016100c7565b600082116104b45760405162461bcd60e51b815260206004820152601c60248201527f5072696365206d7573742062652067726561746572207468616e20300000000060448201526064016100c7565b60088054600091826104c58361075d565b909155506040805160c0810182523381524260208083019182528284018a8152606084018a905260808401899052600060a08501819052868152600b909252939020825181546001600160a01b0319166001600160a01b0390911617815590516001820155915192935091600282019061053f908261069f565b5060608201516003820190610554908261069f565b506080820151600482015560a0909101516005909101805460ff1916911515919091179055604051339082907f8dd9d635de35e03b428af23dc670bfc5f1b6e68b26adab4611bb8ef4c26c3b7d906105b39089908990899042906107ca565b60405180910390a3949350505050565b600080604083850312156105d657600080fd5b825160208401519092506001600160a01b03811681146105f557600080fd5b809150509250929050565b634e487b7160e01b600052604160045260246000fd5b600181811c9082168061062a57607f821691505b60208210810361064a57634e487b7160e01b600052602260045260246000fd5b50919050565b601f82111561069a57806000526020600020601f840160051c810160208510156106775750805b601f840160051c820191505b818110156106975760008155600101610683565b50505b505050565b81516001600160401b038111156106b8576106b8610600565b6106cc816106c68454610616565b84610650565b6020601f82116001811461070057600083156106e85750848201515b600019600385901b1c1916600184901b178455610697565b600084815260208120601f198516915b828110156107305787850151825560209485019460019092019101610710565b508482101561074e5786840151600019600387901b60f8161c191681555b50505050600190811b01905550565b60006001820161077d57634e487b7160e01b600052601160045260246000fd5b5060010190565b6000815180845260005b818110156107aa5760208185018101518683018201520161078e565b506000602082860101526020601f19601f83011685010191505092915050565b6080815260006107dd6080830187610784565b82810360208401526107ef8187610784565b604084019590955250506060015292915050565b611f6e806108126000396000f3fe6080604052600436106101815760003560e01c806375794a3c116100d1578063b88d4fde1161008a578063e985e9c511610064578063e985e9c514610455578063ed27107b14610475578063f2fde38b14610495578063f4a0a528146104b557600080fd5b8063b88d4fde146103f3578063c87b56dd14610413578063e0391b091461043357600080fd5b806375794a3c146103385780637d4cd8471461034e5780638da5cb5b1461038057806395d89b411461039e578063a22cb465146103b3578063b47cc556146103d357600080fd5b80633ccfd60b1161013e578063669f5a5111610118578063669f5a51146102da5780636817c76c146102ed57806370a0823114610303578063715018a61461032357600080fd5b80633ccfd60b1461028557806342842e0e1461029a5780636352211e146102ba57600080fd5b806301ffc9a71461018657806306fdde03146101bb578063081812fc146101dd578063095ea7b31461021557806323b872dd146102375780633241d34a14610257575b600080fd5b34801561019257600080fd5b506101a66101a13660046118b7565b6104d5565b60405190151581526020015b60405180910390f35b3480156101c757600080fd5b506101d0610527565b6040516101b29190611921565b3480156101e957600080fd5b506101fd6101f8366004611934565b6105b9565b6040516001600160a01b0390911681526020016101b2565b34801561022157600080fd5b50610235610230366004611969565b6105e2565b005b34801561024357600080fd5b50610235610252366004611993565b6105f1565b34801561026357600080fd5b50610277610272366004611a80565b610681565b6040519081526020016101b2565b34801561029157600080fd5b50610235610862565b3480156102a657600080fd5b506102356102b5366004611993565b61096f565b3480156102c657600080fd5b506101fd6102d5366004611934565b61098f565b6102356102e8366004611af3565b61099a565b3480156102f957600080fd5b5061027760095481565b34801561030f57600080fd5b5061027761031e366004611b1f565b610b67565b34801561032f57600080fd5b50610235610baf565b34801561034457600080fd5b5061027760085481565b34801561035a57600080fd5b5061036e610369366004611934565b610bc1565b6040516101b296959493929190611b3a565b34801561038c57600080fd5b506006546001600160a01b03166101fd565b3480156103aa57600080fd5b506101d0610d14565b3480156103bf57600080fd5b506102356103ce366004611b8e565b610d23565b3480156103df57600080fd5b506102356103ee366004611b1f565b610d2e565b3480156103ff57600080fd5b5061023561040e366004611bca565b610dee565b34801561041f57600080fd5b506101d061042e366004611934565b610e06565b34801561043f57600080fd5b50610448610eb3565b6040516101b29190611c46565b34801561046157600080fd5b506101a6610470366004611d04565b6110fc565b34801561048157600080fd5b50600a546101fd906001600160a01b031681565b3480156104a157600080fd5b506102356104b0366004611b1f565b61112a565b3480156104c157600080fd5b506102356104d0366004611934565b611168565b60006001600160e01b031982166380ac58cd60e01b148061050657506001600160e01b03198216635b5e139f60e01b145b8061052157506301ffc9a760e01b6001600160e01b03198316145b92915050565b60606000805461053690611d2e565b80601f016020809104026020016040519081016040528092919081815260200182805461056290611d2e565b80156105af5780601f10610584576101008083540402835291602001916105af565b820191906000526020600020905b81548152906001019060200180831161059257829003601f168201915b5050505050905090565b60006105c482611208565b506000828152600460205260409020546001600160a01b0316610521565b6105ed828233611241565b5050565b6001600160a01b03821661062057604051633250574960e11b8152600060048201526024015b60405180910390fd5b600061062d83833361124e565b9050836001600160a01b0316816001600160a01b03161461067b576040516364283d7b60e01b81526001600160a01b0380861660048301526024820184905282166044820152606401610617565b50505050565b6000808451116106c05760405162461bcd60e51b815260206004820152600a602482015269456d707479206e616d6560b01b6044820152606401610617565b60008351116107035760405162461bcd60e51b815260206004820152600f60248201526e115b5c1d1e481a5b5859d948155493608a1b6044820152606401610617565b600082116107535760405162461bcd60e51b815260206004820152601c60248201527f5072696365206d7573742062652067726561746572207468616e2030000000006044820152606401610617565b600880546000918261076483611d62565b909155506040805160c0810182523381524260208083019182528284018a8152606084018a905260808401899052600060a08501819052868152600b909252939020825181546001600160a01b0319166001600160a01b039091161781559051600182015591519293509160028201906107de9082611dd0565b50606082015160038201906107f39082611dd0565b506080820151600482015560a0909101516005909101805460ff1916911515919091179055604051339082907f8dd9d635de35e03b428af23dc670bfc5f1b6e68b26adab4611bb8ef4c26c3b7d90610852908990899089904290611e8f565b60405180910390a3949350505050565b61086a6112d1565b6108726112fe565b47806108b95760405162461bcd60e51b81526020600482015260166024820152754e6f2062616c616e636520746f20776974686472617760501b6044820152606401610617565b60006108cd6006546001600160a01b031690565b6001600160a01b03168260405160006040518083038185875af1925050503d8060008114610917576040519150601f19603f3d011682016040523d82523d6000602084013e61091c565b606091505b50509050806109615760405162461bcd60e51b815260206004820152601160248201527015da5d1a191c985dd85b0819985a5b1959607a1b6044820152606401610617565b505061096d6001600755565b565b61098a83838360405180602001604052806000815250610dee565b505050565b600061052182611208565b6109a26112fe565b6001600160a01b0381166109f85760405162461bcd60e51b815260206004820152601960248201527f496e76616c696420726563697069656e742061646472657373000000000000006044820152606401610617565b6008548210610a3e5760405162461bcd60e51b815260206004820152601260248201527113919508191bd95cc81b9bdd08195e1a5cdd60721b6044820152606401610617565b6000828152600b602052604090206005015460ff1615610a955760405162461bcd60e51b815260206004820152601260248201527113919508185b1c9958591e481b5a5b9d195960721b6044820152606401610617565b600954341015610ae75760405162461bcd60e51b815260206004820152601960248201527f496e73756666696369656e74206d696e74207061796d656e74000000000000006044820152606401610617565b6000828152600b6020526040902060058101805460ff19166001179055610b0e8284611328565b816001600160a01b0316336001600160a01b0316847ff5086c3634d7283b9db5926687f3378e368c3e147c4a8878a308ae2eb9b4135842604051610b5491815260200190565b60405180910390a4506105ed6001600755565b60006001600160a01b038216610b93576040516322718ad960e21b815260006004820152602401610617565b506001600160a01b031660009081526003602052604090205490565b610bb76112d1565b61096d6000611342565b600b602052600090815260409020805460018201546002830180546001600160a01b03909316939192610bf390611d2e565b80601f0160208091040260200160405190810160405280929190818152602001828054610c1f90611d2e565b8015610c6c5780601f10610c4157610100808354040283529160200191610c6c565b820191906000526020600020905b815481529060010190602001808311610c4f57829003601f168201915b505050505090806003018054610c8190611d2e565b80601f0160208091040260200160405190810160405280929190818152602001828054610cad90611d2e565b8015610cfa5780601f10610ccf57610100808354040283529160200191610cfa565b820191906000526020600020905b815481529060010190602001808311610cdd57829003601f168201915b50505050600483015460059093015491929160ff16905086565b60606001805461053690611d2e565b6105ed338383611394565b610d366112d1565b6001600160a01b038116610d8c5760405162461bcd60e51b815260206004820152601b60248201527f496e76616c6964206d61726b6574706c616365206164647265737300000000006044820152606401610617565b600a80546001600160a01b038381166001600160a01b031983168117909355604080519190921680825260208201939093527f920f4de0e7427ce5cf5551817fae8bbb29975314ec846a00f7a363831f0e501291015b60405180910390a15050565b610df98484846105f1565b61067b3385858585611433565b6060610e1182611208565b506000828152600b602052604090206003018054610e2e90611d2e565b80601f0160208091040260200160405190810160405280929190818152602001828054610e5a90611d2e565b8015610ea75780601f10610e7c57610100808354040283529160200191610ea7565b820191906000526020600020905b815481529060010190602001808311610e8a57829003601f168201915b50505050509050919050565b6060600060085467ffffffffffffffff811115610ed257610ed26119d0565b604051908082528060200260200182016040528015610f4757816020015b610f346040518060c0016040528060006001600160a01b03168152602001600081526020016060815260200160608152602001600081526020016000151581525090565b815260200190600190039081610ef05790505b50905060005b6008548110156110f6576000818152600b6020908152604091829020825160c08101845281546001600160a01b031681526001820154928101929092526002810180549293919291840191610fa190611d2e565b80601f0160208091040260200160405190810160405280929190818152602001828054610fcd90611d2e565b801561101a5780601f10610fef5761010080835404028352916020019161101a565b820191906000526020600020905b815481529060010190602001808311610ffd57829003601f168201915b5050505050815260200160038201805461103390611d2e565b80601f016020809104026020016040519081016040528092919081815260200182805461105f90611d2e565b80156110ac5780601f10611081576101008083540402835291602001916110ac565b820191906000526020600020905b81548152906001019060200180831161108f57829003601f168201915b50505091835250506004820154602082015260059091015460ff16151560409091015282518390839081106110e3576110e3611ec8565b6020908102919091010152600101610f4d565b50919050565b6001600160a01b03918216600090815260056020908152604080832093909416825291909152205460ff1690565b6111326112d1565b6001600160a01b03811661115c57604051631e4fbdf760e01b815260006004820152602401610617565b61116581611342565b50565b6111706112d1565b600081116111ca5760405162461bcd60e51b815260206004820152602160248201527f4d696e74207072696365206d7573742062652067726561746572207468616e206044820152600360fc1b6064820152608401610617565b600980549082905560408051828152602081018490527f2e1c9e000c6e8dda4d03536adb13b7cb6034ccff90d17f01de381e4d5097b5259101610de2565b6000818152600260205260408120546001600160a01b03168061052157604051637e27328960e01b815260048101849052602401610617565b61098a838383600161155e565b600a546000906001600160a01b031633148061127257506001600160a01b03821633145b6112be5760405162461bcd60e51b815260206004820152601a60248201527f4e6f7420617574686f72697a656420746f207472616e736665720000000000006044820152606401610617565b6112c9848484611664565b949350505050565b6006546001600160a01b0316331461096d5760405163118cdaa760e01b8152336004820152602401610617565b60026007540361132157604051633ee5aeb560e01b815260040160405180910390fd5b6002600755565b6105ed82826040518060200160405280600081525061175d565b600680546001600160a01b038381166001600160a01b0319831681179093556040519116919082907f8be0079c531659141344cd1fd0a4f28419497f9722a3daafe3b4186f6b6457e090600090a35050565b6001600160a01b0382166113c657604051630b61174360e31b81526001600160a01b0383166004820152602401610617565b6001600160a01b03838116600081815260056020908152604080832094871680845294825291829020805460ff191686151590811790915591519182527f17307eab39ab6107e8899845ad3d59bd9653f200f220920489ca2b5937696c31910160405180910390a3505050565b6001600160a01b0383163b1561155757604051630a85bd0160e11b81526001600160a01b0384169063150b7a0290611475908890889087908790600401611ede565b6020604051808303816000875af19250505080156114b0575060408051601f3d908101601f191682019092526114ad91810190611f1b565b60015b611519573d8080156114de576040519150601f19603f3d011682016040523d82523d6000602084013e6114e3565b606091505b50805160000361151157604051633250574960e11b81526001600160a01b0385166004820152602401610617565b805181602001fd5b6001600160e01b03198116630a85bd0160e11b1461155557604051633250574960e11b81526001600160a01b0385166004820152602401610617565b505b5050505050565b808061157257506001600160a01b03821615155b1561163457600061158284611208565b90506001600160a01b038316158015906115ae5750826001600160a01b0316816001600160a01b031614155b80156115c157506115bf81846110fc565b155b156115ea5760405163a9fbf51f60e01b81526001600160a01b0384166004820152602401610617565b81156116325783856001600160a01b0316826001600160a01b03167f8c5be1e5ebec7d5bd14f71427d1e84f3dd0314c0f7b2291e5b200ac8c7c3b92560405160405180910390a45b505b5050600090815260046020526040902080546001600160a01b0319166001600160a01b0392909216919091179055565b6000828152600260205260408120546001600160a01b039081169083161561169157611691818486611775565b6001600160a01b038116156116cf576116ae60008560008061155e565b6001600160a01b038116600090815260036020526040902080546000190190555b6001600160a01b038516156116fe576001600160a01b0385166000908152600360205260409020805460010190555b60008481526002602052604080822080546001600160a01b0319166001600160a01b0389811691821790925591518793918516917fddf252ad1be2c89b69c2b068fc378daa952ba7f163c4a11628f55a4df523b3ef91a4949350505050565b61176783836117d9565b61098a336000858585611433565b61178083838361183e565b61098a576001600160a01b0383166117ae57604051637e27328960e01b815260048101829052602401610617565b60405163177e802f60e01b81526001600160a01b038316600482015260248101829052604401610617565b6001600160a01b03821661180357604051633250574960e11b815260006004820152602401610617565b60006118118383600061124e565b90506001600160a01b0381161561098a576040516339e3563760e11b815260006004820152602401610617565b60006001600160a01b038316158015906112c95750826001600160a01b0316846001600160a01b03161480611878575061187884846110fc565b806112c95750506000908152600460205260409020546001600160a01b03908116911614919050565b6001600160e01b03198116811461116557600080fd5b6000602082840312156118c957600080fd5b81356118d4816118a1565b9392505050565b6000815180845260005b81811015611901576020818501810151868301820152016118e5565b506000602082860101526020601f19601f83011685010191505092915050565b6020815260006118d460208301846118db565b60006020828403121561194657600080fd5b5035919050565b80356001600160a01b038116811461196457600080fd5b919050565b6000806040838503121561197c57600080fd5b6119858361194d565b946020939093013593505050565b6000806000606084860312156119a857600080fd5b6119b18461194d565b92506119bf6020850161194d565b929592945050506040919091013590565b634e487b7160e01b600052604160045260246000fd5b60008067ffffffffffffffff841115611a0157611a016119d0565b50604051601f19601f85018116603f0116810181811067ffffffffffffffff82111715611a3057611a306119d0565b604052838152905080828401851015611a4857600080fd5b83836020830137600060208583010152509392505050565b600082601f830112611a7157600080fd5b6118d4838335602085016119e6565b600080600060608486031215611a9557600080fd5b833567ffffffffffffffff811115611aac57600080fd5b611ab886828701611a60565b935050602084013567ffffffffffffffff811115611ad557600080fd5b611ae186828701611a60565b93969395505050506040919091013590565b60008060408385031215611b0657600080fd5b82359150611b166020840161194d565b90509250929050565b600060208284031215611b3157600080fd5b6118d48261194d565b60018060a01b038716815285602082015260c060408201526000611b6160c08301876118db565b8281036060840152611b7381876118db565b6080840195909552505090151560a090910152949350505050565b60008060408385031215611ba157600080fd5b611baa8361194d565b915060208301358015158114611bbf57600080fd5b809150509250929050565b60008060008060808587031215611be057600080fd5b611be98561194d565b9350611bf76020860161194d565b925060408501359150606085013567ffffffffffffffff811115611c1a57600080fd5b8501601f81018713611c2b57600080fd5b611c3a878235602084016119e6565b91505092959194509250565b6000602082016020835280845180835260408501915060408160051b86010192506020860160005b82811015611cf857603f19878603018452815160018060a01b03815116865260208101516020870152604081015160c06040880152611cb060c08801826118db565b905060608201518782036060890152611cc982826118db565b608084810151908a015260a0938401511515939098019290925250506020938401939190910190600101611c6e565b50929695505050505050565b60008060408385031215611d1757600080fd5b611d208361194d565b9150611b166020840161194d565b600181811c90821680611d4257607f821691505b6020821081036110f657634e487b7160e01b600052602260045260246000fd5b600060018201611d8257634e487b7160e01b600052601160045260246000fd5b5060010190565b601f82111561098a57806000526020600020601f840160051c81016020851015611db05750805b601f840160051c820191505b818110156115575760008155600101611dbc565b815167ffffffffffffffff811115611dea57611dea6119d0565b611dfe81611df88454611d2e565b84611d89565b6020601f821160018114611e325760008315611e1a5750848201515b600019600385901b1c1916600184901b178455611557565b600084815260208120601f198516915b82811015611e625787850151825560209485019460019092019101611e42565b5084821015611e805786840151600019600387901b60f8161c191681555b50505050600190811b01905550565b608081526000611ea260808301876118db565b8281036020840152611eb481876118db565b604084019590955250506060015292915050565b634e487b7160e01b600052603260045260246000fd5b6001600160a01b0385811682528416602082015260408101839052608060608201819052600090611f11908301846118db565b9695505050505050565b600060208284031215611f2d57600080fd5b81516118d4816118a156fea264697066735822122070e4785c5fcd8adde9b3d5dd44aa4da87529b3ffce3c010dda625389fc1e753f64736f6c634300081c003368747470733a2f2f7265732e636c6f7564696e6172792e636f6d2f6467717a7a796633372f696d6167652f75706c6f61642f76313733373236393735372f61343830366334616266386366386439653866326238666634336562626363325f62716a6c6a332e6176696668747470733a2f2f7265732e636c6f7564696e6172792e636f6d2f6467717a7a796633372f696d6167652f75706c6f61642f76313733373236393737302f35376132643033643637303866643663633266623465663939663864346134645f66747134656c2e6176696668747470733a2f2f7265732e636c6f7564696e6172792e636f6d2f6467717a7a796633372f696d6167652f75706c6f61642f76313733373236393738302f65656630333334393339383935643361653363303335336631313739623561335f6c6e767875722e6176696668747470733a2f2f7265732e636c6f7564696e6172792e636f6d2f6467717a7a796633372f696d6167652f75706c6f61642f76313733373236393734352f36336631383866653066663537633037353566303966306439633231656236315f6d706d646a672e6176696668747470733a2f2f7265732e636c6f7564696e6172792e636f6d2f6467717a7a796633372f696d6167652f75706c6f61642f76313733373236393731352f66633835326532363033653465376534326530346136656435613634303663635f7767627578702e6176696668747470733a2f2f7265732e636c6f7564696e6172792e636f6d2f6467717a7a796633372f696d6167652f75706c6f61642f76313733373236393739312f38616131346134653666633034316131636631636232383462373161633264355f64766e3568752e61766966",
  "linkReferences": {},
  "deployedLinkReferences": {}
}