{
  "_format": "hh-sol-artifact-1",
  "contractName": "NFTMarketplaceToken",
  "sourceName": "contracts/NFT.sol",
  "abi": [
    {
      "inputs": [
        {
          "internalType": "uint256",
          "name": "_mintPrice",
          "type": "uint256"
        },
        {
          "internalType": "address",
          "name": "_marketPlaceAddress",
          "type": "address"
        }
      ],
      "stateMutability": "nonpayable",
      "type": "constructor"
    },
    {
      "inputs": [
        {
          "internalType": "address",
          "name": "sender",
          "type": "address"
        },
        {
          "internalType": "uint256",
          "name": "tokenId",
          "type": "uint256"
        },
        {
          "internalType": "address",
          "name": "owner",
          "type": "address"
        }
      ],
      "name": "ERC721IncorrectOwner",
      "type": "error"
    },
    {
      "inputs": [
        {
          "internalType": "address",
          "name": "operator",
          "type": "address"
        },
        {
          "internalType": "uint256",
          "name": "tokenId",
          "type": "uint256"
        }
      ],
      "name": "ERC721InsufficientApproval",
      "type": "error"
    },
    {
      "inputs": [
        {
          "internalType": "address",
          "name": "approver",
          "type": "address"
        }
      ],
      "name": "ERC721InvalidApprover",
      "type": "error"
    },
    {
      "inputs": [
        {
          "internalType": "address",
          "name": "operator",
          "type": "address"
        }
      ],
      "name": "ERC721InvalidOperator",
      "type": "error"
    },
    {
      "inputs": [
        {
          "internalType": "address",
          "name": "owner",
          "type": "address"
        }
      ],
      "name": "ERC721InvalidOwner",
      "type": "error"
    },
    {
      "inputs": [
        {
          "internalType": "address",
          "name": "receiver",
          "type": "address"
        }
      ],
      "name": "ERC721InvalidReceiver",
      "type": "error"
    },
    {
      "inputs": [
        {
          "internalType": "address",
          "name": "sender",
          "type": "address"
        }
      ],
      "name": "ERC721InvalidSender",
      "type": "error"
    },
    {
      "inputs": [
        {
          "internalType": "uint256",
          "name": "tokenId",
          "type": "uint256"
        }
      ],
      "name": "ERC721NonexistentToken",
      "type": "error"
    },
    {
      "inputs": [
        {
          "internalType": "address",
          "name": "owner",
          "type": "address"
        }
      ],
      "name": "OwnableInvalidOwner",
      "type": "error"
    },
    {
      "inputs": [
        {
          "internalType": "address",
          "name": "account",
          "type": "address"
        }
      ],
      "name": "OwnableUnauthorizedAccount",
      "type": "error"
    },
    {
      "inputs": [],
      "name": "ReentrancyGuardReentrantCall",
      "type": "error"
    },
    {
      "anonymous": false,
      "inputs": [
        {
          "indexed": true,
          "internalType": "address",
          "name": "owner",
          "type": "address"
        },
        {
          "indexed": true,
          "internalType": "address",
          "name": "approved",
          "type": "address"
        },
        {
          "indexed": true,
          "internalType": "uint256",
          "name": "tokenId",
          "type": "uint256"
        }
      ],
      "name": "Approval",
      "type": "event"
    },
    {
      "anonymous": false,
      "inputs": [
        {
          "indexed": true,
          "internalType": "address",
          "name": "owner",
          "type": "address"
        },
        {
          "indexed": true,
          "internalType": "address",
          "name": "operator",
          "type": "address"
        },
        {
          "indexed": false,
          "internalType": "bool",
          "name": "approved",
          "type": "bool"
        }
      ],
      "name": "ApprovalForAll",
      "type": "event"
    },
    {
      "anonymous": false,
      "inputs": [
        {
          "indexed": false,
          "internalType": "address",
          "name": "oldAddress",
          "type": "address"
        },
        {
          "indexed": false,
          "internalType": "address",
          "name": "newAddress",
          "type": "address"
        }
      ],
      "name": "MarketplaceAddressUpdated",
      "type": "event"
    },
    {
      "anonymous": false,
      "inputs": [
        {
          "indexed": false,
          "internalType": "uint256",
          "name": "oldPrice",
          "type": "uint256"
        },
        {
          "indexed": false,
          "internalType": "uint256",
          "name": "newPrice",
          "type": "uint256"
        }
      ],
      "name": "MintPriceUpdated",
      "type": "event"
    },
    {
      "anonymous": false,
      "inputs": [
        {
          "indexed": true,
          "internalType": "uint256",
          "name": "tokenId",
          "type": "uint256"
        },
        {
          "indexed": true,
          "internalType": "address",
          "name": "creator",
          "type": "address"
        },
        {
          "indexed": false,
          "internalType": "string",
          "name": "metadataURI",
          "type": "string"
        },
        {
          "indexed": false,
          "internalType": "string",
          "name": "imageURL",
          "type": "string"
        },
        {
          "indexed": false,
          "internalType": "uint256",
          "name": "price",
          "type": "uint256"
        },
        {
          "indexed": false,
          "internalType": "uint256",
          "name": "createdAt",
          "type": "uint256"
        }
      ],
      "name": "NFTCreated",
      "type": "event"
    },
    {
      "anonymous": false,
      "inputs": [
        {
          "indexed": true,
          "internalType": "uint256",
          "name": "tokenId",
          "type": "uint256"
        },
        {
          "indexed": true,
          "internalType": "address",
          "name": "minter",
          "type": "address"
        },
        {
          "indexed": true,
          "internalType": "address",
          "name": "owner",
          "type": "address"
        },
        {
          "indexed": false,
          "internalType": "uint256",
          "name": "mintedAt",
          "type": "uint256"
        }
      ],
      "name": "NFTMinted",
      "type": "event"
    },
    {
      "anonymous": false,
      "inputs": [
        {
          "indexed": true,
          "internalType": "address",
          "name": "previousOwner",
          "type": "address"
        },
        {
          "indexed": true,
          "internalType": "address",
          "name": "newOwner",
          "type": "address"
        }
      ],
      "name": "OwnershipTransferred",
      "type": "event"
    },
    {
      "anonymous": false,
      "inputs": [
        {
          "indexed": true,
          "internalType": "address",
          "name": "from",
          "type": "address"
        },
        {
          "indexed": true,
          "internalType": "address",
          "name": "to",
          "type": "address"
        },
        {
          "indexed": true,
          "internalType": "uint256",
          "name": "tokenId",
          "type": "uint256"
        }
      ],
      "name": "Transfer",
      "type": "event"
    },
    {
      "inputs": [
        {
          "internalType": "address",
          "name": "to",
          "type": "address"
        },
        {
          "internalType": "uint256",
          "name": "tokenId",
          "type": "uint256"
        }
      ],
      "name": "approve",
      "outputs": [],
      "stateMutability": "nonpayable",
      "type": "function"
    },
    {
      "inputs": [
        {
          "internalType": "address",
          "name": "owner",
          "type": "address"
        }
      ],
      "name": "balanceOf",
      "outputs": [
        {
          "internalType": "uint256",
          "name": "",
          "type": "uint256"
        }
      ],
      "stateMutability": "view",
      "type": "function"
    },
    {
      "inputs": [
        {
          "internalType": "string",
          "name": "name",
          "type": "string"
        },
        {
          "internalType": "string",
          "name": "imageURL",
          "type": "string"
        },
        {
          "internalType": "uint256",
          "name": "price",
          "type": "uint256"
        }
      ],
      "name": "createNFT",
      "outputs": [
        {
          "internalType": "uint256",
          "name": "",
          "type": "uint256"
        }
      ],
      "stateMutability": "nonpayable",
      "type": "function"
    },
    {
      "inputs": [],
      "name": "getAllNFTs",
      "outputs": [
        {
          "components": [
            {
              "internalType": "address",
              "name": "creator",
              "type": "address"
            },
            {
              "internalType": "uint256",
              "name": "createdAt",
              "type": "uint256"
            },
            {
              "internalType": "string",
              "name": "name",
              "type": "string"
            },
            {
              "internalType": "string",
              "name": "imageURL",
              "type": "string"
            },
            {
              "internalType": "uint256",
              "name": "price",
              "type": "uint256"
            },
            {
              "internalType": "bool",
              "name": "isMinted",
              "type": "bool"
            }
          ],
          "internalType": "struct NFTMarketplaceToken.NFTInfo[]",
          "name": "",
          "type": "tuple[]"
        }
      ],
      "stateMutability": "view",
      "type": "function"
    },
    {
      "inputs": [
        {
          "internalType": "uint256",
          "name": "tokenId",
          "type": "uint256"
        }
      ],
      "name": "getApproved",
      "outputs": [
        {
          "internalType": "address",
          "name": "",
          "type": "address"
        }
      ],
      "stateMutability": "view",
      "type": "function"
    },
    {
      "inputs": [
        {
          "internalType": "address",
          "name": "owner",
          "type": "address"
        },
        {
          "internalType": "address",
          "name": "operator",
          "type": "address"
        }
      ],
      "name": "isApprovedForAll",
      "outputs": [
        {
          "internalType": "bool",
          "name": "",
          "type": "bool"
        }
      ],
      "stateMutability": "view",
      "type": "function"
    },
    {
      "inputs": [],
      "name": "marketPlaceAddress",
      "outputs": [
        {
          "internalType": "address",
          "name": "",
          "type": "address"
        }
      ],
      "stateMutability": "view",
      "type": "function"
    },
    {
      "inputs": [
        {
          "internalType": "uint256",
          "name": "tokenId",
          "type": "uint256"
        },
        {
          "internalType": "address",
          "name": "to",
          "type": "address"
        }
      ],
      "name": "mintNFT",
      "outputs": [],
      "stateMutability": "payable",
      "type": "function"
    },
    {
      "inputs": [],
      "name": "mintPrice",
      "outputs": [
        {
          "internalType": "uint256",
          "name": "",
          "type": "uint256"
        }
      ],
      "stateMutability": "view",
      "type": "function"
    },
    {
      "inputs": [],
      "name": "name",
      "outputs": [
        {
          "internalType": "string",
          "name": "",
          "type": "string"
        }
      ],
      "stateMutability": "view",
      "type": "function"
    },
    {
      "inputs": [],
      "name": "nextTokenId",
      "outputs": [
        {
          "internalType": "uint256",
          "name": "",
          "type": "uint256"
        }
      ],
      "stateMutability": "view",
      "type": "function"
    },
    {
      "inputs": [
        {
          "internalType": "uint256",
          "name": "",
          "type": "uint256"
        }
      ],
      "name": "nftDetails",
      "outputs": [
        {
          "internalType": "address",
          "name": "creator",
          "type": "address"
        },
        {
          "internalType": "uint256",
          "name": "createdAt",
          "type": "uint256"
        },
        {
          "internalType": "string",
          "name": "name",
          "type": "string"
        },
        {
          "internalType": "string",
          "name": "imageURL",
          "type": "string"
        },
        {
          "internalType": "uint256",
          "name": "price",
          "type": "uint256"
        },
        {
          "internalType": "bool",
          "name": "isMinted",
          "type": "bool"
        }
      ],
      "stateMutability": "view",
      "type": "function"
    },
    {
      "inputs": [],
      "name": "owner",
      "outputs": [
        {
          "internalType": "address",
          "name": "",
          "type": "address"
        }
      ],
      "stateMutability": "view",
      "type": "function"
    },
    {
      "inputs": [
        {
          "internalType": "uint256",
          "name": "tokenId",
          "type": "uint256"
        }
      ],
      "name": "ownerOf",
      "outputs": [
        {
          "internalType": "address",
          "name": "",
          "type": "address"
        }
      ],
      "stateMutability": "view",
      "type": "function"
    },
    {
      "inputs": [],
      "name": "renounceOwnership",
      "outputs": [],
      "stateMutability": "nonpayable",
      "type": "function"
    },
    {
      "inputs": [
        {
          "internalType": "address",
          "name": "from",
          "type": "address"
        },
        {
          "internalType": "address",
          "name": "to",
          "type": "address"
        },
        {
          "internalType": "uint256",
          "name": "tokenId",
          "type": "uint256"
        }
      ],
      "name": "safeTransferFrom",
      "outputs": [],
      "stateMutability": "nonpayable",
      "type": "function"
    },
    {
      "inputs": [
        {
          "internalType": "address",
          "name": "from",
          "type": "address"
        },
        {
          "internalType": "address",
          "name": "to",
          "type": "address"
        },
        {
          "internalType": "uint256",
          "name": "tokenId",
          "type": "uint256"
        },
        {
          "internalType": "bytes",
          "name": "data",
          "type": "bytes"
        }
      ],
      "name": "safeTransferFrom",
      "outputs": [],
      "stateMutability": "nonpayable",
      "type": "function"
    },
    {
      "inputs": [
        {
          "internalType": "address",
          "name": "operator",
          "type": "address"
        },
        {
          "internalType": "bool",
          "name": "approved",
          "type": "bool"
        }
      ],
      "name": "setApprovalForAll",
      "outputs": [],
      "stateMutability": "nonpayable",
      "type": "function"
    },
    {
      "inputs": [
        {
          "internalType": "address",
          "name": "_marketPlaceAddress",
          "type": "address"
        }
      ],
      "name": "setMarketplaceAddress",
      "outputs": [],
      "stateMutability": "nonpayable",
      "type": "function"
    },
    {
      "inputs": [
        {
          "internalType": "uint256",
          "name": "_mintPrice",
          "type": "uint256"
        }
      ],
      "name": "setMintPrice",
      "outputs": [],
      "stateMutability": "nonpayable",
      "type": "function"
    },
    {
      "inputs": [
        {
          "internalType": "bytes4",
          "name": "interfaceId",
          "type": "bytes4"
        }
      ],
      "name": "supportsInterface",
      "outputs": [
        {
          "internalType": "bool",
          "name": "",
          "type": "bool"
        }
      ],
      "stateMutability": "view",
      "type": "function"
    },
    {
      "inputs": [],
      "name": "symbol",
      "outputs": [
        {
          "internalType": "string",
          "name": "",
          "type": "string"
        }
      ],
      "stateMutability": "view",
      "type": "function"
    },
    {
      "inputs": [
        {
          "internalType": "address",
          "name": "owner",
          "type": "address"
        },
        {
          "internalType": "uint256",
          "name": "index",
          "type": "uint256"
        }
      ],
      "name": "tokenOfOwnerByIndex",
      "outputs": [
        {
          "internalType": "uint256",
          "name": "",
          "type": "uint256"
        }
      ],
      "stateMutability": "view",
      "type": "function"
    },
    {
      "inputs": [
        {
          "internalType": "uint256",
          "name": "tokenId",
          "type": "uint256"
        }
      ],
      "name": "tokenURI",
      "outputs": [
        {
          "internalType": "string",
          "name": "",
          "type": "string"
        }
      ],
      "stateMutability": "view",
      "type": "function"
    },
    {
      "inputs": [
        {
          "internalType": "address",
          "name": "owner",
          "type": "address"
        }
      ],
      "name": "tokensOfOwner",
      "outputs": [
        {
          "internalType": "uint256[]",
          "name": "",
          "type": "uint256[]"
        }
      ],
      "stateMutability": "view",
      "type": "function"
    },
    {
      "inputs": [
        {
          "internalType": "address",
          "name": "from",
          "type": "address"
        },
        {
          "internalType": "address",
          "name": "to",
          "type": "address"
        },
        {
          "internalType": "uint256",
          "name": "tokenId",
          "type": "uint256"
        }
      ],
      "name": "transferFrom",
      "outputs": [],
      "stateMutability": "nonpayable",
      "type": "function"
    },
    {
      "inputs": [
        {
          "internalType": "address",
          "name": "newOwner",
          "type": "address"
        }
      ],
      "name": "transferOwnership",
      "outputs": [],
      "stateMutability": "nonpayable",
      "type": "function"
    },
    {
      "inputs": [],
      "name": "withdraw",
      "outputs": [],
      "stateMutability": "nonpayable",
      "type": "function"
    }
  ],
  "bytecode": "0x608060405234801561001057600080fd5b50604051612c45380380612c4583398101604081905261002f916105c3565b336040518060400160405280601381526020017f4e46544d61726b6574706c616365546f6b656e000000000000000000000000008152506040518060400160405280600381526020016213935560ea1b8152508160009081610091919061069f565b50600161009e828261069f565b5050506001600160a01b0381166100d057604051631e4fbdf760e01b8152600060048201526024015b60405180910390fd5b6100d981610390565b506001600755816101365760405162461bcd60e51b815260206004820152602160248201527f4d696e74207072696365206d7573742062652067726561746572207468616e206044820152600360fc1b60648201526084016100c7565b6001600160a01b03811661018c5760405162461bcd60e51b815260206004820152601b60248201527f496e76616c6964206d61726b6574706c6163652061646472657373000000000060448201526064016100c7565b6009829055600a80546001600160a01b0319166001600160a01b0383161790556040805180820182526008815267487970657241706560c01b602080830191909152825160a08101909352606a8084526101f69391612bdb9083013967016345785d8a00006103e2565b506102496040518060400160405280600f81526020016e437962657250756e6b2050616e646160881b8152506040518060a00160405280606a8152602001612a9d606a91396702c68af0bb1400006103e2565b5061029b6040518060400160405280600e81526020016d23b0b630b1ba34b1902a34b3b2b960911b8152506040518060a00160405280606a8152602001612a33606a9139670429d069189e00006103e2565b506102eb6040518060400160405280600c81526020016b09ccadedc40a0d0decadcd2f60a31b8152506040518060a00160405280606a81526020016129c9606a913967058d15e1762800006103e2565b506103396040518060400160405280600a81526020016920b9ba3937902bb7b63360b11b8152506040518060a00160405280606a8152602001612b07606a91396706f05b59d3b200006103e2565b506103886040518060400160405280600b81526020016a0a2eac2dce8eada408cdef60ab1b8152506040518060a00160405280606a8152602001612b71606a9139670853a0d2313c00006103e2565b505050610803565b600680546001600160a01b038381166001600160a01b0319831681179093556040519116919082907f8be0079c531659141344cd1fd0a4f28419497f9722a3daafe3b4186f6b6457e090600090a35050565b6000808451116104215760405162461bcd60e51b815260206004820152600a602482015269456d707479206e616d6560b01b60448201526064016100c7565b60008351116104645760405162461bcd60e51b815260206004820152600f60248201526e115b5c1d1e481a5b5859d948155493608a1b60448201526064016100c7565b600082116104b45760405162461bcd60e51b815260206004820152601c60248201527f5072696365206d7573742062652067726561746572207468616e20300000000060448201526064016100c7565b60088054600091826104c58361075d565b909155506040805160c0810182523381524260208083019182528284018a8152606084018a905260808401899052600060a08501819052868152600b909252939020825181546001600160a01b0319166001600160a01b0390911617815590516001820155915192935091600282019061053f908261069f565b5060608201516003820190610554908261069f565b506080820151600482015560a0909101516005909101805460ff1916911515919091179055604051339082907f8dd9d635de35e03b428af23dc670bfc5f1b6e68b26adab4611bb8ef4c26c3b7d906105b39089908990899042906107ca565b60405180910390a3949350505050565b600080604083850312156105d657600080fd5b825160208401519092506001600160a01b03811681146105f557600080fd5b809150509250929050565b634e487b7160e01b600052604160045260246000fd5b600181811c9082168061062a57607f821691505b60208210810361064a57634e487b7160e01b600052602260045260246000fd5b50919050565b601f82111561069a57806000526020600020601f840160051c810160208510156106775750805b601f840160051c820191505b818110156106975760008155600101610683565b50505b505050565b81516001600160401b038111156106b8576106b8610600565b6106cc816106c68454610616565b84610650565b6020601f82116001811461070057600083156106e85750848201515b600019600385901b1c1916600184901b178455610697565b600084815260208120601f198516915b828110156107305787850151825560209485019460019092019101610710565b508482101561074e5786840151600019600387901b60f8161c191681555b50505050600190811b01905550565b60006001820161077d57634e487b7160e01b600052601160045260246000fd5b5060010190565b6000815180845260005b818110156107aa5760208185018101518683018201520161078e565b506000602082860101526020601f19601f83011685010191505092915050565b6080815260006107dd6080830187610784565b82810360208401526107ef8187610784565b604084019590955250506060015292915050565b6121b7806108126000396000f3fe6080604052600436106101b75760003560e01c806375794a3c116100ec578063b88d4fde1161008a578063e985e9c511610064578063e985e9c5146104d8578063ed27107b146104f8578063f2fde38b14610518578063f4a0a5281461053857600080fd5b8063b88d4fde14610476578063c87b56dd14610496578063e0391b09146104b657600080fd5b80638da5cb5b116100c65780638da5cb5b1461040357806395d89b4114610421578063a22cb46514610436578063b47cc5561461045657600080fd5b806375794a3c1461038e5780637d4cd847146103a45780638462151c146103d657600080fd5b80633ccfd60b11610159578063669f5a5111610133578063669f5a51146103305780636817c76c1461034357806370a0823114610359578063715018a61461037957600080fd5b80633ccfd60b146102db57806342842e0e146102f05780636352211e1461031057600080fd5b8063095ea7b311610195578063095ea7b31461024b57806323b872dd1461026d5780632f745c591461028d5780633241d34a146102bb57600080fd5b806301ffc9a7146101bc57806306fdde03146101f1578063081812fc14610213575b600080fd5b3480156101c857600080fd5b506101dc6101d7366004611abd565b610558565b60405190151581526020015b60405180910390f35b3480156101fd57600080fd5b506102066105aa565b6040516101e89190611b27565b34801561021f57600080fd5b5061023361022e366004611b3a565b61063c565b6040516001600160a01b0390911681526020016101e8565b34801561025757600080fd5b5061026b610266366004611b6f565b610665565b005b34801561027957600080fd5b5061026b610288366004611b99565b610674565b34801561029957600080fd5b506102ad6102a8366004611b6f565b610704565b6040519081526020016101e8565b3480156102c757600080fd5b506102ad6102d6366004611c86565b6107ef565b3480156102e757600080fd5b5061026b6109d0565b3480156102fc57600080fd5b5061026b61030b366004611b99565b610add565b34801561031c57600080fd5b5061023361032b366004611b3a565b610afd565b61026b61033e366004611cf9565b610b08565b34801561034f57600080fd5b506102ad60095481565b34801561036557600080fd5b506102ad610374366004611d25565b610cd5565b34801561038557600080fd5b5061026b610d1d565b34801561039a57600080fd5b506102ad60085481565b3480156103b057600080fd5b506103c46103bf366004611b3a565b610d2f565b6040516101e896959493929190611d40565b3480156103e257600080fd5b506103f66103f1366004611d25565b610e82565b6040516101e89190611d94565b34801561040f57600080fd5b506006546001600160a01b0316610233565b34801561042d57600080fd5b50610206610f1a565b34801561044257600080fd5b5061026b610451366004611dd7565b610f29565b34801561046257600080fd5b5061026b610471366004611d25565b610f34565b34801561048257600080fd5b5061026b610491366004611e13565b610ff4565b3480156104a257600080fd5b506102066104b1366004611b3a565b61100c565b3480156104c257600080fd5b506104cb6110b9565b6040516101e89190611e8f565b3480156104e457600080fd5b506101dc6104f3366004611f4d565b611302565b34801561050457600080fd5b50600a54610233906001600160a01b031681565b34801561052457600080fd5b5061026b610533366004611d25565b611330565b34801561054457600080fd5b5061026b610553366004611b3a565b61136e565b60006001600160e01b031982166380ac58cd60e01b148061058957506001600160e01b03198216635b5e139f60e01b145b806105a457506301ffc9a760e01b6001600160e01b03198316145b92915050565b6060600080546105b990611f77565b80601f01602080910402602001604051908101604052809291908181526020018280546105e590611f77565b80156106325780601f1061060757610100808354040283529160200191610632565b820191906000526020600020905b81548152906001019060200180831161061557829003601f168201915b5050505050905090565b60006106478261140e565b506000828152600460205260409020546001600160a01b03166105a4565b610670828233611447565b5050565b6001600160a01b0382166106a357604051633250574960e11b8152600060048201526024015b60405180910390fd5b60006106b0838333611454565b9050836001600160a01b0316816001600160a01b0316146106fe576040516364283d7b60e01b81526001600160a01b038086166004830152602482018490528216604482015260640161069a565b50505050565b600061070f83610cd5565b821061075d5760405162461bcd60e51b815260206004820152601960248201527f4f776e657220696e646578206f7574206f6620626f756e647300000000000000604482015260640161069a565b6008546000805b828110156107b4576000818152600260205260409020546001600160a01b038781169116036107ac5784820361079e5792506105a4915050565b816107a881611fab565b9250505b600101610764565b5060405162461bcd60e51b815260206004820152600f60248201526e151bdad95b881b9bdd08199bdd5b99608a1b604482015260640161069a565b60008084511161082e5760405162461bcd60e51b815260206004820152600a602482015269456d707479206e616d6560b01b604482015260640161069a565b60008351116108715760405162461bcd60e51b815260206004820152600f60248201526e115b5c1d1e481a5b5859d948155493608a1b604482015260640161069a565b600082116108c15760405162461bcd60e51b815260206004820152601c60248201527f5072696365206d7573742062652067726561746572207468616e203000000000604482015260640161069a565b60088054600091826108d283611fab565b909155506040805160c0810182523381524260208083019182528284018a8152606084018a905260808401899052600060a08501819052868152600b909252939020825181546001600160a01b0319166001600160a01b0390911617815590516001820155915192935091600282019061094c9082612019565b50606082015160038201906109619082612019565b506080820151600482015560a0909101516005909101805460ff1916911515919091179055604051339082907f8dd9d635de35e03b428af23dc670bfc5f1b6e68b26adab4611bb8ef4c26c3b7d906109c09089908990899042906120d8565b60405180910390a3949350505050565b6109d86114d7565b6109e0611504565b4780610a275760405162461bcd60e51b81526020600482015260166024820152754e6f2062616c616e636520746f20776974686472617760501b604482015260640161069a565b6000610a3b6006546001600160a01b031690565b6001600160a01b03168260405160006040518083038185875af1925050503d8060008114610a85576040519150601f19603f3d011682016040523d82523d6000602084013e610a8a565b606091505b5050905080610acf5760405162461bcd60e51b815260206004820152601160248201527015da5d1a191c985dd85b0819985a5b1959607a1b604482015260640161069a565b5050610adb6001600755565b565b610af883838360405180602001604052806000815250610ff4565b505050565b60006105a48261140e565b610b10611504565b6001600160a01b038116610b665760405162461bcd60e51b815260206004820152601960248201527f496e76616c696420726563697069656e74206164647265737300000000000000604482015260640161069a565b6008548210610bac5760405162461bcd60e51b815260206004820152601260248201527113919508191bd95cc81b9bdd08195e1a5cdd60721b604482015260640161069a565b6000828152600b602052604090206005015460ff1615610c035760405162461bcd60e51b815260206004820152601260248201527113919508185b1c9958591e481b5a5b9d195960721b604482015260640161069a565b600954341015610c555760405162461bcd60e51b815260206004820152601960248201527f496e73756666696369656e74206d696e74207061796d656e7400000000000000604482015260640161069a565b6000828152600b6020526040902060058101805460ff19166001179055610c7c828461152e565b816001600160a01b0316336001600160a01b0316847ff5086c3634d7283b9db5926687f3378e368c3e147c4a8878a308ae2eb9b4135842604051610cc291815260200190565b60405180910390a4506106706001600755565b60006001600160a01b038216610d01576040516322718ad960e21b81526000600482015260240161069a565b506001600160a01b031660009081526003602052604090205490565b610d256114d7565b610adb6000611548565b600b602052600090815260409020805460018201546002830180546001600160a01b03909316939192610d6190611f77565b80601f0160208091040260200160405190810160405280929190818152602001828054610d8d90611f77565b8015610dda5780601f10610daf57610100808354040283529160200191610dda565b820191906000526020600020905b815481529060010190602001808311610dbd57829003601f168201915b505050505090806003018054610def90611f77565b80601f0160208091040260200160405190810160405280929190818152602001828054610e1b90611f77565b8015610e685780601f10610e3d57610100808354040283529160200191610e68565b820191906000526020600020905b815481529060010190602001808311610e4b57829003601f168201915b50505050600483015460059093015491929160ff16905086565b60606000610e8f83610cd5565b905060008167ffffffffffffffff811115610eac57610eac611bd6565b604051908082528060200260200182016040528015610ed5578160200160208202803683370190505b50905060005b82811015610f1257610eed8582610704565b828281518110610eff57610eff612111565b6020908102919091010152600101610edb565b509392505050565b6060600180546105b990611f77565b61067033838361159a565b610f3c6114d7565b6001600160a01b038116610f925760405162461bcd60e51b815260206004820152601b60248201527f496e76616c6964206d61726b6574706c61636520616464726573730000000000604482015260640161069a565b600a80546001600160a01b038381166001600160a01b031983168117909355604080519190921680825260208201939093527f920f4de0e7427ce5cf5551817fae8bbb29975314ec846a00f7a363831f0e501291015b60405180910390a15050565b610fff848484610674565b6106fe3385858585611639565b60606110178261140e565b506000828152600b60205260409020600301805461103490611f77565b80601f016020809104026020016040519081016040528092919081815260200182805461106090611f77565b80156110ad5780601f10611082576101008083540402835291602001916110ad565b820191906000526020600020905b81548152906001019060200180831161109057829003601f168201915b50505050509050919050565b6060600060085467ffffffffffffffff8111156110d8576110d8611bd6565b60405190808252806020026020018201604052801561114d57816020015b61113a6040518060c0016040528060006001600160a01b03168152602001600081526020016060815260200160608152602001600081526020016000151581525090565b8152602001906001900390816110f65790505b50905060005b6008548110156112fc576000818152600b6020908152604091829020825160c08101845281546001600160a01b0316815260018201549281019290925260028101805492939192918401916111a790611f77565b80601f01602080910402602001604051908101604052809291908181526020018280546111d390611f77565b80156112205780601f106111f557610100808354040283529160200191611220565b820191906000526020600020905b81548152906001019060200180831161120357829003601f168201915b5050505050815260200160038201805461123990611f77565b80601f016020809104026020016040519081016040528092919081815260200182805461126590611f77565b80156112b25780601f10611287576101008083540402835291602001916112b2565b820191906000526020600020905b81548152906001019060200180831161129557829003601f168201915b50505091835250506004820154602082015260059091015460ff16151560409091015282518390839081106112e9576112e9612111565b6020908102919091010152600101611153565b50919050565b6001600160a01b03918216600090815260056020908152604080832093909416825291909152205460ff1690565b6113386114d7565b6001600160a01b03811661136257604051631e4fbdf760e01b81526000600482015260240161069a565b61136b81611548565b50565b6113766114d7565b600081116113d05760405162461bcd60e51b815260206004820152602160248201527f4d696e74207072696365206d7573742062652067726561746572207468616e206044820152600360fc1b606482015260840161069a565b600980549082905560408051828152602081018490527f2e1c9e000c6e8dda4d03536adb13b7cb6034ccff90d17f01de381e4d5097b5259101610fe8565b6000818152600260205260408120546001600160a01b0316806105a457604051637e27328960e01b81526004810184905260240161069a565b610af88383836001611764565b600a546000906001600160a01b031633148061147857506001600160a01b03821633145b6114c45760405162461bcd60e51b815260206004820152601a60248201527f4e6f7420617574686f72697a656420746f207472616e73666572000000000000604482015260640161069a565b6114cf84848461186a565b949350505050565b6006546001600160a01b03163314610adb5760405163118cdaa760e01b815233600482015260240161069a565b60026007540361152757604051633ee5aeb560e01b815260040160405180910390fd5b6002600755565b610670828260405180602001604052806000815250611963565b600680546001600160a01b038381166001600160a01b0319831681179093556040519116919082907f8be0079c531659141344cd1fd0a4f28419497f9722a3daafe3b4186f6b6457e090600090a35050565b6001600160a01b0382166115cc57604051630b61174360e31b81526001600160a01b038316600482015260240161069a565b6001600160a01b03838116600081815260056020908152604080832094871680845294825291829020805460ff191686151590811790915591519182527f17307eab39ab6107e8899845ad3d59bd9653f200f220920489ca2b5937696c31910160405180910390a3505050565b6001600160a01b0383163b1561175d57604051630a85bd0160e11b81526001600160a01b0384169063150b7a029061167b908890889087908790600401612127565b6020604051808303816000875af19250505080156116b6575060408051601f3d908101601f191682019092526116b391810190612164565b60015b61171f573d8080156116e4576040519150601f19603f3d011682016040523d82523d6000602084013e6116e9565b606091505b50805160000361171757604051633250574960e11b81526001600160a01b038516600482015260240161069a565b805181602001fd5b6001600160e01b03198116630a85bd0160e11b1461175b57604051633250574960e11b81526001600160a01b038516600482015260240161069a565b505b5050505050565b808061177857506001600160a01b03821615155b1561183a5760006117888461140e565b90506001600160a01b038316158015906117b45750826001600160a01b0316816001600160a01b031614155b80156117c757506117c58184611302565b155b156117f05760405163a9fbf51f60e01b81526001600160a01b038416600482015260240161069a565b81156118385783856001600160a01b0316826001600160a01b03167f8c5be1e5ebec7d5bd14f71427d1e84f3dd0314c0f7b2291e5b200ac8c7c3b92560405160405180910390a45b505b5050600090815260046020526040902080546001600160a01b0319166001600160a01b0392909216919091179055565b6000828152600260205260408120546001600160a01b03908116908316156118975761189781848661197b565b6001600160a01b038116156118d5576118b4600085600080611764565b6001600160a01b038116600090815260036020526040902080546000190190555b6001600160a01b03851615611904576001600160a01b0385166000908152600360205260409020805460010190555b60008481526002602052604080822080546001600160a01b0319166001600160a01b0389811691821790925591518793918516917fddf252ad1be2c89b69c2b068fc378daa952ba7f163c4a11628f55a4df523b3ef91a4949350505050565b61196d83836119df565b610af8336000858585611639565b611986838383611a44565b610af8576001600160a01b0383166119b457604051637e27328960e01b81526004810182905260240161069a565b60405163177e802f60e01b81526001600160a01b03831660048201526024810182905260440161069a565b6001600160a01b038216611a0957604051633250574960e11b81526000600482015260240161069a565b6000611a1783836000611454565b90506001600160a01b03811615610af8576040516339e3563760e11b81526000600482015260240161069a565b60006001600160a01b038316158015906114cf5750826001600160a01b0316846001600160a01b03161480611a7e5750611a7e8484611302565b806114cf5750506000908152600460205260409020546001600160a01b03908116911614919050565b6001600160e01b03198116811461136b57600080fd5b600060208284031215611acf57600080fd5b8135611ada81611aa7565b9392505050565b6000815180845260005b81811015611b0757602081850181015186830182015201611aeb565b506000602082860101526020601f19601f83011685010191505092915050565b602081526000611ada6020830184611ae1565b600060208284031215611b4c57600080fd5b5035919050565b80356001600160a01b0381168114611b6a57600080fd5b919050565b60008060408385031215611b8257600080fd5b611b8b83611b53565b946020939093013593505050565b600080600060608486031215611bae57600080fd5b611bb784611b53565b9250611bc560208501611b53565b929592945050506040919091013590565b634e487b7160e01b600052604160045260246000fd5b60008067ffffffffffffffff841115611c0757611c07611bd6565b50604051601f19601f85018116603f0116810181811067ffffffffffffffff82111715611c3657611c36611bd6565b604052838152905080828401851015611c4e57600080fd5b83836020830137600060208583010152509392505050565b600082601f830112611c7757600080fd5b611ada83833560208501611bec565b600080600060608486031215611c9b57600080fd5b833567ffffffffffffffff811115611cb257600080fd5b611cbe86828701611c66565b935050602084013567ffffffffffffffff811115611cdb57600080fd5b611ce786828701611c66565b93969395505050506040919091013590565b60008060408385031215611d0c57600080fd5b82359150611d1c60208401611b53565b90509250929050565b600060208284031215611d3757600080fd5b611ada82611b53565b60018060a01b038716815285602082015260c060408201526000611d6760c0830187611ae1565b8281036060840152611d798187611ae1565b6080840195909552505090151560a090910152949350505050565b602080825282518282018190526000918401906040840190835b81811015611dcc578351835260209384019390920191600101611dae565b509095945050505050565b60008060408385031215611dea57600080fd5b611df383611b53565b915060208301358015158114611e0857600080fd5b809150509250929050565b60008060008060808587031215611e2957600080fd5b611e3285611b53565b9350611e4060208601611b53565b925060408501359150606085013567ffffffffffffffff811115611e6357600080fd5b8501601f81018713611e7457600080fd5b611e8387823560208401611bec565b91505092959194509250565b6000602082016020835280845180835260408501915060408160051b86010192506020860160005b82811015611f4157603f19878603018452815160018060a01b03815116865260208101516020870152604081015160c06040880152611ef960c0880182611ae1565b905060608201518782036060890152611f128282611ae1565b608084810151908a015260a0938401511515939098019290925250506020938401939190910190600101611eb7565b50929695505050505050565b60008060408385031215611f6057600080fd5b611f6983611b53565b9150611d1c60208401611b53565b600181811c90821680611f8b57607f821691505b6020821081036112fc57634e487b7160e01b600052602260045260246000fd5b600060018201611fcb57634e487b7160e01b600052601160045260246000fd5b5060010190565b601f821115610af857806000526020600020601f840160051c81016020851015611ff95750805b601f840160051c820191505b8181101561175d5760008155600101612005565b815167ffffffffffffffff81111561203357612033611bd6565b612047816120418454611f77565b84611fd2565b6020601f82116001811461207b57600083156120635750848201515b600019600385901b1c1916600184901b17845561175d565b600084815260208120601f198516915b828110156120ab578785015182556020948501946001909201910161208b565b50848210156120c95786840151600019600387901b60f8161c191681555b50505050600190811b01905550565b6080815260006120eb6080830187611ae1565b82810360208401526120fd8187611ae1565b604084019590955250506060015292915050565b634e487b7160e01b600052603260045260246000fd5b6001600160a01b038581168252841660208201526040810183905260806060820181905260009061215a90830184611ae1565b9695505050505050565b60006020828403121561217657600080fd5b8151611ada81611aa756fea26469706673582212207a2052946e03c2248adbec6dae092fdd0a4129001f74646f155a8c381c0faee164736f6c634300081c003368747470733a2f2f7265732e636c6f7564696e6172792e636f6d2f6467717a7a796633372f696d6167652f75706c6f61642f76313733373236393735372f61343830366334616266386366386439653866326238666634336562626363325f62716a6c6a332e6176696668747470733a2f2f7265732e636c6f7564696e6172792e636f6d2f6467717a7a796633372f696d6167652f75706c6f61642f76313733373236393737302f35376132643033643637303866643663633266623465663939663864346134645f66747134656c2e6176696668747470733a2f2f7265732e636c6f7564696e6172792e636f6d2f6467717a7a796633372f696d6167652f75706c6f61642f76313733373236393738302f65656630333334393339383935643361653363303335336631313739623561335f6c6e767875722e6176696668747470733a2f2f7265732e636c6f7564696e6172792e636f6d2f6467717a7a796633372f696d6167652f75706c6f61642f76313733373236393734352f36336631383866653066663537633037353566303966306439633231656236315f6d706d646a672e6176696668747470733a2f2f7265732e636c6f7564696e6172792e636f6d2f6467717a7a796633372f696d6167652f75706c6f61642f76313733373236393731352f66633835326532363033653465376534326530346136656435613634303663635f7767627578702e6176696668747470733a2f2f7265732e636c6f7564696e6172792e636f6d2f6467717a7a796633372f696d6167652f75706c6f61642f76313733373236393739312f38616131346134653666633034316131636631636232383462373161633264355f64766e3568752e61766966",
  "linkReferences": {},
  "deployedLinkReferences": {}
}