{"contracts/NFT.sol":{"NFTMarketplaceToken":{"abi":[{"inputs":[{"internalType":"uint256","name":"_mintPrice","type":"uint256"},{"internalType":"address","name":"_marketPlaceAddress","type":"address"}],"stateMutability":"nonpayable","type":"constructor"},{"inputs":[{"internalType":"address","name":"sender","type":"address"},{"internalType":"uint256","name":"tokenId","type":"uint256"},{"internalType":"address","name":"owner","type":"address"}],"name":"ERC721IncorrectOwner","type":"error"},{"inputs":[{"internalType":"address","name":"operator","type":"address"},{"internalType":"uint256","name":"tokenId","type":"uint256"}],"name":"ERC721InsufficientApproval","type":"error"},{"inputs":[{"internalType":"address","name":"approver","type":"address"}],"name":"ERC721InvalidApprover","type":"error"},{"inputs":[{"internalType":"address","name":"operator","type":"address"}],"name":"ERC721InvalidOperator","type":"error"},{"inputs":[{"internalType":"address","name":"owner","type":"address"}],"name":"ERC721InvalidOwner","type":"error"},{"inputs":[{"internalType":"address","name":"receiver","type":"address"}],"name":"ERC721InvalidReceiver","type":"error"},{"inputs":[{"internalType":"address","name":"sender","type":"address"}],"name":"ERC721InvalidSender","type":"error"},{"inputs":[{"internalType":"uint256","name":"tokenId","type":"uint256"}],"name":"ERC721NonexistentToken","type":"error"},{"inputs":[{"internalType":"address","name":"owner","type":"address"}],"name":"OwnableInvalidOwner","type":"error"},{"inputs":[{"internalType":"address","name":"account","type":"address"}],"name":"OwnableUnauthorizedAccount","type":"error"},{"inputs":[],"name":"ReentrancyGuardReentrantCall","type":"error"},{"anonymous":false,"inputs":[{"indexed":true,"internalType":"address","name":"owner","type":"address"},{"indexed":true,"internalType":"address","name":"approved","type":"address"},{"indexed":true,"internalType":"uint256","name":"tokenId","type":"uint256"}],"name":"Approval","type":"event"},{"anonymous":false,"inputs":[{"indexed":true,"internalType":"address","name":"owner","type":"address"},{"indexed":true,"internalType":"address","name":"operator","type":"address"},{"indexed":false,"internalType":"bool","name":"approved","type":"bool"}],"name":"ApprovalForAll","type":"event"},{"anonymous":false,"inputs":[{"indexed":false,"internalType":"address","name":"oldAddress","type":"address"},{"indexed":false,"internalType":"address","name":"newAddress","type":"address"}],"name":"MarketplaceAddressUpdated","type":"event"},{"anonymous":false,"inputs":[{"indexed":false,"internalType":"uint256","name":"oldPrice","type":"uint256"},{"indexed":false,"internalType":"uint256","name":"newPrice","type":"uint256"}],"name":"MintPriceUpdated","type":"event"},{"anonymous":false,"inputs":[{"indexed":true,"internalType":"uint256","name":"tokenId","type":"uint256"},{"indexed":true,"internalType":"address","name":"creator","type":"address"},{"indexed":false,"internalType":"string","name":"metadataURI","type":"string"},{"indexed":false,"internalType":"string","name":"imageURL","type":"string"},{"indexed":false,"internalType":"uint256","name":"price","type":"uint256"},{"indexed":false,"internalType":"uint256","name":"createdAt","type":"uint256"}],"name":"NFTCreated","type":"event"},{"anonymous":false,"inputs":[{"indexed":true,"internalType":"uint256","name":"tokenId","type":"uint256"},{"indexed":true,"internalType":"address","name":"minter","type":"address"},{"indexed":true,"internalType":"address","name":"owner","type":"address"},{"indexed":false,"internalType":"uint256","name":"mintedAt","type":"uint256"}],"name":"NFTMinted","type":"event"},{"anonymous":false,"inputs":[{"indexed":true,"internalType":"address","name":"previousOwner","type":"address"},{"indexed":true,"internalType":"address","name":"newOwner","type":"address"}],"name":"OwnershipTransferred","type":"event"},{"anonymous":false,"inputs":[{"indexed":true,"internalType":"address","name":"from","type":"address"},{"indexed":true,"internalType":"address","name":"to","type":"address"},{"indexed":true,"internalType":"uint256","name":"tokenId","type":"uint256"}],"name":"Transfer","type":"event"},{"inputs":[{"internalType":"address","name":"to","type":"address"},{"internalType":"uint256","name":"tokenId","type":"uint256"}],"name":"approve","outputs":[],"stateMutability":"nonpayable","type":"function"},{"inputs":[{"internalType":"address","name":"owner","type":"address"}],"name":"balanceOf","outputs":[{"internalType":"uint256","name":"","type":"uint256"}],"stateMutability":"view","type":"function"},{"inputs":[{"internalType":"string","name":"name","type":"string"},{"internalType":"string","name":"imageURL","type":"string"},{"internalType":"uint256","name":"price","type":"uint256"}],"name":"createNFT","outputs":[{"internalType":"uint256","name":"","type":"uint256"}],"stateMutability":"nonpayable","type":"function"},{"inputs":[],"name":"getAllNFTs","outputs":[{"components":[{"internalType":"address","name":"creator","type":"address"},{"internalType":"uint256","name":"createdAt","type":"uint256"},{"internalType":"string","name":"name","type":"string"},{"internalType":"string","name":"imageURL","type":"string"},{"internalType":"uint256","name":"price","type":"uint256"},{"internalType":"bool","name":"isMinted","type":"bool"}],"internalType":"struct NFTMarketplaceToken.NFTInfo[]","name":"","type":"tuple[]"}],"stateMutability":"view","type":"function"},{"inputs":[{"internalType":"uint256","name":"tokenId","type":"uint256"}],"name":"getApproved","outputs":[{"internalType":"address","name":"","type":"address"}],"stateMutability":"view","type":"function"},{"inputs":[{"internalType":"address","name":"owner","type":"address"},{"internalType":"address","name":"operator","type":"address"}],"name":"isApprovedForAll","outputs":[{"internalType":"bool","name":"","type":"bool"}],"stateMutability":"view","type":"function"},{"inputs":[],"name":"marketPlaceAddress","outputs":[{"internalType":"address","name":"","type":"address"}],"stateMutability":"view","type":"function"},{"inputs":[{"internalType":"uint256","name":"tokenId","type":"uint256"},{"internalType":"address","name":"to","type":"address"}],"name":"mintNFT","outputs":[],"stateMutability":"payable","type":"function"},{"inputs":[],"name":"mintPrice","outputs":[{"internalType":"uint256","name":"","type":"uint256"}],"stateMutability":"view","type":"function"},{"inputs":[],"name":"name","outputs":[{"internalType":"string","name":"","type":"string"}],"stateMutability":"view","type":"function"},{"inputs":[],"name":"nextTokenId","outputs":[{"internalType":"uint256","name":"","type":"uint256"}],"stateMutability":"view","type":"function"},{"inputs":[{"internalType":"uint256","name":"","type":"uint256"}],"name":"nftDetails","outputs":[{"internalType":"address","name":"creator","type":"address"},{"internalType":"uint256","name":"createdAt","type":"uint256"},{"internalType":"string","name":"name","type":"string"},{"internalType":"string","name":"imageURL","type":"string"},{"internalType":"uint256","name":"price","type":"uint256"},{"internalType":"bool","name":"isMinted","type":"bool"}],"stateMutability":"view","type":"function"},{"inputs":[],"name":"owner","outputs":[{"internalType":"address","name":"","type":"address"}],"stateMutability":"view","type":"function"},{"inputs":[{"internalType":"uint256","name":"tokenId","type":"uint256"}],"name":"ownerOf","outputs":[{"internalType":"address","name":"","type":"address"}],"stateMutability":"view","type":"function"},{"inputs":[],"name":"renounceOwnership","outputs":[],"stateMutability":"nonpayable","type":"function"},{"inputs":[{"internalType":"address","name":"from","type":"address"},{"internalType":"address","name":"to","type":"address"},{"internalType":"uint256","name":"tokenId","type":"uint256"}],"name":"safeTransferFrom","outputs":[],"stateMutability":"nonpayable","type":"function"},{"inputs":[{"internalType":"address","name":"from","type":"address"},{"internalType":"address","name":"to","type":"address"},{"internalType":"uint256","name":"tokenId","type":"uint256"},{"internalType":"bytes","name":"data","type":"bytes"}],"name":"safeTransferFrom","outputs":[],"stateMutability":"nonpayable","type":"function"},{"inputs":[{"internalType":"address","name":"operator","type":"address"},{"internalType":"bool","name":"approved","type":"bool"}],"name":"setApprovalForAll","outputs":[],"stateMutability":"nonpayable","type":"function"},{"inputs":[{"internalType":"address","name":"_marketPlaceAddress","type":"address"}],"name":"setMarketplaceAddress","outputs":[],"stateMutability":"nonpayable","type":"function"},{"inputs":[{"internalType":"uint256","name":"_mintPrice","type":"uint256"}],"name":"setMintPrice","outputs":[],"stateMutability":"nonpayable","type":"function"},{"inputs":[{"internalType":"bytes4","name":"interfaceId","type":"bytes4"}],"name":"supportsInterface","outputs":[{"internalType":"bool","name":"","type":"bool"}],"stateMutability":"view","type":"function"},{"inputs":[],"name":"symbol","outputs":[{"internalType":"string","name":"","type":"string"}],"stateMutability":"view","type":"function"},{"inputs":[{"internalType":"uint256","name":"tokenId","type":"uint256"}],"name":"tokenURI","outputs":[{"internalType":"string","name":"","type":"string"}],"stateMutability":"view","type":"function"},{"inputs":[{"internalType":"address","name":"from","type":"address"},{"internalType":"address","name":"to","type":"address"},{"internalType":"uint256","name":"tokenId","type":"uint256"}],"name":"transferFrom","outputs":[],"stateMutability":"nonpayable","type":"function"},{"inputs":[{"internalType":"address","name":"newOwner","type":"address"}],"name":"transferOwnership","outputs":[],"stateMutability":"nonpayable","type":"function"},{"inputs":[],"name":"withdraw","outputs":[],"stateMutability":"nonpayable","type":"function"}],"evm":{"bytecode":{"linkReferences":{},"object":"608060405234801561001057600080fd5b506040516129fc3803806129fc83398101604081905261002f916105c3565b336040518060400160405280601381526020017f4e46544d61726b6574706c616365546f6b656e000000000000000000000000008152506040518060400160405280600381526020016213935560ea1b8152508160009081610091919061069f565b50600161009e828261069f565b5050506001600160a01b0381166100d057604051631e4fbdf760e01b8152600060048201526024015b60405180910390fd5b6100d981610390565b506001600755816101365760405162461bcd60e51b815260206004820152602160248201527f4d696e74207072696365206d7573742062652067726561746572207468616e206044820152600360fc1b60648201526084016100c7565b6001600160a01b03811661018c5760405162461bcd60e51b815260206004820152601b60248201527f496e76616c6964206d61726b6574706c6163652061646472657373000000000060448201526064016100c7565b6009829055600a80546001600160a01b0319166001600160a01b0383161790556040805180820182526008815267487970657241706560c01b602080830191909152825160a08101909352606a8084526101f693916129929083013967016345785d8a00006103e2565b506102496040518060400160405280600f81526020016e437962657250756e6b2050616e646160881b8152506040518060a00160405280606a8152602001612854606a91396702c68af0bb1400006103e2565b5061029b6040518060400160405280600e81526020016d23b0b630b1ba34b1902a34b3b2b960911b8152506040518060a00160405280606a81526020016127ea606a9139670429d069189e00006103e2565b506102eb6040518060400160405280600c81526020016b09ccadedc40a0d0decadcd2f60a31b8152506040518060a00160405280606a8152602001612780606a913967058d15e1762800006103e2565b506103396040518060400160405280600a81526020016920b9ba3937902bb7b63360b11b8152506040518060a00160405280606a81526020016128be606a91396706f05b59d3b200006103e2565b506103886040518060400160405280600b81526020016a0a2eac2dce8eada408cdef60ab1b8152506040518060a00160405280606a8152602001612928606a9139670853a0d2313c00006103e2565b505050610803565b600680546001600160a01b038381166001600160a01b0319831681179093556040519116919082907f8be0079c531659141344cd1fd0a4f28419497f9722a3daafe3b4186f6b6457e090600090a35050565b6000808451116104215760405162461bcd60e51b815260206004820152600a602482015269456d707479206e616d6560b01b60448201526064016100c7565b60008351116104645760405162461bcd60e51b815260206004820152600f60248201526e115b5c1d1e481a5b5859d948155493608a1b60448201526064016100c7565b600082116104b45760405162461bcd60e51b815260206004820152601c60248201527f5072696365206d7573742062652067726561746572207468616e20300000000060448201526064016100c7565b60088054600091826104c58361075d565b909155506040805160c0810182523381524260208083019182528284018a8152606084018a905260808401899052600060a08501819052868152600b909252939020825181546001600160a01b0319166001600160a01b0390911617815590516001820155915192935091600282019061053f908261069f565b5060608201516003820190610554908261069f565b506080820151600482015560a0909101516005909101805460ff1916911515919091179055604051339082907f8dd9d635de35e03b428af23dc670bfc5f1b6e68b26adab4611bb8ef4c26c3b7d906105b39089908990899042906107ca565b60405180910390a3949350505050565b600080604083850312156105d657600080fd5b825160208401519092506001600160a01b03811681146105f557600080fd5b809150509250929050565b634e487b7160e01b600052604160045260246000fd5b600181811c9082168061062a57607f821691505b60208210810361064a57634e487b7160e01b600052602260045260246000fd5b50919050565b601f82111561069a57806000526020600020601f840160051c810160208510156106775750805b601f840160051c820191505b818110156106975760008155600101610683565b50505b505050565b81516001600160401b038111156106b8576106b8610600565b6106cc816106c68454610616565b84610650565b6020601f82116001811461070057600083156106e85750848201515b600019600385901b1c1916600184901b178455610697565b600084815260208120601f198516915b828110156107305787850151825560209485019460019092019101610710565b508482101561074e5786840151600019600387901b60f8161c191681555b50505050600190811b01905550565b60006001820161077d57634e487b7160e01b600052601160045260246000fd5b5060010190565b6000815180845260005b818110156107aa5760208185018101518683018201520161078e565b506000602082860101526020601f19601f83011685010191505092915050565b6080815260006107dd6080830187610784565b82810360208401526107ef8187610784565b604084019590955250506060015292915050565b611f6e806108126000396000f3fe6080604052600436106101815760003560e01c806375794a3c116100d1578063b88d4fde1161008a578063e985e9c511610064578063e985e9c514610455578063ed27107b14610475578063f2fde38b14610495578063f4a0a528146104b557600080fd5b8063b88d4fde146103f3578063c87b56dd14610413578063e0391b091461043357600080fd5b806375794a3c146103385780637d4cd8471461034e5780638da5cb5b1461038057806395d89b411461039e578063a22cb465146103b3578063b47cc556146103d357600080fd5b80633ccfd60b1161013e578063669f5a5111610118578063669f5a51146102da5780636817c76c146102ed57806370a0823114610303578063715018a61461032357600080fd5b80633ccfd60b1461028557806342842e0e1461029a5780636352211e146102ba57600080fd5b806301ffc9a71461018657806306fdde03146101bb578063081812fc146101dd578063095ea7b31461021557806323b872dd146102375780633241d34a14610257575b600080fd5b34801561019257600080fd5b506101a66101a13660046118b7565b6104d5565b60405190151581526020015b60405180910390f35b3480156101c757600080fd5b506101d0610527565b6040516101b29190611921565b3480156101e957600080fd5b506101fd6101f8366004611934565b6105b9565b6040516001600160a01b0390911681526020016101b2565b34801561022157600080fd5b50610235610230366004611969565b6105e2565b005b34801561024357600080fd5b50610235610252366004611993565b6105f1565b34801561026357600080fd5b50610277610272366004611a80565b610681565b6040519081526020016101b2565b34801561029157600080fd5b50610235610862565b3480156102a657600080fd5b506102356102b5366004611993565b61096f565b3480156102c657600080fd5b506101fd6102d5366004611934565b61098f565b6102356102e8366004611af3565b61099a565b3480156102f957600080fd5b5061027760095481565b34801561030f57600080fd5b5061027761031e366004611b1f565b610b67565b34801561032f57600080fd5b50610235610baf565b34801561034457600080fd5b5061027760085481565b34801561035a57600080fd5b5061036e610369366004611934565b610bc1565b6040516101b296959493929190611b3a565b34801561038c57600080fd5b506006546001600160a01b03166101fd565b3480156103aa57600080fd5b506101d0610d14565b3480156103bf57600080fd5b506102356103ce366004611b8e565b610d23565b3480156103df57600080fd5b506102356103ee366004611b1f565b610d2e565b3480156103ff57600080fd5b5061023561040e366004611bca565b610dee565b34801561041f57600080fd5b506101d061042e366004611934565b610e06565b34801561043f57600080fd5b50610448610eb3565b6040516101b29190611c46565b34801561046157600080fd5b506101a6610470366004611d04565b6110fc565b34801561048157600080fd5b50600a546101fd906001600160a01b031681565b3480156104a157600080fd5b506102356104b0366004611b1f565b61112a565b3480156104c157600080fd5b506102356104d0366004611934565b611168565b60006001600160e01b031982166380ac58cd60e01b148061050657506001600160e01b03198216635b5e139f60e01b145b8061052157506301ffc9a760e01b6001600160e01b03198316145b92915050565b60606000805461053690611d2e565b80601f016020809104026020016040519081016040528092919081815260200182805461056290611d2e565b80156105af5780601f10610584576101008083540402835291602001916105af565b820191906000526020600020905b81548152906001019060200180831161059257829003601f168201915b5050505050905090565b60006105c482611208565b506000828152600460205260409020546001600160a01b0316610521565b6105ed828233611241565b5050565b6001600160a01b03821661062057604051633250574960e11b8152600060048201526024015b60405180910390fd5b600061062d83833361124e565b9050836001600160a01b0316816001600160a01b03161461067b576040516364283d7b60e01b81526001600160a01b0380861660048301526024820184905282166044820152606401610617565b50505050565b6000808451116106c05760405162461bcd60e51b815260206004820152600a602482015269456d707479206e616d6560b01b6044820152606401610617565b60008351116107035760405162461bcd60e51b815260206004820152600f60248201526e115b5c1d1e481a5b5859d948155493608a1b6044820152606401610617565b600082116107535760405162461bcd60e51b815260206004820152601c60248201527f5072696365206d7573742062652067726561746572207468616e2030000000006044820152606401610617565b600880546000918261076483611d62565b909155506040805160c0810182523381524260208083019182528284018a8152606084018a905260808401899052600060a08501819052868152600b909252939020825181546001600160a01b0319166001600160a01b039091161781559051600182015591519293509160028201906107de9082611dd0565b50606082015160038201906107f39082611dd0565b506080820151600482015560a0909101516005909101805460ff1916911515919091179055604051339082907f8dd9d635de35e03b428af23dc670bfc5f1b6e68b26adab4611bb8ef4c26c3b7d90610852908990899089904290611e8f565b60405180910390a3949350505050565b61086a6112d1565b6108726112fe565b47806108b95760405162461bcd60e51b81526020600482015260166024820152754e6f2062616c616e636520746f20776974686472617760501b6044820152606401610617565b60006108cd6006546001600160a01b031690565b6001600160a01b03168260405160006040518083038185875af1925050503d8060008114610917576040519150601f19603f3d011682016040523d82523d6000602084013e61091c565b606091505b50509050806109615760405162461bcd60e51b815260206004820152601160248201527015da5d1a191c985dd85b0819985a5b1959607a1b6044820152606401610617565b505061096d6001600755565b565b61098a83838360405180602001604052806000815250610dee565b505050565b600061052182611208565b6109a26112fe565b6001600160a01b0381166109f85760405162461bcd60e51b815260206004820152601960248201527f496e76616c696420726563697069656e742061646472657373000000000000006044820152606401610617565b6008548210610a3e5760405162461bcd60e51b815260206004820152601260248201527113919508191bd95cc81b9bdd08195e1a5cdd60721b6044820152606401610617565b6000828152600b602052604090206005015460ff1615610a955760405162461bcd60e51b815260206004820152601260248201527113919508185b1c9958591e481b5a5b9d195960721b6044820152606401610617565b600954341015610ae75760405162461bcd60e51b815260206004820152601960248201527f496e73756666696369656e74206d696e74207061796d656e74000000000000006044820152606401610617565b6000828152600b6020526040902060058101805460ff19166001179055610b0e8284611328565b816001600160a01b0316336001600160a01b0316847ff5086c3634d7283b9db5926687f3378e368c3e147c4a8878a308ae2eb9b4135842604051610b5491815260200190565b60405180910390a4506105ed6001600755565b60006001600160a01b038216610b93576040516322718ad960e21b815260006004820152602401610617565b506001600160a01b031660009081526003602052604090205490565b610bb76112d1565b61096d6000611342565b600b602052600090815260409020805460018201546002830180546001600160a01b03909316939192610bf390611d2e565b80601f0160208091040260200160405190810160405280929190818152602001828054610c1f90611d2e565b8015610c6c5780601f10610c4157610100808354040283529160200191610c6c565b820191906000526020600020905b815481529060010190602001808311610c4f57829003601f168201915b505050505090806003018054610c8190611d2e565b80601f0160208091040260200160405190810160405280929190818152602001828054610cad90611d2e565b8015610cfa5780601f10610ccf57610100808354040283529160200191610cfa565b820191906000526020600020905b815481529060010190602001808311610cdd57829003601f168201915b50505050600483015460059093015491929160ff16905086565b60606001805461053690611d2e565b6105ed338383611394565b610d366112d1565b6001600160a01b038116610d8c5760405162461bcd60e51b815260206004820152601b60248201527f496e76616c6964206d61726b6574706c616365206164647265737300000000006044820152606401610617565b600a80546001600160a01b038381166001600160a01b031983168117909355604080519190921680825260208201939093527f920f4de0e7427ce5cf5551817fae8bbb29975314ec846a00f7a363831f0e501291015b60405180910390a15050565b610df98484846105f1565b61067b3385858585611433565b6060610e1182611208565b506000828152600b602052604090206003018054610e2e90611d2e565b80601f0160208091040260200160405190810160405280929190818152602001828054610e5a90611d2e565b8015610ea75780601f10610e7c57610100808354040283529160200191610ea7565b820191906000526020600020905b815481529060010190602001808311610e8a57829003601f168201915b50505050509050919050565b6060600060085467ffffffffffffffff811115610ed257610ed26119d0565b604051908082528060200260200182016040528015610f4757816020015b610f346040518060c0016040528060006001600160a01b03168152602001600081526020016060815260200160608152602001600081526020016000151581525090565b815260200190600190039081610ef05790505b50905060005b6008548110156110f6576000818152600b6020908152604091829020825160c08101845281546001600160a01b031681526001820154928101929092526002810180549293919291840191610fa190611d2e565b80601f0160208091040260200160405190810160405280929190818152602001828054610fcd90611d2e565b801561101a5780601f10610fef5761010080835404028352916020019161101a565b820191906000526020600020905b815481529060010190602001808311610ffd57829003601f168201915b5050505050815260200160038201805461103390611d2e565b80601f016020809104026020016040519081016040528092919081815260200182805461105f90611d2e565b80156110ac5780601f10611081576101008083540402835291602001916110ac565b820191906000526020600020905b81548152906001019060200180831161108f57829003601f168201915b50505091835250506004820154602082015260059091015460ff16151560409091015282518390839081106110e3576110e3611ec8565b6020908102919091010152600101610f4d565b50919050565b6001600160a01b03918216600090815260056020908152604080832093909416825291909152205460ff1690565b6111326112d1565b6001600160a01b03811661115c57604051631e4fbdf760e01b815260006004820152602401610617565b61116581611342565b50565b6111706112d1565b600081116111ca5760405162461bcd60e51b815260206004820152602160248201527f4d696e74207072696365206d7573742062652067726561746572207468616e206044820152600360fc1b6064820152608401610617565b600980549082905560408051828152602081018490527f2e1c9e000c6e8dda4d03536adb13b7cb6034ccff90d17f01de381e4d5097b5259101610de2565b6000818152600260205260408120546001600160a01b03168061052157604051637e27328960e01b815260048101849052602401610617565b61098a838383600161155e565b600a546000906001600160a01b031633148061127257506001600160a01b03821633145b6112be5760405162461bcd60e51b815260206004820152601a60248201527f4e6f7420617574686f72697a656420746f207472616e736665720000000000006044820152606401610617565b6112c9848484611664565b949350505050565b6006546001600160a01b0316331461096d5760405163118cdaa760e01b8152336004820152602401610617565b60026007540361132157604051633ee5aeb560e01b815260040160405180910390fd5b6002600755565b6105ed82826040518060200160405280600081525061175d565b600680546001600160a01b038381166001600160a01b0319831681179093556040519116919082907f8be0079c531659141344cd1fd0a4f28419497f9722a3daafe3b4186f6b6457e090600090a35050565b6001600160a01b0382166113c657604051630b61174360e31b81526001600160a01b0383166004820152602401610617565b6001600160a01b03838116600081815260056020908152604080832094871680845294825291829020805460ff191686151590811790915591519182527f17307eab39ab6107e8899845ad3d59bd9653f200f220920489ca2b5937696c31910160405180910390a3505050565b6001600160a01b0383163b1561155757604051630a85bd0160e11b81526001600160a01b0384169063150b7a0290611475908890889087908790600401611ede565b6020604051808303816000875af19250505080156114b0575060408051601f3d908101601f191682019092526114ad91810190611f1b565b60015b611519573d8080156114de576040519150601f19603f3d011682016040523d82523d6000602084013e6114e3565b606091505b50805160000361151157604051633250574960e11b81526001600160a01b0385166004820152602401610617565b805181602001fd5b6001600160e01b03198116630a85bd0160e11b1461155557604051633250574960e11b81526001600160a01b0385166004820152602401610617565b505b5050505050565b808061157257506001600160a01b03821615155b1561163457600061158284611208565b90506001600160a01b038316158015906115ae5750826001600160a01b0316816001600160a01b031614155b80156115c157506115bf81846110fc565b155b156115ea5760405163a9fbf51f60e01b81526001600160a01b0384166004820152602401610617565b81156116325783856001600160a01b0316826001600160a01b03167f8c5be1e5ebec7d5bd14f71427d1e84f3dd0314c0f7b2291e5b200ac8c7c3b92560405160405180910390a45b505b5050600090815260046020526040902080546001600160a01b0319166001600160a01b0392909216919091179055565b6000828152600260205260408120546001600160a01b039081169083161561169157611691818486611775565b6001600160a01b038116156116cf576116ae60008560008061155e565b6001600160a01b038116600090815260036020526040902080546000190190555b6001600160a01b038516156116fe576001600160a01b0385166000908152600360205260409020805460010190555b60008481526002602052604080822080546001600160a01b0319166001600160a01b0389811691821790925591518793918516917fddf252ad1be2c89b69c2b068fc378daa952ba7f163c4a11628f55a4df523b3ef91a4949350505050565b61176783836117d9565b61098a336000858585611433565b61178083838361183e565b61098a576001600160a01b0383166117ae57604051637e27328960e01b815260048101829052602401610617565b60405163177e802f60e01b81526001600160a01b038316600482015260248101829052604401610617565b6001600160a01b03821661180357604051633250574960e11b815260006004820152602401610617565b60006118118383600061124e565b90506001600160a01b0381161561098a576040516339e3563760e11b815260006004820152602401610617565b60006001600160a01b038316158015906112c95750826001600160a01b0316846001600160a01b03161480611878575061187884846110fc565b806112c95750506000908152600460205260409020546001600160a01b03908116911614919050565b6001600160e01b03198116811461116557600080fd5b6000602082840312156118c957600080fd5b81356118d4816118a1565b9392505050565b6000815180845260005b81811015611901576020818501810151868301820152016118e5565b506000602082860101526020601f19601f83011685010191505092915050565b6020815260006118d460208301846118db565b60006020828403121561194657600080fd5b5035919050565b80356001600160a01b038116811461196457600080fd5b919050565b6000806040838503121561197c57600080fd5b6119858361194d565b946020939093013593505050565b6000806000606084860312156119a857600080fd5b6119b18461194d565b92506119bf6020850161194d565b929592945050506040919091013590565b634e487b7160e01b600052604160045260246000fd5b60008067ffffffffffffffff841115611a0157611a016119d0565b50604051601f19601f85018116603f0116810181811067ffffffffffffffff82111715611a3057611a306119d0565b604052838152905080828401851015611a4857600080fd5b83836020830137600060208583010152509392505050565b600082601f830112611a7157600080fd5b6118d4838335602085016119e6565b600080600060608486031215611a9557600080fd5b833567ffffffffffffffff811115611aac57600080fd5b611ab886828701611a60565b935050602084013567ffffffffffffffff811115611ad557600080fd5b611ae186828701611a60565b93969395505050506040919091013590565b60008060408385031215611b0657600080fd5b82359150611b166020840161194d565b90509250929050565b600060208284031215611b3157600080fd5b6118d48261194d565b60018060a01b038716815285602082015260c060408201526000611b6160c08301876118db565b8281036060840152611b7381876118db565b6080840195909552505090151560a090910152949350505050565b60008060408385031215611ba157600080fd5b611baa8361194d565b915060208301358015158114611bbf57600080fd5b809150509250929050565b60008060008060808587031215611be057600080fd5b611be98561194d565b9350611bf76020860161194d565b925060408501359150606085013567ffffffffffffffff811115611c1a57600080fd5b8501601f81018713611c2b57600080fd5b611c3a878235602084016119e6565b91505092959194509250565b6000602082016020835280845180835260408501915060408160051b86010192506020860160005b82811015611cf857603f19878603018452815160018060a01b03815116865260208101516020870152604081015160c06040880152611cb060c08801826118db565b905060608201518782036060890152611cc982826118db565b608084810151908a015260a0938401511515939098019290925250506020938401939190910190600101611c6e565b50929695505050505050565b60008060408385031215611d1757600080fd5b611d208361194d565b9150611b166020840161194d565b600181811c90821680611d4257607f821691505b6020821081036110f657634e487b7160e01b600052602260045260246000fd5b600060018201611d8257634e487b7160e01b600052601160045260246000fd5b5060010190565b601f82111561098a57806000526020600020601f840160051c81016020851015611db05750805b601f840160051c820191505b818110156115575760008155600101611dbc565b815167ffffffffffffffff811115611dea57611dea6119d0565b611dfe81611df88454611d2e565b84611d89565b6020601f821160018114611e325760008315611e1a5750848201515b600019600385901b1c1916600184901b178455611557565b600084815260208120601f198516915b82811015611e625787850151825560209485019460019092019101611e42565b5084821015611e805786840151600019600387901b60f8161c191681555b50505050600190811b01905550565b608081526000611ea260808301876118db565b8281036020840152611eb481876118db565b604084019590955250506060015292915050565b634e487b7160e01b600052603260045260246000fd5b6001600160a01b0385811682528416602082015260408101839052608060608201819052600090611f11908301846118db565b9695505050505050565b600060208284031215611f2d57600080fd5b81516118d4816118a156fea264697066735822122070e4785c5fcd8adde9b3d5dd44aa4da87529b3ffce3c010dda625389fc1e753f64736f6c634300081c003368747470733a2f2f7265732e636c6f7564696e6172792e636f6d2f6467717a7a796633372f696d6167652f75706c6f61642f76313733373236393735372f61343830366334616266386366386439653866326238666634336562626363325f62716a6c6a332e6176696668747470733a2f2f7265732e636c6f7564696e6172792e636f6d2f6467717a7a796633372f696d6167652f75706c6f61642f76313733373236393737302f35376132643033643637303866643663633266623465663939663864346134645f66747134656c2e6176696668747470733a2f2f7265732e636c6f7564696e6172792e636f6d2f6467717a7a796633372f696d6167652f75706c6f61642f76313733373236393738302f65656630333334393339383935643361653363303335336631313739623561335f6c6e767875722e6176696668747470733a2f2f7265732e636c6f7564696e6172792e636f6d2f6467717a7a796633372f696d6167652f75706c6f61642f76313733373236393734352f36336631383866653066663537633037353566303966306439633231656236315f6d706d646a672e6176696668747470733a2f2f7265732e636c6f7564696e6172792e636f6d2f6467717a7a796633372f696d6167652f75706c6f61642f76313733373236393731352f66633835326532363033653465376534326530346136656435613634303663635f7767627578702e6176696668747470733a2f2f7265732e636c6f7564696e6172792e636f6d2f6467717a7a796633372f696d6167652f75706c6f61642f76313733373236393739312f38616131346134653666633034316131636631636232383462373161633264355f64766e3568752e61766966","opcodes":"PUSH1 0x80 PUSH1 0x40 MSTORE CALLVALUE DUP1 ISZERO PUSH2 0x10 JUMPI PUSH1 0x0 DUP1 REVERT JUMPDEST POP PUSH1 0x40 MLOAD PUSH2 0x29FC CODESIZE SUB DUP1 PUSH2 0x29FC DUP4 CODECOPY DUP2 ADD PUSH1 0x40 DUP2 SWAP1 MSTORE PUSH2 0x2F SWAP2 PUSH2 0x5C3 JUMP JUMPDEST CALLER PUSH1 0x40 MLOAD DUP1 PUSH1 0x40 ADD PUSH1 0x40 MSTORE DUP1 PUSH1 0x13 DUP2 MSTORE PUSH1 0x20 ADD PUSH32 0x4E46544D61726B6574706C616365546F6B656E00000000000000000000000000 DUP2 MSTORE POP PUSH1 0x40 MLOAD DUP1 PUSH1 0x40 ADD PUSH1 0x40 MSTORE DUP1 PUSH1 0x3 DUP2 MSTORE PUSH1 0x20 ADD PUSH3 0x139355 PUSH1 0xEA SHL DUP2 MSTORE POP DUP2 PUSH1 0x0 SWAP1 DUP2 PUSH2 0x91 SWAP2 SWAP1 PUSH2 0x69F JUMP JUMPDEST POP PUSH1 0x1 PUSH2 0x9E DUP3 DUP3 PUSH2 0x69F JUMP JUMPDEST POP POP POP PUSH1 0x1 PUSH1 0x1 PUSH1 0xA0 SHL SUB DUP2 AND PUSH2 0xD0 JUMPI PUSH1 0x40 MLOAD PUSH4 0x1E4FBDF7 PUSH1 0xE0 SHL DUP2 MSTORE PUSH1 0x0 PUSH1 0x4 DUP3 ADD MSTORE PUSH1 0x24 ADD JUMPDEST PUSH1 0x40 MLOAD DUP1 SWAP2 SUB SWAP1 REVERT JUMPDEST PUSH2 0xD9 DUP2 PUSH2 0x390 JUMP JUMPDEST POP PUSH1 0x1 PUSH1 0x7 SSTORE DUP2 PUSH2 0x136 JUMPI PUSH1 0x40 MLOAD PUSH3 0x461BCD PUSH1 0xE5 SHL DUP2 MSTORE PUSH1 0x20 PUSH1 0x4 DUP3 ADD MSTORE PUSH1 0x21 PUSH1 0x24 DUP3 ADD MSTORE PUSH32 0x4D696E74207072696365206D7573742062652067726561746572207468616E20 PUSH1 0x44 DUP3 ADD MSTORE PUSH1 0x3 PUSH1 0xFC SHL PUSH1 0x64 DUP3 ADD MSTORE PUSH1 0x84 ADD PUSH2 0xC7 JUMP JUMPDEST PUSH1 0x1 PUSH1 0x1 PUSH1 0xA0 SHL SUB DUP2 AND PUSH2 0x18C JUMPI PUSH1 0x40 MLOAD PUSH3 0x461BCD PUSH1 0xE5 SHL DUP2 MSTORE PUSH1 0x20 PUSH1 0x4 DUP3 ADD MSTORE PUSH1 0x1B PUSH1 0x24 DUP3 ADD MSTORE PUSH32 0x496E76616C6964206D61726B6574706C61636520616464726573730000000000 PUSH1 0x44 DUP3 ADD MSTORE PUSH1 0x64 ADD PUSH2 0xC7 JUMP JUMPDEST PUSH1 0x9 DUP3 SWAP1 SSTORE PUSH1 0xA DUP1 SLOAD PUSH1 0x1 PUSH1 0x1 PUSH1 0xA0 SHL SUB NOT AND PUSH1 0x1 PUSH1 0x1 PUSH1 0xA0 SHL SUB DUP4 AND OR SWAP1 SSTORE PUSH1 0x40 DUP1 MLOAD DUP1 DUP3 ADD DUP3 MSTORE PUSH1 0x8 DUP2 MSTORE PUSH8 0x4879706572417065 PUSH1 0xC0 SHL PUSH1 0x20 DUP1 DUP4 ADD SWAP2 SWAP1 SWAP2 MSTORE DUP3 MLOAD PUSH1 0xA0 DUP2 ADD SWAP1 SWAP4 MSTORE PUSH1 0x6A DUP1 DUP5 MSTORE PUSH2 0x1F6 SWAP4 SWAP2 PUSH2 0x2992 SWAP1 DUP4 ADD CODECOPY PUSH8 0x16345785D8A0000 PUSH2 0x3E2 JUMP JUMPDEST POP PUSH2 0x249 PUSH1 0x40 MLOAD DUP1 PUSH1 0x40 ADD PUSH1 0x40 MSTORE DUP1 PUSH1 0xF DUP2 MSTORE PUSH1 0x20 ADD PUSH15 0x437962657250756E6B2050616E6461 PUSH1 0x88 SHL DUP2 MSTORE POP PUSH1 0x40 MLOAD DUP1 PUSH1 0xA0 ADD PUSH1 0x40 MSTORE DUP1 PUSH1 0x6A DUP2 MSTORE PUSH1 0x20 ADD PUSH2 0x2854 PUSH1 0x6A SWAP2 CODECOPY PUSH8 0x2C68AF0BB140000 PUSH2 0x3E2 JUMP JUMPDEST POP PUSH2 0x29B PUSH1 0x40 MLOAD DUP1 PUSH1 0x40 ADD PUSH1 0x40 MSTORE DUP1 PUSH1 0xE DUP2 MSTORE PUSH1 0x20 ADD PUSH14 0x23B0B630B1BA34B1902A34B3B2B9 PUSH1 0x91 SHL DUP2 MSTORE POP PUSH1 0x40 MLOAD DUP1 PUSH1 0xA0 ADD PUSH1 0x40 MSTORE DUP1 PUSH1 0x6A DUP2 MSTORE PUSH1 0x20 ADD PUSH2 0x27EA PUSH1 0x6A SWAP2 CODECOPY PUSH8 0x429D069189E0000 PUSH2 0x3E2 JUMP JUMPDEST POP PUSH2 0x2EB PUSH1 0x40 MLOAD DUP1 PUSH1 0x40 ADD PUSH1 0x40 MSTORE DUP1 PUSH1 0xC DUP2 MSTORE PUSH1 0x20 ADD PUSH12 0x9CCADEDC40A0D0DECADCD2F PUSH1 0xA3 SHL DUP2 MSTORE POP PUSH1 0x40 MLOAD DUP1 PUSH1 0xA0 ADD PUSH1 0x40 MSTORE DUP1 PUSH1 0x6A DUP2 MSTORE PUSH1 0x20 ADD PUSH2 0x2780 PUSH1 0x6A SWAP2 CODECOPY PUSH8 0x58D15E176280000 PUSH2 0x3E2 JUMP JUMPDEST POP PUSH2 0x339 PUSH1 0x40 MLOAD DUP1 PUSH1 0x40 ADD PUSH1 0x40 MSTORE DUP1 PUSH1 0xA DUP2 MSTORE PUSH1 0x20 ADD PUSH10 0x20B9BA3937902BB7B633 PUSH1 0xB1 SHL DUP2 MSTORE POP PUSH1 0x40 MLOAD DUP1 PUSH1 0xA0 ADD PUSH1 0x40 MSTORE DUP1 PUSH1 0x6A DUP2 MSTORE PUSH1 0x20 ADD PUSH2 0x28BE PUSH1 0x6A SWAP2 CODECOPY PUSH8 0x6F05B59D3B20000 PUSH2 0x3E2 JUMP JUMPDEST POP PUSH2 0x388 PUSH1 0x40 MLOAD DUP1 PUSH1 0x40 ADD PUSH1 0x40 MSTORE DUP1 PUSH1 0xB DUP2 MSTORE PUSH1 0x20 ADD PUSH11 0xA2EAC2DCE8EADA408CDEF PUSH1 0xAB SHL DUP2 MSTORE POP PUSH1 0x40 MLOAD DUP1 PUSH1 0xA0 ADD PUSH1 0x40 MSTORE DUP1 PUSH1 0x6A DUP2 MSTORE PUSH1 0x20 ADD PUSH2 0x2928 PUSH1 0x6A SWAP2 CODECOPY PUSH8 0x853A0D2313C0000 PUSH2 0x3E2 JUMP JUMPDEST POP POP POP PUSH2 0x803 JUMP JUMPDEST PUSH1 0x6 DUP1 SLOAD PUSH1 0x1 PUSH1 0x1 PUSH1 0xA0 SHL SUB DUP4 DUP2 AND PUSH1 0x1 PUSH1 0x1 PUSH1 0xA0 SHL SUB NOT DUP4 AND DUP2 OR SWAP1 SWAP4 SSTORE PUSH1 0x40 MLOAD SWAP2 AND SWAP2 SWAP1 DUP3 SWAP1 PUSH32 0x8BE0079C531659141344CD1FD0A4F28419497F9722A3DAAFE3B4186F6B6457E0 SWAP1 PUSH1 0x0 SWAP1 LOG3 POP POP JUMP JUMPDEST PUSH1 0x0 DUP1 DUP5 MLOAD GT PUSH2 0x421 JUMPI PUSH1 0x40 MLOAD PUSH3 0x461BCD PUSH1 0xE5 SHL DUP2 MSTORE PUSH1 0x20 PUSH1 0x4 DUP3 ADD MSTORE PUSH1 0xA PUSH1 0x24 DUP3 ADD MSTORE PUSH10 0x456D707479206E616D65 PUSH1 0xB0 SHL PUSH1 0x44 DUP3 ADD MSTORE PUSH1 0x64 ADD PUSH2 0xC7 JUMP JUMPDEST PUSH1 0x0 DUP4 MLOAD GT PUSH2 0x464 JUMPI PUSH1 0x40 MLOAD PUSH3 0x461BCD PUSH1 0xE5 SHL DUP2 MSTORE PUSH1 0x20 PUSH1 0x4 DUP3 ADD MSTORE PUSH1 0xF PUSH1 0x24 DUP3 ADD MSTORE PUSH15 0x115B5C1D1E481A5B5859D948155493 PUSH1 0x8A SHL PUSH1 0x44 DUP3 ADD MSTORE PUSH1 0x64 ADD PUSH2 0xC7 JUMP JUMPDEST PUSH1 0x0 DUP3 GT PUSH2 0x4B4 JUMPI PUSH1 0x40 MLOAD PUSH3 0x461BCD PUSH1 0xE5 SHL DUP2 MSTORE PUSH1 0x20 PUSH1 0x4 DUP3 ADD MSTORE PUSH1 0x1C PUSH1 0x24 DUP3 ADD MSTORE PUSH32 0x5072696365206D7573742062652067726561746572207468616E203000000000 PUSH1 0x44 DUP3 ADD MSTORE PUSH1 0x64 ADD PUSH2 0xC7 JUMP JUMPDEST PUSH1 0x8 DUP1 SLOAD PUSH1 0x0 SWAP2 DUP3 PUSH2 0x4C5 DUP4 PUSH2 0x75D JUMP JUMPDEST SWAP1 SWAP2 SSTORE POP PUSH1 0x40 DUP1 MLOAD PUSH1 0xC0 DUP2 ADD DUP3 MSTORE CALLER DUP2 MSTORE TIMESTAMP PUSH1 0x20 DUP1 DUP4 ADD SWAP2 DUP3 MSTORE DUP3 DUP5 ADD DUP11 DUP2 MSTORE PUSH1 0x60 DUP5 ADD DUP11 SWAP1 MSTORE PUSH1 0x80 DUP5 ADD DUP10 SWAP1 MSTORE PUSH1 0x0 PUSH1 0xA0 DUP6 ADD DUP2 SWAP1 MSTORE DUP7 DUP2 MSTORE PUSH1 0xB SWAP1 SWAP3 MSTORE SWAP4 SWAP1 KECCAK256 DUP3 MLOAD DUP2 SLOAD PUSH1 0x1 PUSH1 0x1 PUSH1 0xA0 SHL SUB NOT AND PUSH1 0x1 PUSH1 0x1 PUSH1 0xA0 SHL SUB SWAP1 SWAP2 AND OR DUP2 SSTORE SWAP1 MLOAD PUSH1 0x1 DUP3 ADD SSTORE SWAP2 MLOAD SWAP3 SWAP4 POP SWAP2 PUSH1 0x2 DUP3 ADD SWAP1 PUSH2 0x53F SWAP1 DUP3 PUSH2 0x69F JUMP JUMPDEST POP PUSH1 0x60 DUP3 ADD MLOAD PUSH1 0x3 DUP3 ADD SWAP1 PUSH2 0x554 SWAP1 DUP3 PUSH2 0x69F JUMP JUMPDEST POP PUSH1 0x80 DUP3 ADD MLOAD PUSH1 0x4 DUP3 ADD SSTORE PUSH1 0xA0 SWAP1 SWAP2 ADD MLOAD PUSH1 0x5 SWAP1 SWAP2 ADD DUP1 SLOAD PUSH1 0xFF NOT AND SWAP2 ISZERO ISZERO SWAP2 SWAP1 SWAP2 OR SWAP1 SSTORE PUSH1 0x40 MLOAD CALLER SWAP1 DUP3 SWAP1 PUSH32 0x8DD9D635DE35E03B428AF23DC670BFC5F1B6E68B26ADAB4611BB8EF4C26C3B7D SWAP1 PUSH2 0x5B3 SWAP1 DUP10 SWAP1 DUP10 SWAP1 DUP10 SWAP1 TIMESTAMP SWAP1 PUSH2 0x7CA JUMP JUMPDEST PUSH1 0x40 MLOAD DUP1 SWAP2 SUB SWAP1 LOG3 SWAP5 SWAP4 POP POP POP POP JUMP JUMPDEST PUSH1 0x0 DUP1 PUSH1 0x40 DUP4 DUP6 SUB SLT ISZERO PUSH2 0x5D6 JUMPI PUSH1 0x0 DUP1 REVERT JUMPDEST DUP3 MLOAD PUSH1 0x20 DUP5 ADD MLOAD SWAP1 SWAP3 POP PUSH1 0x1 PUSH1 0x1 PUSH1 0xA0 SHL SUB DUP2 AND DUP2 EQ PUSH2 0x5F5 JUMPI PUSH1 0x0 DUP1 REVERT JUMPDEST DUP1 SWAP2 POP POP SWAP3 POP SWAP3 SWAP1 POP JUMP JUMPDEST PUSH4 0x4E487B71 PUSH1 0xE0 SHL PUSH1 0x0 MSTORE PUSH1 0x41 PUSH1 0x4 MSTORE PUSH1 0x24 PUSH1 0x0 REVERT JUMPDEST PUSH1 0x1 DUP2 DUP2 SHR SWAP1 DUP3 AND DUP1 PUSH2 0x62A JUMPI PUSH1 0x7F DUP3 AND SWAP2 POP JUMPDEST PUSH1 0x20 DUP3 LT DUP2 SUB PUSH2 0x64A JUMPI PUSH4 0x4E487B71 PUSH1 0xE0 SHL PUSH1 0x0 MSTORE PUSH1 0x22 PUSH1 0x4 MSTORE PUSH1 0x24 PUSH1 0x0 REVERT JUMPDEST POP SWAP2 SWAP1 POP JUMP JUMPDEST PUSH1 0x1F DUP3 GT ISZERO PUSH2 0x69A JUMPI DUP1 PUSH1 0x0 MSTORE PUSH1 0x20 PUSH1 0x0 KECCAK256 PUSH1 0x1F DUP5 ADD PUSH1 0x5 SHR DUP2 ADD PUSH1 0x20 DUP6 LT ISZERO PUSH2 0x677 JUMPI POP DUP1 JUMPDEST PUSH1 0x1F DUP5 ADD PUSH1 0x5 SHR DUP3 ADD SWAP2 POP JUMPDEST DUP2 DUP2 LT ISZERO PUSH2 0x697 JUMPI PUSH1 0x0 DUP2 SSTORE PUSH1 0x1 ADD PUSH2 0x683 JUMP JUMPDEST POP POP JUMPDEST POP POP POP JUMP JUMPDEST DUP2 MLOAD PUSH1 0x1 PUSH1 0x1 PUSH1 0x40 SHL SUB DUP2 GT ISZERO PUSH2 0x6B8 JUMPI PUSH2 0x6B8 PUSH2 0x600 JUMP JUMPDEST PUSH2 0x6CC DUP2 PUSH2 0x6C6 DUP5 SLOAD PUSH2 0x616 JUMP JUMPDEST DUP5 PUSH2 0x650 JUMP JUMPDEST PUSH1 0x20 PUSH1 0x1F DUP3 GT PUSH1 0x1 DUP2 EQ PUSH2 0x700 JUMPI PUSH1 0x0 DUP4 ISZERO PUSH2 0x6E8 JUMPI POP DUP5 DUP3 ADD MLOAD JUMPDEST PUSH1 0x0 NOT PUSH1 0x3 DUP6 SWAP1 SHL SHR NOT AND PUSH1 0x1 DUP5 SWAP1 SHL OR DUP5 SSTORE PUSH2 0x697 JUMP JUMPDEST PUSH1 0x0 DUP5 DUP2 MSTORE PUSH1 0x20 DUP2 KECCAK256 PUSH1 0x1F NOT DUP6 AND SWAP2 JUMPDEST DUP3 DUP2 LT ISZERO PUSH2 0x730 JUMPI DUP8 DUP6 ADD MLOAD DUP3 SSTORE PUSH1 0x20 SWAP5 DUP6 ADD SWAP5 PUSH1 0x1 SWAP1 SWAP3 ADD SWAP2 ADD PUSH2 0x710 JUMP JUMPDEST POP DUP5 DUP3 LT ISZERO PUSH2 0x74E JUMPI DUP7 DUP5 ADD MLOAD PUSH1 0x0 NOT PUSH1 0x3 DUP8 SWAP1 SHL PUSH1 0xF8 AND SHR NOT AND DUP2 SSTORE JUMPDEST POP POP POP POP PUSH1 0x1 SWAP1 DUP2 SHL ADD SWAP1 SSTORE POP JUMP JUMPDEST PUSH1 0x0 PUSH1 0x1 DUP3 ADD PUSH2 0x77D JUMPI PUSH4 0x4E487B71 PUSH1 0xE0 SHL PUSH1 0x0 MSTORE PUSH1 0x11 PUSH1 0x4 MSTORE PUSH1 0x24 PUSH1 0x0 REVERT JUMPDEST POP PUSH1 0x1 ADD SWAP1 JUMP JUMPDEST PUSH1 0x0 DUP2 MLOAD DUP1 DUP5 MSTORE PUSH1 0x0 JUMPDEST DUP2 DUP2 LT ISZERO PUSH2 0x7AA JUMPI PUSH1 0x20 DUP2 DUP6 ADD DUP2 ADD MLOAD DUP7 DUP4 ADD DUP3 ADD MSTORE ADD PUSH2 0x78E JUMP JUMPDEST POP PUSH1 0x0 PUSH1 0x20 DUP3 DUP7 ADD ADD MSTORE PUSH1 0x20 PUSH1 0x1F NOT PUSH1 0x1F DUP4 ADD AND DUP6 ADD ADD SWAP2 POP POP SWAP3 SWAP2 POP POP JUMP JUMPDEST PUSH1 0x80 DUP2 MSTORE PUSH1 0x0 PUSH2 0x7DD PUSH1 0x80 DUP4 ADD DUP8 PUSH2 0x784 JUMP JUMPDEST DUP3 DUP2 SUB PUSH1 0x20 DUP5 ADD MSTORE PUSH2 0x7EF DUP2 DUP8 PUSH2 0x784 JUMP JUMPDEST PUSH1 0x40 DUP5 ADD SWAP6 SWAP1 SWAP6 MSTORE POP POP PUSH1 0x60 ADD MSTORE SWAP3 SWAP2 POP POP JUMP JUMPDEST PUSH2 0x1F6E DUP1 PUSH2 0x812 PUSH1 0x0 CODECOPY PUSH1 0x0 RETURN INVALID PUSH1 0x80 PUSH1 0x40 MSTORE PUSH1 0x4 CALLDATASIZE LT PUSH2 0x181 JUMPI PUSH1 0x0 CALLDATALOAD PUSH1 0xE0 SHR DUP1 PUSH4 0x75794A3C GT PUSH2 0xD1 JUMPI DUP1 PUSH4 0xB88D4FDE GT PUSH2 0x8A JUMPI DUP1 PUSH4 0xE985E9C5 GT PUSH2 0x64 JUMPI DUP1 PUSH4 0xE985E9C5 EQ PUSH2 0x455 JUMPI DUP1 PUSH4 0xED27107B EQ PUSH2 0x475 JUMPI DUP1 PUSH4 0xF2FDE38B EQ PUSH2 0x495 JUMPI DUP1 PUSH4 0xF4A0A528 EQ PUSH2 0x4B5 JUMPI PUSH1 0x0 DUP1 REVERT JUMPDEST DUP1 PUSH4 0xB88D4FDE EQ PUSH2 0x3F3 JUMPI DUP1 PUSH4 0xC87B56DD EQ PUSH2 0x413 JUMPI DUP1 PUSH4 0xE0391B09 EQ PUSH2 0x433 JUMPI PUSH1 0x0 DUP1 REVERT JUMPDEST DUP1 PUSH4 0x75794A3C EQ PUSH2 0x338 JUMPI DUP1 PUSH4 0x7D4CD847 EQ PUSH2 0x34E JUMPI DUP1 PUSH4 0x8DA5CB5B EQ PUSH2 0x380 JUMPI DUP1 PUSH4 0x95D89B41 EQ PUSH2 0x39E JUMPI DUP1 PUSH4 0xA22CB465 EQ PUSH2 0x3B3 JUMPI DUP1 PUSH4 0xB47CC556 EQ PUSH2 0x3D3 JUMPI PUSH1 0x0 DUP1 REVERT JUMPDEST DUP1 PUSH4 0x3CCFD60B GT PUSH2 0x13E JUMPI DUP1 PUSH4 0x669F5A51 GT PUSH2 0x118 JUMPI DUP1 PUSH4 0x669F5A51 EQ PUSH2 0x2DA JUMPI DUP1 PUSH4 0x6817C76C EQ PUSH2 0x2ED JUMPI DUP1 PUSH4 0x70A08231 EQ PUSH2 0x303 JUMPI DUP1 PUSH4 0x715018A6 EQ PUSH2 0x323 JUMPI PUSH1 0x0 DUP1 REVERT JUMPDEST DUP1 PUSH4 0x3CCFD60B EQ PUSH2 0x285 JUMPI DUP1 PUSH4 0x42842E0E EQ PUSH2 0x29A JUMPI DUP1 PUSH4 0x6352211E EQ PUSH2 0x2BA JUMPI PUSH1 0x0 DUP1 REVERT JUMPDEST DUP1 PUSH4 0x1FFC9A7 EQ PUSH2 0x186 JUMPI DUP1 PUSH4 0x6FDDE03 EQ PUSH2 0x1BB JUMPI DUP1 PUSH4 0x81812FC EQ PUSH2 0x1DD JUMPI DUP1 PUSH4 0x95EA7B3 EQ PUSH2 0x215 JUMPI DUP1 PUSH4 0x23B872DD EQ PUSH2 0x237 JUMPI DUP1 PUSH4 0x3241D34A EQ PUSH2 0x257 JUMPI JUMPDEST PUSH1 0x0 DUP1 REVERT JUMPDEST CALLVALUE DUP1 ISZERO PUSH2 0x192 JUMPI PUSH1 0x0 DUP1 REVERT JUMPDEST POP PUSH2 0x1A6 PUSH2 0x1A1 CALLDATASIZE PUSH1 0x4 PUSH2 0x18B7 JUMP JUMPDEST PUSH2 0x4D5 JUMP JUMPDEST PUSH1 0x40 MLOAD SWAP1 ISZERO ISZERO DUP2 MSTORE PUSH1 0x20 ADD JUMPDEST PUSH1 0x40 MLOAD DUP1 SWAP2 SUB SWAP1 RETURN JUMPDEST CALLVALUE DUP1 ISZERO PUSH2 0x1C7 JUMPI PUSH1 0x0 DUP1 REVERT JUMPDEST POP PUSH2 0x1D0 PUSH2 0x527 JUMP JUMPDEST PUSH1 0x40 MLOAD PUSH2 0x1B2 SWAP2 SWAP1 PUSH2 0x1921 JUMP JUMPDEST CALLVALUE DUP1 ISZERO PUSH2 0x1E9 JUMPI PUSH1 0x0 DUP1 REVERT JUMPDEST POP PUSH2 0x1FD PUSH2 0x1F8 CALLDATASIZE PUSH1 0x4 PUSH2 0x1934 JUMP JUMPDEST PUSH2 0x5B9 JUMP JUMPDEST PUSH1 0x40 MLOAD PUSH1 0x1 PUSH1 0x1 PUSH1 0xA0 SHL SUB SWAP1 SWAP2 AND DUP2 MSTORE PUSH1 0x20 ADD PUSH2 0x1B2 JUMP JUMPDEST CALLVALUE DUP1 ISZERO PUSH2 0x221 JUMPI PUSH1 0x0 DUP1 REVERT JUMPDEST POP PUSH2 0x235 PUSH2 0x230 CALLDATASIZE PUSH1 0x4 PUSH2 0x1969 JUMP JUMPDEST PUSH2 0x5E2 JUMP JUMPDEST STOP JUMPDEST CALLVALUE DUP1 ISZERO PUSH2 0x243 JUMPI PUSH1 0x0 DUP1 REVERT JUMPDEST POP PUSH2 0x235 PUSH2 0x252 CALLDATASIZE PUSH1 0x4 PUSH2 0x1993 JUMP JUMPDEST PUSH2 0x5F1 JUMP JUMPDEST CALLVALUE DUP1 ISZERO PUSH2 0x263 JUMPI PUSH1 0x0 DUP1 REVERT JUMPDEST POP PUSH2 0x277 PUSH2 0x272 CALLDATASIZE PUSH1 0x4 PUSH2 0x1A80 JUMP JUMPDEST PUSH2 0x681 JUMP JUMPDEST PUSH1 0x40 MLOAD SWAP1 DUP2 MSTORE PUSH1 0x20 ADD PUSH2 0x1B2 JUMP JUMPDEST CALLVALUE DUP1 ISZERO PUSH2 0x291 JUMPI PUSH1 0x0 DUP1 REVERT JUMPDEST POP PUSH2 0x235 PUSH2 0x862 JUMP JUMPDEST CALLVALUE DUP1 ISZERO PUSH2 0x2A6 JUMPI PUSH1 0x0 DUP1 REVERT JUMPDEST POP PUSH2 0x235 PUSH2 0x2B5 CALLDATASIZE PUSH1 0x4 PUSH2 0x1993 JUMP JUMPDEST PUSH2 0x96F JUMP JUMPDEST CALLVALUE DUP1 ISZERO PUSH2 0x2C6 JUMPI PUSH1 0x0 DUP1 REVERT JUMPDEST POP PUSH2 0x1FD PUSH2 0x2D5 CALLDATASIZE PUSH1 0x4 PUSH2 0x1934 JUMP JUMPDEST PUSH2 0x98F JUMP JUMPDEST PUSH2 0x235 PUSH2 0x2E8 CALLDATASIZE PUSH1 0x4 PUSH2 0x1AF3 JUMP JUMPDEST PUSH2 0x99A JUMP JUMPDEST CALLVALUE DUP1 ISZERO PUSH2 0x2F9 JUMPI PUSH1 0x0 DUP1 REVERT JUMPDEST POP PUSH2 0x277 PUSH1 0x9 SLOAD DUP2 JUMP JUMPDEST CALLVALUE DUP1 ISZERO PUSH2 0x30F JUMPI PUSH1 0x0 DUP1 REVERT JUMPDEST POP PUSH2 0x277 PUSH2 0x31E CALLDATASIZE PUSH1 0x4 PUSH2 0x1B1F JUMP JUMPDEST PUSH2 0xB67 JUMP JUMPDEST CALLVALUE DUP1 ISZERO PUSH2 0x32F JUMPI PUSH1 0x0 DUP1 REVERT JUMPDEST POP PUSH2 0x235 PUSH2 0xBAF JUMP JUMPDEST CALLVALUE DUP1 ISZERO PUSH2 0x344 JUMPI PUSH1 0x0 DUP1 REVERT JUMPDEST POP PUSH2 0x277 PUSH1 0x8 SLOAD DUP2 JUMP JUMPDEST CALLVALUE DUP1 ISZERO PUSH2 0x35A JUMPI PUSH1 0x0 DUP1 REVERT JUMPDEST POP PUSH2 0x36E PUSH2 0x369 CALLDATASIZE PUSH1 0x4 PUSH2 0x1934 JUMP JUMPDEST PUSH2 0xBC1 JUMP JUMPDEST PUSH1 0x40 MLOAD PUSH2 0x1B2 SWAP7 SWAP6 SWAP5 SWAP4 SWAP3 SWAP2 SWAP1 PUSH2 0x1B3A JUMP JUMPDEST CALLVALUE DUP1 ISZERO PUSH2 0x38C JUMPI PUSH1 0x0 DUP1 REVERT JUMPDEST POP PUSH1 0x6 SLOAD PUSH1 0x1 PUSH1 0x1 PUSH1 0xA0 SHL SUB AND PUSH2 0x1FD JUMP JUMPDEST CALLVALUE DUP1 ISZERO PUSH2 0x3AA JUMPI PUSH1 0x0 DUP1 REVERT JUMPDEST POP PUSH2 0x1D0 PUSH2 0xD14 JUMP JUMPDEST CALLVALUE DUP1 ISZERO PUSH2 0x3BF JUMPI PUSH1 0x0 DUP1 REVERT JUMPDEST POP PUSH2 0x235 PUSH2 0x3CE CALLDATASIZE PUSH1 0x4 PUSH2 0x1B8E JUMP JUMPDEST PUSH2 0xD23 JUMP JUMPDEST CALLVALUE DUP1 ISZERO PUSH2 0x3DF JUMPI PUSH1 0x0 DUP1 REVERT JUMPDEST POP PUSH2 0x235 PUSH2 0x3EE CALLDATASIZE PUSH1 0x4 PUSH2 0x1B1F JUMP JUMPDEST PUSH2 0xD2E JUMP JUMPDEST CALLVALUE DUP1 ISZERO PUSH2 0x3FF JUMPI PUSH1 0x0 DUP1 REVERT JUMPDEST POP PUSH2 0x235 PUSH2 0x40E CALLDATASIZE PUSH1 0x4 PUSH2 0x1BCA JUMP JUMPDEST PUSH2 0xDEE JUMP JUMPDEST CALLVALUE DUP1 ISZERO PUSH2 0x41F JUMPI PUSH1 0x0 DUP1 REVERT JUMPDEST POP PUSH2 0x1D0 PUSH2 0x42E CALLDATASIZE PUSH1 0x4 PUSH2 0x1934 JUMP JUMPDEST PUSH2 0xE06 JUMP JUMPDEST CALLVALUE DUP1 ISZERO PUSH2 0x43F JUMPI PUSH1 0x0 DUP1 REVERT JUMPDEST POP PUSH2 0x448 PUSH2 0xEB3 JUMP JUMPDEST PUSH1 0x40 MLOAD PUSH2 0x1B2 SWAP2 SWAP1 PUSH2 0x1C46 JUMP JUMPDEST CALLVALUE DUP1 ISZERO PUSH2 0x461 JUMPI PUSH1 0x0 DUP1 REVERT JUMPDEST POP PUSH2 0x1A6 PUSH2 0x470 CALLDATASIZE PUSH1 0x4 PUSH2 0x1D04 JUMP JUMPDEST PUSH2 0x10FC JUMP JUMPDEST CALLVALUE DUP1 ISZERO PUSH2 0x481 JUMPI PUSH1 0x0 DUP1 REVERT JUMPDEST POP PUSH1 0xA SLOAD PUSH2 0x1FD SWAP1 PUSH1 0x1 PUSH1 0x1 PUSH1 0xA0 SHL SUB AND DUP2 JUMP JUMPDEST CALLVALUE DUP1 ISZERO PUSH2 0x4A1 JUMPI PUSH1 0x0 DUP1 REVERT JUMPDEST POP PUSH2 0x235 PUSH2 0x4B0 CALLDATASIZE PUSH1 0x4 PUSH2 0x1B1F JUMP JUMPDEST PUSH2 0x112A JUMP JUMPDEST CALLVALUE DUP1 ISZERO PUSH2 0x4C1 JUMPI PUSH1 0x0 DUP1 REVERT JUMPDEST POP PUSH2 0x235 PUSH2 0x4D0 CALLDATASIZE PUSH1 0x4 PUSH2 0x1934 JUMP JUMPDEST PUSH2 0x1168 JUMP JUMPDEST PUSH1 0x0 PUSH1 0x1 PUSH1 0x1 PUSH1 0xE0 SHL SUB NOT DUP3 AND PUSH4 0x80AC58CD PUSH1 0xE0 SHL EQ DUP1 PUSH2 0x506 JUMPI POP PUSH1 0x1 PUSH1 0x1 PUSH1 0xE0 SHL SUB NOT DUP3 AND PUSH4 0x5B5E139F PUSH1 0xE0 SHL EQ JUMPDEST DUP1 PUSH2 0x521 JUMPI POP PUSH4 0x1FFC9A7 PUSH1 0xE0 SHL PUSH1 0x1 PUSH1 0x1 PUSH1 0xE0 SHL SUB NOT DUP4 AND EQ JUMPDEST SWAP3 SWAP2 POP POP JUMP JUMPDEST PUSH1 0x60 PUSH1 0x0 DUP1 SLOAD PUSH2 0x536 SWAP1 PUSH2 0x1D2E JUMP JUMPDEST DUP1 PUSH1 0x1F ADD PUSH1 0x20 DUP1 SWAP2 DIV MUL PUSH1 0x20 ADD PUSH1 0x40 MLOAD SWAP1 DUP2 ADD PUSH1 0x40 MSTORE DUP1 SWAP3 SWAP2 SWAP1 DUP2 DUP2 MSTORE PUSH1 0x20 ADD DUP3 DUP1 SLOAD PUSH2 0x562 SWAP1 PUSH2 0x1D2E JUMP JUMPDEST DUP1 ISZERO PUSH2 0x5AF JUMPI DUP1 PUSH1 0x1F LT PUSH2 0x584 JUMPI PUSH2 0x100 DUP1 DUP4 SLOAD DIV MUL DUP4 MSTORE SWAP2 PUSH1 0x20 ADD SWAP2 PUSH2 0x5AF JUMP JUMPDEST DUP3 ADD SWAP2 SWAP1 PUSH1 0x0 MSTORE PUSH1 0x20 PUSH1 0x0 KECCAK256 SWAP1 JUMPDEST DUP2 SLOAD DUP2 MSTORE SWAP1 PUSH1 0x1 ADD SWAP1 PUSH1 0x20 ADD DUP1 DUP4 GT PUSH2 0x592 JUMPI DUP3 SWAP1 SUB PUSH1 0x1F AND DUP3 ADD SWAP2 JUMPDEST POP POP POP POP POP SWAP1 POP SWAP1 JUMP JUMPDEST PUSH1 0x0 PUSH2 0x5C4 DUP3 PUSH2 0x1208 JUMP JUMPDEST POP PUSH1 0x0 DUP3 DUP2 MSTORE PUSH1 0x4 PUSH1 0x20 MSTORE PUSH1 0x40 SWAP1 KECCAK256 SLOAD PUSH1 0x1 PUSH1 0x1 PUSH1 0xA0 SHL SUB AND PUSH2 0x521 JUMP JUMPDEST PUSH2 0x5ED DUP3 DUP3 CALLER PUSH2 0x1241 JUMP JUMPDEST POP POP JUMP JUMPDEST PUSH1 0x1 PUSH1 0x1 PUSH1 0xA0 SHL SUB DUP3 AND PUSH2 0x620 JUMPI PUSH1 0x40 MLOAD PUSH4 0x32505749 PUSH1 0xE1 SHL DUP2 MSTORE PUSH1 0x0 PUSH1 0x4 DUP3 ADD MSTORE PUSH1 0x24 ADD JUMPDEST PUSH1 0x40 MLOAD DUP1 SWAP2 SUB SWAP1 REVERT JUMPDEST PUSH1 0x0 PUSH2 0x62D DUP4 DUP4 CALLER PUSH2 0x124E JUMP JUMPDEST SWAP1 POP DUP4 PUSH1 0x1 PUSH1 0x1 PUSH1 0xA0 SHL SUB AND DUP2 PUSH1 0x1 PUSH1 0x1 PUSH1 0xA0 SHL SUB AND EQ PUSH2 0x67B JUMPI PUSH1 0x40 MLOAD PUSH4 0x64283D7B PUSH1 0xE0 SHL DUP2 MSTORE PUSH1 0x1 PUSH1 0x1 PUSH1 0xA0 SHL SUB DUP1 DUP7 AND PUSH1 0x4 DUP4 ADD MSTORE PUSH1 0x24 DUP3 ADD DUP5 SWAP1 MSTORE DUP3 AND PUSH1 0x44 DUP3 ADD MSTORE PUSH1 0x64 ADD PUSH2 0x617 JUMP JUMPDEST POP POP POP POP JUMP JUMPDEST PUSH1 0x0 DUP1 DUP5 MLOAD GT PUSH2 0x6C0 JUMPI PUSH1 0x40 MLOAD PUSH3 0x461BCD PUSH1 0xE5 SHL DUP2 MSTORE PUSH1 0x20 PUSH1 0x4 DUP3 ADD MSTORE PUSH1 0xA PUSH1 0x24 DUP3 ADD MSTORE PUSH10 0x456D707479206E616D65 PUSH1 0xB0 SHL PUSH1 0x44 DUP3 ADD MSTORE PUSH1 0x64 ADD PUSH2 0x617 JUMP JUMPDEST PUSH1 0x0 DUP4 MLOAD GT PUSH2 0x703 JUMPI PUSH1 0x40 MLOAD PUSH3 0x461BCD PUSH1 0xE5 SHL DUP2 MSTORE PUSH1 0x20 PUSH1 0x4 DUP3 ADD MSTORE PUSH1 0xF PUSH1 0x24 DUP3 ADD MSTORE PUSH15 0x115B5C1D1E481A5B5859D948155493 PUSH1 0x8A SHL PUSH1 0x44 DUP3 ADD MSTORE PUSH1 0x64 ADD PUSH2 0x617 JUMP JUMPDEST PUSH1 0x0 DUP3 GT PUSH2 0x753 JUMPI PUSH1 0x40 MLOAD PUSH3 0x461BCD PUSH1 0xE5 SHL DUP2 MSTORE PUSH1 0x20 PUSH1 0x4 DUP3 ADD MSTORE PUSH1 0x1C PUSH1 0x24 DUP3 ADD MSTORE PUSH32 0x5072696365206D7573742062652067726561746572207468616E203000000000 PUSH1 0x44 DUP3 ADD MSTORE PUSH1 0x64 ADD PUSH2 0x617 JUMP JUMPDEST PUSH1 0x8 DUP1 SLOAD PUSH1 0x0 SWAP2 DUP3 PUSH2 0x764 DUP4 PUSH2 0x1D62 JUMP JUMPDEST SWAP1 SWAP2 SSTORE POP PUSH1 0x40 DUP1 MLOAD PUSH1 0xC0 DUP2 ADD DUP3 MSTORE CALLER DUP2 MSTORE TIMESTAMP PUSH1 0x20 DUP1 DUP4 ADD SWAP2 DUP3 MSTORE DUP3 DUP5 ADD DUP11 DUP2 MSTORE PUSH1 0x60 DUP5 ADD DUP11 SWAP1 MSTORE PUSH1 0x80 DUP5 ADD DUP10 SWAP1 MSTORE PUSH1 0x0 PUSH1 0xA0 DUP6 ADD DUP2 SWAP1 MSTORE DUP7 DUP2 MSTORE PUSH1 0xB SWAP1 SWAP3 MSTORE SWAP4 SWAP1 KECCAK256 DUP3 MLOAD DUP2 SLOAD PUSH1 0x1 PUSH1 0x1 PUSH1 0xA0 SHL SUB NOT AND PUSH1 0x1 PUSH1 0x1 PUSH1 0xA0 SHL SUB SWAP1 SWAP2 AND OR DUP2 SSTORE SWAP1 MLOAD PUSH1 0x1 DUP3 ADD SSTORE SWAP2 MLOAD SWAP3 SWAP4 POP SWAP2 PUSH1 0x2 DUP3 ADD SWAP1 PUSH2 0x7DE SWAP1 DUP3 PUSH2 0x1DD0 JUMP JUMPDEST POP PUSH1 0x60 DUP3 ADD MLOAD PUSH1 0x3 DUP3 ADD SWAP1 PUSH2 0x7F3 SWAP1 DUP3 PUSH2 0x1DD0 JUMP JUMPDEST POP PUSH1 0x80 DUP3 ADD MLOAD PUSH1 0x4 DUP3 ADD SSTORE PUSH1 0xA0 SWAP1 SWAP2 ADD MLOAD PUSH1 0x5 SWAP1 SWAP2 ADD DUP1 SLOAD PUSH1 0xFF NOT AND SWAP2 ISZERO ISZERO SWAP2 SWAP1 SWAP2 OR SWAP1 SSTORE PUSH1 0x40 MLOAD CALLER SWAP1 DUP3 SWAP1 PUSH32 0x8DD9D635DE35E03B428AF23DC670BFC5F1B6E68B26ADAB4611BB8EF4C26C3B7D SWAP1 PUSH2 0x852 SWAP1 DUP10 SWAP1 DUP10 SWAP1 DUP10 SWAP1 TIMESTAMP SWAP1 PUSH2 0x1E8F JUMP JUMPDEST PUSH1 0x40 MLOAD DUP1 SWAP2 SUB SWAP1 LOG3 SWAP5 SWAP4 POP POP POP POP JUMP JUMPDEST PUSH2 0x86A PUSH2 0x12D1 JUMP JUMPDEST PUSH2 0x872 PUSH2 0x12FE JUMP JUMPDEST SELFBALANCE DUP1 PUSH2 0x8B9 JUMPI PUSH1 0x40 MLOAD PUSH3 0x461BCD PUSH1 0xE5 SHL DUP2 MSTORE PUSH1 0x20 PUSH1 0x4 DUP3 ADD MSTORE PUSH1 0x16 PUSH1 0x24 DUP3 ADD MSTORE PUSH22 0x4E6F2062616C616E636520746F207769746864726177 PUSH1 0x50 SHL PUSH1 0x44 DUP3 ADD MSTORE PUSH1 0x64 ADD PUSH2 0x617 JUMP JUMPDEST PUSH1 0x0 PUSH2 0x8CD PUSH1 0x6 SLOAD PUSH1 0x1 PUSH1 0x1 PUSH1 0xA0 SHL SUB AND SWAP1 JUMP JUMPDEST PUSH1 0x1 PUSH1 0x1 PUSH1 0xA0 SHL SUB AND DUP3 PUSH1 0x40 MLOAD PUSH1 0x0 PUSH1 0x40 MLOAD DUP1 DUP4 SUB DUP2 DUP6 DUP8 GAS CALL SWAP3 POP POP POP RETURNDATASIZE DUP1 PUSH1 0x0 DUP2 EQ PUSH2 0x917 JUMPI PUSH1 0x40 MLOAD SWAP2 POP PUSH1 0x1F NOT PUSH1 0x3F RETURNDATASIZE ADD AND DUP3 ADD PUSH1 0x40 MSTORE RETURNDATASIZE DUP3 MSTORE RETURNDATASIZE PUSH1 0x0 PUSH1 0x20 DUP5 ADD RETURNDATACOPY PUSH2 0x91C JUMP JUMPDEST PUSH1 0x60 SWAP2 POP JUMPDEST POP POP SWAP1 POP DUP1 PUSH2 0x961 JUMPI PUSH1 0x40 MLOAD PUSH3 0x461BCD PUSH1 0xE5 SHL DUP2 MSTORE PUSH1 0x20 PUSH1 0x4 DUP3 ADD MSTORE PUSH1 0x11 PUSH1 0x24 DUP3 ADD MSTORE PUSH17 0x15DA5D1A191C985DD85B0819985A5B1959 PUSH1 0x7A SHL PUSH1 0x44 DUP3 ADD MSTORE PUSH1 0x64 ADD PUSH2 0x617 JUMP JUMPDEST POP POP PUSH2 0x96D PUSH1 0x1 PUSH1 0x7 SSTORE JUMP JUMPDEST JUMP JUMPDEST PUSH2 0x98A DUP4 DUP4 DUP4 PUSH1 0x40 MLOAD DUP1 PUSH1 0x20 ADD PUSH1 0x40 MSTORE DUP1 PUSH1 0x0 DUP2 MSTORE POP PUSH2 0xDEE JUMP JUMPDEST POP POP POP JUMP JUMPDEST PUSH1 0x0 PUSH2 0x521 DUP3 PUSH2 0x1208 JUMP JUMPDEST PUSH2 0x9A2 PUSH2 0x12FE JUMP JUMPDEST PUSH1 0x1 PUSH1 0x1 PUSH1 0xA0 SHL SUB DUP2 AND PUSH2 0x9F8 JUMPI PUSH1 0x40 MLOAD PUSH3 0x461BCD PUSH1 0xE5 SHL DUP2 MSTORE PUSH1 0x20 PUSH1 0x4 DUP3 ADD MSTORE PUSH1 0x19 PUSH1 0x24 DUP3 ADD MSTORE PUSH32 0x496E76616C696420726563697069656E74206164647265737300000000000000 PUSH1 0x44 DUP3 ADD MSTORE PUSH1 0x64 ADD PUSH2 0x617 JUMP JUMPDEST PUSH1 0x8 SLOAD DUP3 LT PUSH2 0xA3E JUMPI PUSH1 0x40 MLOAD PUSH3 0x461BCD PUSH1 0xE5 SHL DUP2 MSTORE PUSH1 0x20 PUSH1 0x4 DUP3 ADD MSTORE PUSH1 0x12 PUSH1 0x24 DUP3 ADD MSTORE PUSH18 0x13919508191BD95CC81B9BDD08195E1A5CDD PUSH1 0x72 SHL PUSH1 0x44 DUP3 ADD MSTORE PUSH1 0x64 ADD PUSH2 0x617 JUMP JUMPDEST PUSH1 0x0 DUP3 DUP2 MSTORE PUSH1 0xB PUSH1 0x20 MSTORE PUSH1 0x40 SWAP1 KECCAK256 PUSH1 0x5 ADD SLOAD PUSH1 0xFF AND ISZERO PUSH2 0xA95 JUMPI PUSH1 0x40 MLOAD PUSH3 0x461BCD PUSH1 0xE5 SHL DUP2 MSTORE PUSH1 0x20 PUSH1 0x4 DUP3 ADD MSTORE PUSH1 0x12 PUSH1 0x24 DUP3 ADD MSTORE PUSH18 0x13919508185B1C9958591E481B5A5B9D1959 PUSH1 0x72 SHL PUSH1 0x44 DUP3 ADD MSTORE PUSH1 0x64 ADD PUSH2 0x617 JUMP JUMPDEST PUSH1 0x9 SLOAD CALLVALUE LT ISZERO PUSH2 0xAE7 JUMPI PUSH1 0x40 MLOAD PUSH3 0x461BCD PUSH1 0xE5 SHL DUP2 MSTORE PUSH1 0x20 PUSH1 0x4 DUP3 ADD MSTORE PUSH1 0x19 PUSH1 0x24 DUP3 ADD MSTORE PUSH32 0x496E73756666696369656E74206D696E74207061796D656E7400000000000000 PUSH1 0x44 DUP3 ADD MSTORE PUSH1 0x64 ADD PUSH2 0x617 JUMP JUMPDEST PUSH1 0x0 DUP3 DUP2 MSTORE PUSH1 0xB PUSH1 0x20 MSTORE PUSH1 0x40 SWAP1 KECCAK256 PUSH1 0x5 DUP2 ADD DUP1 SLOAD PUSH1 0xFF NOT AND PUSH1 0x1 OR SWAP1 SSTORE PUSH2 0xB0E DUP3 DUP5 PUSH2 0x1328 JUMP JUMPDEST DUP2 PUSH1 0x1 PUSH1 0x1 PUSH1 0xA0 SHL SUB AND CALLER PUSH1 0x1 PUSH1 0x1 PUSH1 0xA0 SHL SUB AND DUP5 PUSH32 0xF5086C3634D7283B9DB5926687F3378E368C3E147C4A8878A308AE2EB9B41358 TIMESTAMP PUSH1 0x40 MLOAD PUSH2 0xB54 SWAP2 DUP2 MSTORE PUSH1 0x20 ADD SWAP1 JUMP JUMPDEST PUSH1 0x40 MLOAD DUP1 SWAP2 SUB SWAP1 LOG4 POP PUSH2 0x5ED PUSH1 0x1 PUSH1 0x7 SSTORE JUMP JUMPDEST PUSH1 0x0 PUSH1 0x1 PUSH1 0x1 PUSH1 0xA0 SHL SUB DUP3 AND PUSH2 0xB93 JUMPI PUSH1 0x40 MLOAD PUSH4 0x22718AD9 PUSH1 0xE2 SHL DUP2 MSTORE PUSH1 0x0 PUSH1 0x4 DUP3 ADD MSTORE PUSH1 0x24 ADD PUSH2 0x617 JUMP JUMPDEST POP PUSH1 0x1 PUSH1 0x1 PUSH1 0xA0 SHL SUB AND PUSH1 0x0 SWAP1 DUP2 MSTORE PUSH1 0x3 PUSH1 0x20 MSTORE PUSH1 0x40 SWAP1 KECCAK256 SLOAD SWAP1 JUMP JUMPDEST PUSH2 0xBB7 PUSH2 0x12D1 JUMP JUMPDEST PUSH2 0x96D PUSH1 0x0 PUSH2 0x1342 JUMP JUMPDEST PUSH1 0xB PUSH1 0x20 MSTORE PUSH1 0x0 SWAP1 DUP2 MSTORE PUSH1 0x40 SWAP1 KECCAK256 DUP1 SLOAD PUSH1 0x1 DUP3 ADD SLOAD PUSH1 0x2 DUP4 ADD DUP1 SLOAD PUSH1 0x1 PUSH1 0x1 PUSH1 0xA0 SHL SUB SWAP1 SWAP4 AND SWAP4 SWAP2 SWAP3 PUSH2 0xBF3 SWAP1 PUSH2 0x1D2E JUMP JUMPDEST DUP1 PUSH1 0x1F ADD PUSH1 0x20 DUP1 SWAP2 DIV MUL PUSH1 0x20 ADD PUSH1 0x40 MLOAD SWAP1 DUP2 ADD PUSH1 0x40 MSTORE DUP1 SWAP3 SWAP2 SWAP1 DUP2 DUP2 MSTORE PUSH1 0x20 ADD DUP3 DUP1 SLOAD PUSH2 0xC1F SWAP1 PUSH2 0x1D2E JUMP JUMPDEST DUP1 ISZERO PUSH2 0xC6C JUMPI DUP1 PUSH1 0x1F LT PUSH2 0xC41 JUMPI PUSH2 0x100 DUP1 DUP4 SLOAD DIV MUL DUP4 MSTORE SWAP2 PUSH1 0x20 ADD SWAP2 PUSH2 0xC6C JUMP JUMPDEST DUP3 ADD SWAP2 SWAP1 PUSH1 0x0 MSTORE PUSH1 0x20 PUSH1 0x0 KECCAK256 SWAP1 JUMPDEST DUP2 SLOAD DUP2 MSTORE SWAP1 PUSH1 0x1 ADD SWAP1 PUSH1 0x20 ADD DUP1 DUP4 GT PUSH2 0xC4F JUMPI DUP3 SWAP1 SUB PUSH1 0x1F AND DUP3 ADD SWAP2 JUMPDEST POP POP POP POP POP SWAP1 DUP1 PUSH1 0x3 ADD DUP1 SLOAD PUSH2 0xC81 SWAP1 PUSH2 0x1D2E JUMP JUMPDEST DUP1 PUSH1 0x1F ADD PUSH1 0x20 DUP1 SWAP2 DIV MUL PUSH1 0x20 ADD PUSH1 0x40 MLOAD SWAP1 DUP2 ADD PUSH1 0x40 MSTORE DUP1 SWAP3 SWAP2 SWAP1 DUP2 DUP2 MSTORE PUSH1 0x20 ADD DUP3 DUP1 SLOAD PUSH2 0xCAD SWAP1 PUSH2 0x1D2E JUMP JUMPDEST DUP1 ISZERO PUSH2 0xCFA JUMPI DUP1 PUSH1 0x1F LT PUSH2 0xCCF JUMPI PUSH2 0x100 DUP1 DUP4 SLOAD DIV MUL DUP4 MSTORE SWAP2 PUSH1 0x20 ADD SWAP2 PUSH2 0xCFA JUMP JUMPDEST DUP3 ADD SWAP2 SWAP1 PUSH1 0x0 MSTORE PUSH1 0x20 PUSH1 0x0 KECCAK256 SWAP1 JUMPDEST DUP2 SLOAD DUP2 MSTORE SWAP1 PUSH1 0x1 ADD SWAP1 PUSH1 0x20 ADD DUP1 DUP4 GT PUSH2 0xCDD JUMPI DUP3 SWAP1 SUB PUSH1 0x1F AND DUP3 ADD SWAP2 JUMPDEST POP POP POP POP PUSH1 0x4 DUP4 ADD SLOAD PUSH1 0x5 SWAP1 SWAP4 ADD SLOAD SWAP2 SWAP3 SWAP2 PUSH1 0xFF AND SWAP1 POP DUP7 JUMP JUMPDEST PUSH1 0x60 PUSH1 0x1 DUP1 SLOAD PUSH2 0x536 SWAP1 PUSH2 0x1D2E JUMP JUMPDEST PUSH2 0x5ED CALLER DUP4 DUP4 PUSH2 0x1394 JUMP JUMPDEST PUSH2 0xD36 PUSH2 0x12D1 JUMP JUMPDEST PUSH1 0x1 PUSH1 0x1 PUSH1 0xA0 SHL SUB DUP2 AND PUSH2 0xD8C JUMPI PUSH1 0x40 MLOAD PUSH3 0x461BCD PUSH1 0xE5 SHL DUP2 MSTORE PUSH1 0x20 PUSH1 0x4 DUP3 ADD MSTORE PUSH1 0x1B PUSH1 0x24 DUP3 ADD MSTORE PUSH32 0x496E76616C6964206D61726B6574706C61636520616464726573730000000000 PUSH1 0x44 DUP3 ADD MSTORE PUSH1 0x64 ADD PUSH2 0x617 JUMP JUMPDEST PUSH1 0xA DUP1 SLOAD PUSH1 0x1 PUSH1 0x1 PUSH1 0xA0 SHL SUB DUP4 DUP2 AND PUSH1 0x1 PUSH1 0x1 PUSH1 0xA0 SHL SUB NOT DUP4 AND DUP2 OR SWAP1 SWAP4 SSTORE PUSH1 0x40 DUP1 MLOAD SWAP2 SWAP1 SWAP3 AND DUP1 DUP3 MSTORE PUSH1 0x20 DUP3 ADD SWAP4 SWAP1 SWAP4 MSTORE PUSH32 0x920F4DE0E7427CE5CF5551817FAE8BBB29975314EC846A00F7A363831F0E5012 SWAP2 ADD JUMPDEST PUSH1 0x40 MLOAD DUP1 SWAP2 SUB SWAP1 LOG1 POP POP JUMP JUMPDEST PUSH2 0xDF9 DUP5 DUP5 DUP5 PUSH2 0x5F1 JUMP JUMPDEST PUSH2 0x67B CALLER DUP6 DUP6 DUP6 DUP6 PUSH2 0x1433 JUMP JUMPDEST PUSH1 0x60 PUSH2 0xE11 DUP3 PUSH2 0x1208 JUMP JUMPDEST POP PUSH1 0x0 DUP3 DUP2 MSTORE PUSH1 0xB PUSH1 0x20 MSTORE PUSH1 0x40 SWAP1 KECCAK256 PUSH1 0x3 ADD DUP1 SLOAD PUSH2 0xE2E SWAP1 PUSH2 0x1D2E JUMP JUMPDEST DUP1 PUSH1 0x1F ADD PUSH1 0x20 DUP1 SWAP2 DIV MUL PUSH1 0x20 ADD PUSH1 0x40 MLOAD SWAP1 DUP2 ADD PUSH1 0x40 MSTORE DUP1 SWAP3 SWAP2 SWAP1 DUP2 DUP2 MSTORE PUSH1 0x20 ADD DUP3 DUP1 SLOAD PUSH2 0xE5A SWAP1 PUSH2 0x1D2E JUMP JUMPDEST DUP1 ISZERO PUSH2 0xEA7 JUMPI DUP1 PUSH1 0x1F LT PUSH2 0xE7C JUMPI PUSH2 0x100 DUP1 DUP4 SLOAD DIV MUL DUP4 MSTORE SWAP2 PUSH1 0x20 ADD SWAP2 PUSH2 0xEA7 JUMP JUMPDEST DUP3 ADD SWAP2 SWAP1 PUSH1 0x0 MSTORE PUSH1 0x20 PUSH1 0x0 KECCAK256 SWAP1 JUMPDEST DUP2 SLOAD DUP2 MSTORE SWAP1 PUSH1 0x1 ADD SWAP1 PUSH1 0x20 ADD DUP1 DUP4 GT PUSH2 0xE8A JUMPI DUP3 SWAP1 SUB PUSH1 0x1F AND DUP3 ADD SWAP2 JUMPDEST POP POP POP POP POP SWAP1 POP SWAP2 SWAP1 POP JUMP JUMPDEST PUSH1 0x60 PUSH1 0x0 PUSH1 0x8 SLOAD PUSH8 0xFFFFFFFFFFFFFFFF DUP2 GT ISZERO PUSH2 0xED2 JUMPI PUSH2 0xED2 PUSH2 0x19D0 JUMP JUMPDEST PUSH1 0x40 MLOAD SWAP1 DUP1 DUP3 MSTORE DUP1 PUSH1 0x20 MUL PUSH1 0x20 ADD DUP3 ADD PUSH1 0x40 MSTORE DUP1 ISZERO PUSH2 0xF47 JUMPI DUP2 PUSH1 0x20 ADD JUMPDEST PUSH2 0xF34 PUSH1 0x40 MLOAD DUP1 PUSH1 0xC0 ADD PUSH1 0x40 MSTORE DUP1 PUSH1 0x0 PUSH1 0x1 PUSH1 0x1 PUSH1 0xA0 SHL SUB AND DUP2 MSTORE PUSH1 0x20 ADD PUSH1 0x0 DUP2 MSTORE PUSH1 0x20 ADD PUSH1 0x60 DUP2 MSTORE PUSH1 0x20 ADD PUSH1 0x60 DUP2 MSTORE PUSH1 0x20 ADD PUSH1 0x0 DUP2 MSTORE PUSH1 0x20 ADD PUSH1 0x0 ISZERO ISZERO DUP2 MSTORE POP SWAP1 JUMP JUMPDEST DUP2 MSTORE PUSH1 0x20 ADD SWAP1 PUSH1 0x1 SWAP1 SUB SWAP1 DUP2 PUSH2 0xEF0 JUMPI SWAP1 POP JUMPDEST POP SWAP1 POP PUSH1 0x0 JUMPDEST PUSH1 0x8 SLOAD DUP2 LT ISZERO PUSH2 0x10F6 JUMPI PUSH1 0x0 DUP2 DUP2 MSTORE PUSH1 0xB PUSH1 0x20 SWAP1 DUP2 MSTORE PUSH1 0x40 SWAP2 DUP3 SWAP1 KECCAK256 DUP3 MLOAD PUSH1 0xC0 DUP2 ADD DUP5 MSTORE DUP2 SLOAD PUSH1 0x1 PUSH1 0x1 PUSH1 0xA0 SHL SUB AND DUP2 MSTORE PUSH1 0x1 DUP3 ADD SLOAD SWAP3 DUP2 ADD SWAP3 SWAP1 SWAP3 MSTORE PUSH1 0x2 DUP2 ADD DUP1 SLOAD SWAP3 SWAP4 SWAP2 SWAP3 SWAP2 DUP5 ADD SWAP2 PUSH2 0xFA1 SWAP1 PUSH2 0x1D2E JUMP JUMPDEST DUP1 PUSH1 0x1F ADD PUSH1 0x20 DUP1 SWAP2 DIV MUL PUSH1 0x20 ADD PUSH1 0x40 MLOAD SWAP1 DUP2 ADD PUSH1 0x40 MSTORE DUP1 SWAP3 SWAP2 SWAP1 DUP2 DUP2 MSTORE PUSH1 0x20 ADD DUP3 DUP1 SLOAD PUSH2 0xFCD SWAP1 PUSH2 0x1D2E JUMP JUMPDEST DUP1 ISZERO PUSH2 0x101A JUMPI DUP1 PUSH1 0x1F LT PUSH2 0xFEF JUMPI PUSH2 0x100 DUP1 DUP4 SLOAD DIV MUL DUP4 MSTORE SWAP2 PUSH1 0x20 ADD SWAP2 PUSH2 0x101A JUMP JUMPDEST DUP3 ADD SWAP2 SWAP1 PUSH1 0x0 MSTORE PUSH1 0x20 PUSH1 0x0 KECCAK256 SWAP1 JUMPDEST DUP2 SLOAD DUP2 MSTORE SWAP1 PUSH1 0x1 ADD SWAP1 PUSH1 0x20 ADD DUP1 DUP4 GT PUSH2 0xFFD JUMPI DUP3 SWAP1 SUB PUSH1 0x1F AND DUP3 ADD SWAP2 JUMPDEST POP POP POP POP POP DUP2 MSTORE PUSH1 0x20 ADD PUSH1 0x3 DUP3 ADD DUP1 SLOAD PUSH2 0x1033 SWAP1 PUSH2 0x1D2E JUMP JUMPDEST DUP1 PUSH1 0x1F ADD PUSH1 0x20 DUP1 SWAP2 DIV MUL PUSH1 0x20 ADD PUSH1 0x40 MLOAD SWAP1 DUP2 ADD PUSH1 0x40 MSTORE DUP1 SWAP3 SWAP2 SWAP1 DUP2 DUP2 MSTORE PUSH1 0x20 ADD DUP3 DUP1 SLOAD PUSH2 0x105F SWAP1 PUSH2 0x1D2E JUMP JUMPDEST DUP1 ISZERO PUSH2 0x10AC JUMPI DUP1 PUSH1 0x1F LT PUSH2 0x1081 JUMPI PUSH2 0x100 DUP1 DUP4 SLOAD DIV MUL DUP4 MSTORE SWAP2 PUSH1 0x20 ADD SWAP2 PUSH2 0x10AC JUMP JUMPDEST DUP3 ADD SWAP2 SWAP1 PUSH1 0x0 MSTORE PUSH1 0x20 PUSH1 0x0 KECCAK256 SWAP1 JUMPDEST DUP2 SLOAD DUP2 MSTORE SWAP1 PUSH1 0x1 ADD SWAP1 PUSH1 0x20 ADD DUP1 DUP4 GT PUSH2 0x108F JUMPI DUP3 SWAP1 SUB PUSH1 0x1F AND DUP3 ADD SWAP2 JUMPDEST POP POP POP SWAP2 DUP4 MSTORE POP POP PUSH1 0x4 DUP3 ADD SLOAD PUSH1 0x20 DUP3 ADD MSTORE PUSH1 0x5 SWAP1 SWAP2 ADD SLOAD PUSH1 0xFF AND ISZERO ISZERO PUSH1 0x40 SWAP1 SWAP2 ADD MSTORE DUP3 MLOAD DUP4 SWAP1 DUP4 SWAP1 DUP2 LT PUSH2 0x10E3 JUMPI PUSH2 0x10E3 PUSH2 0x1EC8 JUMP JUMPDEST PUSH1 0x20 SWAP1 DUP2 MUL SWAP2 SWAP1 SWAP2 ADD ADD MSTORE PUSH1 0x1 ADD PUSH2 0xF4D JUMP JUMPDEST POP SWAP2 SWAP1 POP JUMP JUMPDEST PUSH1 0x1 PUSH1 0x1 PUSH1 0xA0 SHL SUB SWAP2 DUP3 AND PUSH1 0x0 SWAP1 DUP2 MSTORE PUSH1 0x5 PUSH1 0x20 SWAP1 DUP2 MSTORE PUSH1 0x40 DUP1 DUP4 KECCAK256 SWAP4 SWAP1 SWAP5 AND DUP3 MSTORE SWAP2 SWAP1 SWAP2 MSTORE KECCAK256 SLOAD PUSH1 0xFF AND SWAP1 JUMP JUMPDEST PUSH2 0x1132 PUSH2 0x12D1 JUMP JUMPDEST PUSH1 0x1 PUSH1 0x1 PUSH1 0xA0 SHL SUB DUP2 AND PUSH2 0x115C JUMPI PUSH1 0x40 MLOAD PUSH4 0x1E4FBDF7 PUSH1 0xE0 SHL DUP2 MSTORE PUSH1 0x0 PUSH1 0x4 DUP3 ADD MSTORE PUSH1 0x24 ADD PUSH2 0x617 JUMP JUMPDEST PUSH2 0x1165 DUP2 PUSH2 0x1342 JUMP JUMPDEST POP JUMP JUMPDEST PUSH2 0x1170 PUSH2 0x12D1 JUMP JUMPDEST PUSH1 0x0 DUP2 GT PUSH2 0x11CA JUMPI PUSH1 0x40 MLOAD PUSH3 0x461BCD PUSH1 0xE5 SHL DUP2 MSTORE PUSH1 0x20 PUSH1 0x4 DUP3 ADD MSTORE PUSH1 0x21 PUSH1 0x24 DUP3 ADD MSTORE PUSH32 0x4D696E74207072696365206D7573742062652067726561746572207468616E20 PUSH1 0x44 DUP3 ADD MSTORE PUSH1 0x3 PUSH1 0xFC SHL PUSH1 0x64 DUP3 ADD MSTORE PUSH1 0x84 ADD PUSH2 0x617 JUMP JUMPDEST PUSH1 0x9 DUP1 SLOAD SWAP1 DUP3 SWAP1 SSTORE PUSH1 0x40 DUP1 MLOAD DUP3 DUP2 MSTORE PUSH1 0x20 DUP2 ADD DUP5 SWAP1 MSTORE PUSH32 0x2E1C9E000C6E8DDA4D03536ADB13B7CB6034CCFF90D17F01DE381E4D5097B525 SWAP2 ADD PUSH2 0xDE2 JUMP JUMPDEST PUSH1 0x0 DUP2 DUP2 MSTORE PUSH1 0x2 PUSH1 0x20 MSTORE PUSH1 0x40 DUP2 KECCAK256 SLOAD PUSH1 0x1 PUSH1 0x1 PUSH1 0xA0 SHL SUB AND DUP1 PUSH2 0x521 JUMPI PUSH1 0x40 MLOAD PUSH4 0x7E273289 PUSH1 0xE0 SHL DUP2 MSTORE PUSH1 0x4 DUP2 ADD DUP5 SWAP1 MSTORE PUSH1 0x24 ADD PUSH2 0x617 JUMP JUMPDEST PUSH2 0x98A DUP4 DUP4 DUP4 PUSH1 0x1 PUSH2 0x155E JUMP JUMPDEST PUSH1 0xA SLOAD PUSH1 0x0 SWAP1 PUSH1 0x1 PUSH1 0x1 PUSH1 0xA0 SHL SUB AND CALLER EQ DUP1 PUSH2 0x1272 JUMPI POP PUSH1 0x1 PUSH1 0x1 PUSH1 0xA0 SHL SUB DUP3 AND CALLER EQ JUMPDEST PUSH2 0x12BE JUMPI PUSH1 0x40 MLOAD PUSH3 0x461BCD PUSH1 0xE5 SHL DUP2 MSTORE PUSH1 0x20 PUSH1 0x4 DUP3 ADD MSTORE PUSH1 0x1A PUSH1 0x24 DUP3 ADD MSTORE PUSH32 0x4E6F7420617574686F72697A656420746F207472616E73666572000000000000 PUSH1 0x44 DUP3 ADD MSTORE PUSH1 0x64 ADD PUSH2 0x617 JUMP JUMPDEST PUSH2 0x12C9 DUP5 DUP5 DUP5 PUSH2 0x1664 JUMP JUMPDEST SWAP5 SWAP4 POP POP POP POP JUMP JUMPDEST PUSH1 0x6 SLOAD PUSH1 0x1 PUSH1 0x1 PUSH1 0xA0 SHL SUB AND CALLER EQ PUSH2 0x96D JUMPI PUSH1 0x40 MLOAD PUSH4 0x118CDAA7 PUSH1 0xE0 SHL DUP2 MSTORE CALLER PUSH1 0x4 DUP3 ADD MSTORE PUSH1 0x24 ADD PUSH2 0x617 JUMP JUMPDEST PUSH1 0x2 PUSH1 0x7 SLOAD SUB PUSH2 0x1321 JUMPI PUSH1 0x40 MLOAD PUSH4 0x3EE5AEB5 PUSH1 0xE0 SHL DUP2 MSTORE PUSH1 0x4 ADD PUSH1 0x40 MLOAD DUP1 SWAP2 SUB SWAP1 REVERT JUMPDEST PUSH1 0x2 PUSH1 0x7 SSTORE JUMP JUMPDEST PUSH2 0x5ED DUP3 DUP3 PUSH1 0x40 MLOAD DUP1 PUSH1 0x20 ADD PUSH1 0x40 MSTORE DUP1 PUSH1 0x0 DUP2 MSTORE POP PUSH2 0x175D JUMP JUMPDEST PUSH1 0x6 DUP1 SLOAD PUSH1 0x1 PUSH1 0x1 PUSH1 0xA0 SHL SUB DUP4 DUP2 AND PUSH1 0x1 PUSH1 0x1 PUSH1 0xA0 SHL SUB NOT DUP4 AND DUP2 OR SWAP1 SWAP4 SSTORE PUSH1 0x40 MLOAD SWAP2 AND SWAP2 SWAP1 DUP3 SWAP1 PUSH32 0x8BE0079C531659141344CD1FD0A4F28419497F9722A3DAAFE3B4186F6B6457E0 SWAP1 PUSH1 0x0 SWAP1 LOG3 POP POP JUMP JUMPDEST PUSH1 0x1 PUSH1 0x1 PUSH1 0xA0 SHL SUB DUP3 AND PUSH2 0x13C6 JUMPI PUSH1 0x40 MLOAD PUSH4 0xB611743 PUSH1 0xE3 SHL DUP2 MSTORE PUSH1 0x1 PUSH1 0x1 PUSH1 0xA0 SHL SUB DUP4 AND PUSH1 0x4 DUP3 ADD MSTORE PUSH1 0x24 ADD PUSH2 0x617 JUMP JUMPDEST PUSH1 0x1 PUSH1 0x1 PUSH1 0xA0 SHL SUB DUP4 DUP2 AND PUSH1 0x0 DUP2 DUP2 MSTORE PUSH1 0x5 PUSH1 0x20 SWAP1 DUP2 MSTORE PUSH1 0x40 DUP1 DUP4 KECCAK256 SWAP5 DUP8 AND DUP1 DUP5 MSTORE SWAP5 DUP3 MSTORE SWAP2 DUP3 SWAP1 KECCAK256 DUP1 SLOAD PUSH1 0xFF NOT AND DUP7 ISZERO ISZERO SWAP1 DUP2 OR SWAP1 SWAP2 SSTORE SWAP2 MLOAD SWAP2 DUP3 MSTORE PUSH32 0x17307EAB39AB6107E8899845AD3D59BD9653F200F220920489CA2B5937696C31 SWAP2 ADD PUSH1 0x40 MLOAD DUP1 SWAP2 SUB SWAP1 LOG3 POP POP POP JUMP JUMPDEST PUSH1 0x1 PUSH1 0x1 PUSH1 0xA0 SHL SUB DUP4 AND EXTCODESIZE ISZERO PUSH2 0x1557 JUMPI PUSH1 0x40 MLOAD PUSH4 0xA85BD01 PUSH1 0xE1 SHL DUP2 MSTORE PUSH1 0x1 PUSH1 0x1 PUSH1 0xA0 SHL SUB DUP5 AND SWAP1 PUSH4 0x150B7A02 SWAP1 PUSH2 0x1475 SWAP1 DUP9 SWAP1 DUP9 SWAP1 DUP8 SWAP1 DUP8 SWAP1 PUSH1 0x4 ADD PUSH2 0x1EDE JUMP JUMPDEST PUSH1 0x20 PUSH1 0x40 MLOAD DUP1 DUP4 SUB DUP2 PUSH1 0x0 DUP8 GAS CALL SWAP3 POP POP POP DUP1 ISZERO PUSH2 0x14B0 JUMPI POP PUSH1 0x40 DUP1 MLOAD PUSH1 0x1F RETURNDATASIZE SWAP1 DUP2 ADD PUSH1 0x1F NOT AND DUP3 ADD SWAP1 SWAP3 MSTORE PUSH2 0x14AD SWAP2 DUP2 ADD SWAP1 PUSH2 0x1F1B JUMP JUMPDEST PUSH1 0x1 JUMPDEST PUSH2 0x1519 JUMPI RETURNDATASIZE DUP1 DUP1 ISZERO PUSH2 0x14DE JUMPI PUSH1 0x40 MLOAD SWAP2 POP PUSH1 0x1F NOT PUSH1 0x3F RETURNDATASIZE ADD AND DUP3 ADD PUSH1 0x40 MSTORE RETURNDATASIZE DUP3 MSTORE RETURNDATASIZE PUSH1 0x0 PUSH1 0x20 DUP5 ADD RETURNDATACOPY PUSH2 0x14E3 JUMP JUMPDEST PUSH1 0x60 SWAP2 POP JUMPDEST POP DUP1 MLOAD PUSH1 0x0 SUB PUSH2 0x1511 JUMPI PUSH1 0x40 MLOAD PUSH4 0x32505749 PUSH1 0xE1 SHL DUP2 MSTORE PUSH1 0x1 PUSH1 0x1 PUSH1 0xA0 SHL SUB DUP6 AND PUSH1 0x4 DUP3 ADD MSTORE PUSH1 0x24 ADD PUSH2 0x617 JUMP JUMPDEST DUP1 MLOAD DUP2 PUSH1 0x20 ADD REVERT JUMPDEST PUSH1 0x1 PUSH1 0x1 PUSH1 0xE0 SHL SUB NOT DUP2 AND PUSH4 0xA85BD01 PUSH1 0xE1 SHL EQ PUSH2 0x1555 JUMPI PUSH1 0x40 MLOAD PUSH4 0x32505749 PUSH1 0xE1 SHL DUP2 MSTORE PUSH1 0x1 PUSH1 0x1 PUSH1 0xA0 SHL SUB DUP6 AND PUSH1 0x4 DUP3 ADD MSTORE PUSH1 0x24 ADD PUSH2 0x617 JUMP JUMPDEST POP JUMPDEST POP POP POP POP POP JUMP JUMPDEST DUP1 DUP1 PUSH2 0x1572 JUMPI POP PUSH1 0x1 PUSH1 0x1 PUSH1 0xA0 SHL SUB DUP3 AND ISZERO ISZERO JUMPDEST ISZERO PUSH2 0x1634 JUMPI PUSH1 0x0 PUSH2 0x1582 DUP5 PUSH2 0x1208 JUMP JUMPDEST SWAP1 POP PUSH1 0x1 PUSH1 0x1 PUSH1 0xA0 SHL SUB DUP4 AND ISZERO DUP1 ISZERO SWAP1 PUSH2 0x15AE JUMPI POP DUP3 PUSH1 0x1 PUSH1 0x1 PUSH1 0xA0 SHL SUB AND DUP2 PUSH1 0x1 PUSH1 0x1 PUSH1 0xA0 SHL SUB AND EQ ISZERO JUMPDEST DUP1 ISZERO PUSH2 0x15C1 JUMPI POP PUSH2 0x15BF DUP2 DUP5 PUSH2 0x10FC JUMP JUMPDEST ISZERO JUMPDEST ISZERO PUSH2 0x15EA JUMPI PUSH1 0x40 MLOAD PUSH4 0xA9FBF51F PUSH1 0xE0 SHL DUP2 MSTORE PUSH1 0x1 PUSH1 0x1 PUSH1 0xA0 SHL SUB DUP5 AND PUSH1 0x4 DUP3 ADD MSTORE PUSH1 0x24 ADD PUSH2 0x617 JUMP JUMPDEST DUP2 ISZERO PUSH2 0x1632 JUMPI DUP4 DUP6 PUSH1 0x1 PUSH1 0x1 PUSH1 0xA0 SHL SUB AND DUP3 PUSH1 0x1 PUSH1 0x1 PUSH1 0xA0 SHL SUB AND PUSH32 0x8C5BE1E5EBEC7D5BD14F71427D1E84F3DD0314C0F7B2291E5B200AC8C7C3B925 PUSH1 0x40 MLOAD PUSH1 0x40 MLOAD DUP1 SWAP2 SUB SWAP1 LOG4 JUMPDEST POP JUMPDEST POP POP PUSH1 0x0 SWAP1 DUP2 MSTORE PUSH1 0x4 PUSH1 0x20 MSTORE PUSH1 0x40 SWAP1 KECCAK256 DUP1 SLOAD PUSH1 0x1 PUSH1 0x1 PUSH1 0xA0 SHL SUB NOT AND PUSH1 0x1 PUSH1 0x1 PUSH1 0xA0 SHL SUB SWAP3 SWAP1 SWAP3 AND SWAP2 SWAP1 SWAP2 OR SWAP1 SSTORE JUMP JUMPDEST PUSH1 0x0 DUP3 DUP2 MSTORE PUSH1 0x2 PUSH1 0x20 MSTORE PUSH1 0x40 DUP2 KECCAK256 SLOAD PUSH1 0x1 PUSH1 0x1 PUSH1 0xA0 SHL SUB SWAP1 DUP2 AND SWAP1 DUP4 AND ISZERO PUSH2 0x1691 JUMPI PUSH2 0x1691 DUP2 DUP5 DUP7 PUSH2 0x1775 JUMP JUMPDEST PUSH1 0x1 PUSH1 0x1 PUSH1 0xA0 SHL SUB DUP2 AND ISZERO PUSH2 0x16CF JUMPI PUSH2 0x16AE PUSH1 0x0 DUP6 PUSH1 0x0 DUP1 PUSH2 0x155E JUMP JUMPDEST PUSH1 0x1 PUSH1 0x1 PUSH1 0xA0 SHL SUB DUP2 AND PUSH1 0x0 SWAP1 DUP2 MSTORE PUSH1 0x3 PUSH1 0x20 MSTORE PUSH1 0x40 SWAP1 KECCAK256 DUP1 SLOAD PUSH1 0x0 NOT ADD SWAP1 SSTORE JUMPDEST PUSH1 0x1 PUSH1 0x1 PUSH1 0xA0 SHL SUB DUP6 AND ISZERO PUSH2 0x16FE JUMPI PUSH1 0x1 PUSH1 0x1 PUSH1 0xA0 SHL SUB DUP6 AND PUSH1 0x0 SWAP1 DUP2 MSTORE PUSH1 0x3 PUSH1 0x20 MSTORE PUSH1 0x40 SWAP1 KECCAK256 DUP1 SLOAD PUSH1 0x1 ADD SWAP1 SSTORE JUMPDEST PUSH1 0x0 DUP5 DUP2 MSTORE PUSH1 0x2 PUSH1 0x20 MSTORE PUSH1 0x40 DUP1 DUP3 KECCAK256 DUP1 SLOAD PUSH1 0x1 PUSH1 0x1 PUSH1 0xA0 SHL SUB NOT AND PUSH1 0x1 PUSH1 0x1 PUSH1 0xA0 SHL SUB DUP10 DUP2 AND SWAP2 DUP3 OR SWAP1 SWAP3 SSTORE SWAP2 MLOAD DUP8 SWAP4 SWAP2 DUP6 AND SWAP2 PUSH32 0xDDF252AD1BE2C89B69C2B068FC378DAA952BA7F163C4A11628F55A4DF523B3EF SWAP2 LOG4 SWAP5 SWAP4 POP POP POP POP JUMP JUMPDEST PUSH2 0x1767 DUP4 DUP4 PUSH2 0x17D9 JUMP JUMPDEST PUSH2 0x98A CALLER PUSH1 0x0 DUP6 DUP6 DUP6 PUSH2 0x1433 JUMP JUMPDEST PUSH2 0x1780 DUP4 DUP4 DUP4 PUSH2 0x183E JUMP JUMPDEST PUSH2 0x98A JUMPI PUSH1 0x1 PUSH1 0x1 PUSH1 0xA0 SHL SUB DUP4 AND PUSH2 0x17AE JUMPI PUSH1 0x40 MLOAD PUSH4 0x7E273289 PUSH1 0xE0 SHL DUP2 MSTORE PUSH1 0x4 DUP2 ADD DUP3 SWAP1 MSTORE PUSH1 0x24 ADD PUSH2 0x617 JUMP JUMPDEST PUSH1 0x40 MLOAD PUSH4 0x177E802F PUSH1 0xE0 SHL DUP2 MSTORE PUSH1 0x1 PUSH1 0x1 PUSH1 0xA0 SHL SUB DUP4 AND PUSH1 0x4 DUP3 ADD MSTORE PUSH1 0x24 DUP2 ADD DUP3 SWAP1 MSTORE PUSH1 0x44 ADD PUSH2 0x617 JUMP JUMPDEST PUSH1 0x1 PUSH1 0x1 PUSH1 0xA0 SHL SUB DUP3 AND PUSH2 0x1803 JUMPI PUSH1 0x40 MLOAD PUSH4 0x32505749 PUSH1 0xE1 SHL DUP2 MSTORE PUSH1 0x0 PUSH1 0x4 DUP3 ADD MSTORE PUSH1 0x24 ADD PUSH2 0x617 JUMP JUMPDEST PUSH1 0x0 PUSH2 0x1811 DUP4 DUP4 PUSH1 0x0 PUSH2 0x124E JUMP JUMPDEST SWAP1 POP PUSH1 0x1 PUSH1 0x1 PUSH1 0xA0 SHL SUB DUP2 AND ISZERO PUSH2 0x98A JUMPI PUSH1 0x40 MLOAD PUSH4 0x39E35637 PUSH1 0xE1 SHL DUP2 MSTORE PUSH1 0x0 PUSH1 0x4 DUP3 ADD MSTORE PUSH1 0x24 ADD PUSH2 0x617 JUMP JUMPDEST PUSH1 0x0 PUSH1 0x1 PUSH1 0x1 PUSH1 0xA0 SHL SUB DUP4 AND ISZERO DUP1 ISZERO SWAP1 PUSH2 0x12C9 JUMPI POP DUP3 PUSH1 0x1 PUSH1 0x1 PUSH1 0xA0 SHL SUB AND DUP5 PUSH1 0x1 PUSH1 0x1 PUSH1 0xA0 SHL SUB AND EQ DUP1 PUSH2 0x1878 JUMPI POP PUSH2 0x1878 DUP5 DUP5 PUSH2 0x10FC JUMP JUMPDEST DUP1 PUSH2 0x12C9 JUMPI POP POP PUSH1 0x0 SWAP1 DUP2 MSTORE PUSH1 0x4 PUSH1 0x20 MSTORE PUSH1 0x40 SWAP1 KECCAK256 SLOAD PUSH1 0x1 PUSH1 0x1 PUSH1 0xA0 SHL SUB SWAP1 DUP2 AND SWAP2 AND EQ SWAP2 SWAP1 POP JUMP JUMPDEST PUSH1 0x1 PUSH1 0x1 PUSH1 0xE0 SHL SUB NOT DUP2 AND DUP2 EQ PUSH2 0x1165 JUMPI PUSH1 0x0 DUP1 REVERT JUMPDEST PUSH1 0x0 PUSH1 0x20 DUP3 DUP5 SUB SLT ISZERO PUSH2 0x18C9 JUMPI PUSH1 0x0 DUP1 REVERT JUMPDEST DUP2 CALLDATALOAD PUSH2 0x18D4 DUP2 PUSH2 0x18A1 JUMP JUMPDEST SWAP4 SWAP3 POP POP POP JUMP JUMPDEST PUSH1 0x0 DUP2 MLOAD DUP1 DUP5 MSTORE PUSH1 0x0 JUMPDEST DUP2 DUP2 LT ISZERO PUSH2 0x1901 JUMPI PUSH1 0x20 DUP2 DUP6 ADD DUP2 ADD MLOAD DUP7 DUP4 ADD DUP3 ADD MSTORE ADD PUSH2 0x18E5 JUMP JUMPDEST POP PUSH1 0x0 PUSH1 0x20 DUP3 DUP7 ADD ADD MSTORE PUSH1 0x20 PUSH1 0x1F NOT PUSH1 0x1F DUP4 ADD AND DUP6 ADD ADD SWAP2 POP POP SWAP3 SWAP2 POP POP JUMP JUMPDEST PUSH1 0x20 DUP2 MSTORE PUSH1 0x0 PUSH2 0x18D4 PUSH1 0x20 DUP4 ADD DUP5 PUSH2 0x18DB JUMP JUMPDEST PUSH1 0x0 PUSH1 0x20 DUP3 DUP5 SUB SLT ISZERO PUSH2 0x1946 JUMPI PUSH1 0x0 DUP1 REVERT JUMPDEST POP CALLDATALOAD SWAP2 SWAP1 POP JUMP JUMPDEST DUP1 CALLDATALOAD PUSH1 0x1 PUSH1 0x1 PUSH1 0xA0 SHL SUB DUP2 AND DUP2 EQ PUSH2 0x1964 JUMPI PUSH1 0x0 DUP1 REVERT JUMPDEST SWAP2 SWAP1 POP JUMP JUMPDEST PUSH1 0x0 DUP1 PUSH1 0x40 DUP4 DUP6 SUB SLT ISZERO PUSH2 0x197C JUMPI PUSH1 0x0 DUP1 REVERT JUMPDEST PUSH2 0x1985 DUP4 PUSH2 0x194D JUMP JUMPDEST SWAP5 PUSH1 0x20 SWAP4 SWAP1 SWAP4 ADD CALLDATALOAD SWAP4 POP POP POP JUMP JUMPDEST PUSH1 0x0 DUP1 PUSH1 0x0 PUSH1 0x60 DUP5 DUP7 SUB SLT ISZERO PUSH2 0x19A8 JUMPI PUSH1 0x0 DUP1 REVERT JUMPDEST PUSH2 0x19B1 DUP5 PUSH2 0x194D JUMP JUMPDEST SWAP3 POP PUSH2 0x19BF PUSH1 0x20 DUP6 ADD PUSH2 0x194D JUMP JUMPDEST SWAP3 SWAP6 SWAP3 SWAP5 POP POP POP PUSH1 0x40 SWAP2 SWAP1 SWAP2 ADD CALLDATALOAD SWAP1 JUMP JUMPDEST PUSH4 0x4E487B71 PUSH1 0xE0 SHL PUSH1 0x0 MSTORE PUSH1 0x41 PUSH1 0x4 MSTORE PUSH1 0x24 PUSH1 0x0 REVERT JUMPDEST PUSH1 0x0 DUP1 PUSH8 0xFFFFFFFFFFFFFFFF DUP5 GT ISZERO PUSH2 0x1A01 JUMPI PUSH2 0x1A01 PUSH2 0x19D0 JUMP JUMPDEST POP PUSH1 0x40 MLOAD PUSH1 0x1F NOT PUSH1 0x1F DUP6 ADD DUP2 AND PUSH1 0x3F ADD AND DUP2 ADD DUP2 DUP2 LT PUSH8 0xFFFFFFFFFFFFFFFF DUP3 GT OR ISZERO PUSH2 0x1A30 JUMPI PUSH2 0x1A30 PUSH2 0x19D0 JUMP JUMPDEST PUSH1 0x40 MSTORE DUP4 DUP2 MSTORE SWAP1 POP DUP1 DUP3 DUP5 ADD DUP6 LT ISZERO PUSH2 0x1A48 JUMPI PUSH1 0x0 DUP1 REVERT JUMPDEST DUP4 DUP4 PUSH1 0x20 DUP4 ADD CALLDATACOPY PUSH1 0x0 PUSH1 0x20 DUP6 DUP4 ADD ADD MSTORE POP SWAP4 SWAP3 POP POP POP JUMP JUMPDEST PUSH1 0x0 DUP3 PUSH1 0x1F DUP4 ADD SLT PUSH2 0x1A71 JUMPI PUSH1 0x0 DUP1 REVERT JUMPDEST PUSH2 0x18D4 DUP4 DUP4 CALLDATALOAD PUSH1 0x20 DUP6 ADD PUSH2 0x19E6 JUMP JUMPDEST PUSH1 0x0 DUP1 PUSH1 0x0 PUSH1 0x60 DUP5 DUP7 SUB SLT ISZERO PUSH2 0x1A95 JUMPI PUSH1 0x0 DUP1 REVERT JUMPDEST DUP4 CALLDATALOAD PUSH8 0xFFFFFFFFFFFFFFFF DUP2 GT ISZERO PUSH2 0x1AAC JUMPI PUSH1 0x0 DUP1 REVERT JUMPDEST PUSH2 0x1AB8 DUP7 DUP3 DUP8 ADD PUSH2 0x1A60 JUMP JUMPDEST SWAP4 POP POP PUSH1 0x20 DUP5 ADD CALLDATALOAD PUSH8 0xFFFFFFFFFFFFFFFF DUP2 GT ISZERO PUSH2 0x1AD5 JUMPI PUSH1 0x0 DUP1 REVERT JUMPDEST PUSH2 0x1AE1 DUP7 DUP3 DUP8 ADD PUSH2 0x1A60 JUMP JUMPDEST SWAP4 SWAP7 SWAP4 SWAP6 POP POP POP POP PUSH1 0x40 SWAP2 SWAP1 SWAP2 ADD CALLDATALOAD SWAP1 JUMP JUMPDEST PUSH1 0x0 DUP1 PUSH1 0x40 DUP4 DUP6 SUB SLT ISZERO PUSH2 0x1B06 JUMPI PUSH1 0x0 DUP1 REVERT JUMPDEST DUP3 CALLDATALOAD SWAP2 POP PUSH2 0x1B16 PUSH1 0x20 DUP5 ADD PUSH2 0x194D JUMP JUMPDEST SWAP1 POP SWAP3 POP SWAP3 SWAP1 POP JUMP JUMPDEST PUSH1 0x0 PUSH1 0x20 DUP3 DUP5 SUB SLT ISZERO PUSH2 0x1B31 JUMPI PUSH1 0x0 DUP1 REVERT JUMPDEST PUSH2 0x18D4 DUP3 PUSH2 0x194D JUMP JUMPDEST PUSH1 0x1 DUP1 PUSH1 0xA0 SHL SUB DUP8 AND DUP2 MSTORE DUP6 PUSH1 0x20 DUP3 ADD MSTORE PUSH1 0xC0 PUSH1 0x40 DUP3 ADD MSTORE PUSH1 0x0 PUSH2 0x1B61 PUSH1 0xC0 DUP4 ADD DUP8 PUSH2 0x18DB JUMP JUMPDEST DUP3 DUP2 SUB PUSH1 0x60 DUP5 ADD MSTORE PUSH2 0x1B73 DUP2 DUP8 PUSH2 0x18DB JUMP JUMPDEST PUSH1 0x80 DUP5 ADD SWAP6 SWAP1 SWAP6 MSTORE POP POP SWAP1 ISZERO ISZERO PUSH1 0xA0 SWAP1 SWAP2 ADD MSTORE SWAP5 SWAP4 POP POP POP POP JUMP JUMPDEST PUSH1 0x0 DUP1 PUSH1 0x40 DUP4 DUP6 SUB SLT ISZERO PUSH2 0x1BA1 JUMPI PUSH1 0x0 DUP1 REVERT JUMPDEST PUSH2 0x1BAA DUP4 PUSH2 0x194D JUMP JUMPDEST SWAP2 POP PUSH1 0x20 DUP4 ADD CALLDATALOAD DUP1 ISZERO ISZERO DUP2 EQ PUSH2 0x1BBF JUMPI PUSH1 0x0 DUP1 REVERT JUMPDEST DUP1 SWAP2 POP POP SWAP3 POP SWAP3 SWAP1 POP JUMP JUMPDEST PUSH1 0x0 DUP1 PUSH1 0x0 DUP1 PUSH1 0x80 DUP6 DUP8 SUB SLT ISZERO PUSH2 0x1BE0 JUMPI PUSH1 0x0 DUP1 REVERT JUMPDEST PUSH2 0x1BE9 DUP6 PUSH2 0x194D JUMP JUMPDEST SWAP4 POP PUSH2 0x1BF7 PUSH1 0x20 DUP7 ADD PUSH2 0x194D JUMP JUMPDEST SWAP3 POP PUSH1 0x40 DUP6 ADD CALLDATALOAD SWAP2 POP PUSH1 0x60 DUP6 ADD CALLDATALOAD PUSH8 0xFFFFFFFFFFFFFFFF DUP2 GT ISZERO PUSH2 0x1C1A JUMPI PUSH1 0x0 DUP1 REVERT JUMPDEST DUP6 ADD PUSH1 0x1F DUP2 ADD DUP8 SGT PUSH2 0x1C2B JUMPI PUSH1 0x0 DUP1 REVERT JUMPDEST PUSH2 0x1C3A DUP8 DUP3 CALLDATALOAD PUSH1 0x20 DUP5 ADD PUSH2 0x19E6 JUMP JUMPDEST SWAP2 POP POP SWAP3 SWAP6 SWAP2 SWAP5 POP SWAP3 POP JUMP JUMPDEST PUSH1 0x0 PUSH1 0x20 DUP3 ADD PUSH1 0x20 DUP4 MSTORE DUP1 DUP5 MLOAD DUP1 DUP4 MSTORE PUSH1 0x40 DUP6 ADD SWAP2 POP PUSH1 0x40 DUP2 PUSH1 0x5 SHL DUP7 ADD ADD SWAP3 POP PUSH1 0x20 DUP7 ADD PUSH1 0x0 JUMPDEST DUP3 DUP2 LT ISZERO PUSH2 0x1CF8 JUMPI PUSH1 0x3F NOT DUP8 DUP7 SUB ADD DUP5 MSTORE DUP2 MLOAD PUSH1 0x1 DUP1 PUSH1 0xA0 SHL SUB DUP2 MLOAD AND DUP7 MSTORE PUSH1 0x20 DUP2 ADD MLOAD PUSH1 0x20 DUP8 ADD MSTORE PUSH1 0x40 DUP2 ADD MLOAD PUSH1 0xC0 PUSH1 0x40 DUP9 ADD MSTORE PUSH2 0x1CB0 PUSH1 0xC0 DUP9 ADD DUP3 PUSH2 0x18DB JUMP JUMPDEST SWAP1 POP PUSH1 0x60 DUP3 ADD MLOAD DUP8 DUP3 SUB PUSH1 0x60 DUP10 ADD MSTORE PUSH2 0x1CC9 DUP3 DUP3 PUSH2 0x18DB JUMP JUMPDEST PUSH1 0x80 DUP5 DUP2 ADD MLOAD SWAP1 DUP11 ADD MSTORE PUSH1 0xA0 SWAP4 DUP5 ADD MLOAD ISZERO ISZERO SWAP4 SWAP1 SWAP9 ADD SWAP3 SWAP1 SWAP3 MSTORE POP POP PUSH1 0x20 SWAP4 DUP5 ADD SWAP4 SWAP2 SWAP1 SWAP2 ADD SWAP1 PUSH1 0x1 ADD PUSH2 0x1C6E JUMP JUMPDEST POP SWAP3 SWAP7 SWAP6 POP POP POP POP POP POP JUMP JUMPDEST PUSH1 0x0 DUP1 PUSH1 0x40 DUP4 DUP6 SUB SLT ISZERO PUSH2 0x1D17 JUMPI PUSH1 0x0 DUP1 REVERT JUMPDEST PUSH2 0x1D20 DUP4 PUSH2 0x194D JUMP JUMPDEST SWAP2 POP PUSH2 0x1B16 PUSH1 0x20 DUP5 ADD PUSH2 0x194D JUMP JUMPDEST PUSH1 0x1 DUP2 DUP2 SHR SWAP1 DUP3 AND DUP1 PUSH2 0x1D42 JUMPI PUSH1 0x7F DUP3 AND SWAP2 POP JUMPDEST PUSH1 0x20 DUP3 LT DUP2 SUB PUSH2 0x10F6 JUMPI PUSH4 0x4E487B71 PUSH1 0xE0 SHL PUSH1 0x0 MSTORE PUSH1 0x22 PUSH1 0x4 MSTORE PUSH1 0x24 PUSH1 0x0 REVERT JUMPDEST PUSH1 0x0 PUSH1 0x1 DUP3 ADD PUSH2 0x1D82 JUMPI PUSH4 0x4E487B71 PUSH1 0xE0 SHL PUSH1 0x0 MSTORE PUSH1 0x11 PUSH1 0x4 MSTORE PUSH1 0x24 PUSH1 0x0 REVERT JUMPDEST POP PUSH1 0x1 ADD SWAP1 JUMP JUMPDEST PUSH1 0x1F DUP3 GT ISZERO PUSH2 0x98A JUMPI DUP1 PUSH1 0x0 MSTORE PUSH1 0x20 PUSH1 0x0 KECCAK256 PUSH1 0x1F DUP5 ADD PUSH1 0x5 SHR DUP2 ADD PUSH1 0x20 DUP6 LT ISZERO PUSH2 0x1DB0 JUMPI POP DUP1 JUMPDEST PUSH1 0x1F DUP5 ADD PUSH1 0x5 SHR DUP3 ADD SWAP2 POP JUMPDEST DUP2 DUP2 LT ISZERO PUSH2 0x1557 JUMPI PUSH1 0x0 DUP2 SSTORE PUSH1 0x1 ADD PUSH2 0x1DBC JUMP JUMPDEST DUP2 MLOAD PUSH8 0xFFFFFFFFFFFFFFFF DUP2 GT ISZERO PUSH2 0x1DEA JUMPI PUSH2 0x1DEA PUSH2 0x19D0 JUMP JUMPDEST PUSH2 0x1DFE DUP2 PUSH2 0x1DF8 DUP5 SLOAD PUSH2 0x1D2E JUMP JUMPDEST DUP5 PUSH2 0x1D89 JUMP JUMPDEST PUSH1 0x20 PUSH1 0x1F DUP3 GT PUSH1 0x1 DUP2 EQ PUSH2 0x1E32 JUMPI PUSH1 0x0 DUP4 ISZERO PUSH2 0x1E1A JUMPI POP DUP5 DUP3 ADD MLOAD JUMPDEST PUSH1 0x0 NOT PUSH1 0x3 DUP6 SWAP1 SHL SHR NOT AND PUSH1 0x1 DUP5 SWAP1 SHL OR DUP5 SSTORE PUSH2 0x1557 JUMP JUMPDEST PUSH1 0x0 DUP5 DUP2 MSTORE PUSH1 0x20 DUP2 KECCAK256 PUSH1 0x1F NOT DUP6 AND SWAP2 JUMPDEST DUP3 DUP2 LT ISZERO PUSH2 0x1E62 JUMPI DUP8 DUP6 ADD MLOAD DUP3 SSTORE PUSH1 0x20 SWAP5 DUP6 ADD SWAP5 PUSH1 0x1 SWAP1 SWAP3 ADD SWAP2 ADD PUSH2 0x1E42 JUMP JUMPDEST POP DUP5 DUP3 LT ISZERO PUSH2 0x1E80 JUMPI DUP7 DUP5 ADD MLOAD PUSH1 0x0 NOT PUSH1 0x3 DUP8 SWAP1 SHL PUSH1 0xF8 AND SHR NOT AND DUP2 SSTORE JUMPDEST POP POP POP POP PUSH1 0x1 SWAP1 DUP2 SHL ADD SWAP1 SSTORE POP JUMP JUMPDEST PUSH1 0x80 DUP2 MSTORE PUSH1 0x0 PUSH2 0x1EA2 PUSH1 0x80 DUP4 ADD DUP8 PUSH2 0x18DB JUMP JUMPDEST DUP3 DUP2 SUB PUSH1 0x20 DUP5 ADD MSTORE PUSH2 0x1EB4 DUP2 DUP8 PUSH2 0x18DB JUMP JUMPDEST PUSH1 0x40 DUP5 ADD SWAP6 SWAP1 SWAP6 MSTORE POP POP PUSH1 0x60 ADD MSTORE SWAP3 SWAP2 POP POP JUMP JUMPDEST PUSH4 0x4E487B71 PUSH1 0xE0 SHL PUSH1 0x0 MSTORE PUSH1 0x32 PUSH1 0x4 MSTORE PUSH1 0x24 PUSH1 0x0 REVERT JUMPDEST PUSH1 0x1 PUSH1 0x1 PUSH1 0xA0 SHL SUB DUP6 DUP2 AND DUP3 MSTORE DUP5 AND PUSH1 0x20 DUP3 ADD MSTORE PUSH1 0x40 DUP2 ADD DUP4 SWAP1 MSTORE PUSH1 0x80 PUSH1 0x60 DUP3 ADD DUP2 SWAP1 MSTORE PUSH1 0x0 SWAP1 PUSH2 0x1F11 SWAP1 DUP4 ADD DUP5 PUSH2 0x18DB JUMP JUMPDEST SWAP7 SWAP6 POP POP POP POP POP POP JUMP JUMPDEST PUSH1 0x0 PUSH1 0x20 DUP3 DUP5 SUB SLT ISZERO PUSH2 0x1F2D JUMPI PUSH1 0x0 DUP1 REVERT JUMPDEST DUP2 MLOAD PUSH2 0x18D4 DUP2 PUSH2 0x18A1 JUMP INVALID LOG2 PUSH5 0x6970667358 0x22 SLT KECCAK256 PUSH17 0xE4785C5FCD8ADDE9B3D5DD44AA4DA87529 0xB3 SELFDESTRUCT 0xCE EXTCODECOPY ADD 0xD 0xDA PUSH3 0x5389FC 0x1E PUSH22 0x3F64736F6C634300081C003368747470733A2F2F7265 PUSH20 0x2E636C6F7564696E6172792E636F6D2F6467717A PUSH27 0x796633372F696D6167652F75706C6F61642F763137333732363937 CALLDATALOAD CALLDATACOPY 0x2F PUSH2 0x3438 ADDRESS CALLDATASIZE PUSH4 0x34616266 CODESIZE PUSH4 0x66386439 PUSH6 0x386632623866 PUSH7 0x34336562626363 ORIGIN PUSH0 PUSH3 0x716A6C PUSH11 0x332E617669666874747073 GASPRICE 0x2F 0x2F PUSH19 0x65732E636C6F7564696E6172792E636F6D2F64 PUSH8 0x717A7A796633372F PUSH10 0x6D6167652F75706C6F61 PUSH5 0x2F76313733 CALLDATACOPY ORIGIN CALLDATASIZE CODECOPY CALLDATACOPY CALLDATACOPY ADDRESS 0x2F CALLDATALOAD CALLDATACOPY PUSH2 0x3264 ADDRESS CALLER PUSH5 0x3637303866 PUSH5 0x3663633266 PUSH3 0x346566 CODECOPY CODECOPY PUSH7 0x3864346134645F PUSH7 0x747134656C2E61 PUSH23 0x696668747470733A2F2F7265732E636C6F7564696E6172 PUSH26 0x2E636F6D2F6467717A7A796633372F696D6167652F75706C6F61 PUSH5 0x2F76313733 CALLDATACOPY ORIGIN CALLDATASIZE CODECOPY CALLDATACOPY CODESIZE ADDRESS 0x2F PUSH6 0x656630333334 CODECOPY CALLER CODECOPY CODESIZE CODECOPY CALLDATALOAD PUSH5 0x3361653363 ADDRESS CALLER CALLDATALOAD CALLER PUSH7 0x31313739623561 CALLER PUSH0 PUSH13 0x6E767875722E61766966687474 PUSH17 0x733A2F2F7265732E636C6F7564696E6172 PUSH26 0x2E636F6D2F6467717A7A796633372F696D6167652F75706C6F61 PUSH5 0x2F76313733 CALLDATACOPY ORIGIN CALLDATASIZE CODECOPY CALLDATACOPY CALLVALUE CALLDATALOAD 0x2F CALLDATASIZE CALLER PUSH7 0x31383866653066 PUSH7 0x35376330373535 PUSH7 0x30396630643963 ORIGIN BALANCE PUSH6 0x6236315F6D70 PUSH14 0x646A672E6176696668747470733A 0x2F 0x2F PUSH19 0x65732E636C6F7564696E6172792E636F6D2F64 PUSH8 0x717A7A796633372F PUSH10 0x6D6167652F75706C6F61 PUSH5 0x2F76313733 CALLDATACOPY ORIGIN CALLDATASIZE CODECOPY CALLDATACOPY BALANCE CALLDATALOAD 0x2F PUSH7 0x63383532653236 ADDRESS CALLER PUSH6 0x346537653432 PUSH6 0x303461366564 CALLDATALOAD PUSH2 0x3634 ADDRESS CALLDATASIZE PUSH4 0x635F7767 PUSH3 0x757870 0x2E PUSH2 0x7669 PUSH7 0x68747470733A2F 0x2F PUSH19 0x65732E636C6F7564696E6172792E636F6D2F64 PUSH8 0x717A7A796633372F PUSH10 0x6D6167652F75706C6F61 PUSH5 0x2F76313733 CALLDATACOPY ORIGIN CALLDATASIZE CODECOPY CALLDATACOPY CODECOPY BALANCE 0x2F CODESIZE PUSH2 0x6131 CALLVALUE PUSH2 0x3465 CALLDATASIZE PUSH7 0x63303431613163 PUSH7 0x31636232383462 CALLDATACOPY BALANCE PUSH2 0x6332 PUSH5 0x355F64766E CALLDATALOAD PUSH9 0x752E61766966000000 "},"methodIdentifiers":{"approve(address,uint256)":"095ea7b3","balanceOf(address)":"70a08231","createNFT(string,string,uint256)":"3241d34a","getAllNFTs()":"e0391b09","getApproved(uint256)":"081812fc","isApprovedForAll(address,address)":"e985e9c5","marketPlaceAddress()":"ed27107b","mintNFT(uint256,address)":"669f5a51","mintPrice()":"6817c76c","name()":"06fdde03","nextTokenId()":"75794a3c","nftDetails(uint256)":"7d4cd847","owner()":"8da5cb5b","ownerOf(uint256)":"6352211e","renounceOwnership()":"715018a6","safeTransferFrom(address,address,uint256)":"42842e0e","safeTransferFrom(address,address,uint256,bytes)":"b88d4fde","setApprovalForAll(address,bool)":"a22cb465","setMarketplaceAddress(address)":"b47cc556","setMintPrice(uint256)":"f4a0a528","supportsInterface(bytes4)":"01ffc9a7","symbol()":"95d89b41","tokenURI(uint256)":"c87b56dd","transferFrom(address,address,uint256)":"23b872dd","transferOwnership(address)":"f2fde38b","withdraw()":"3ccfd60b"}}}}}