{
  "_format": "hh-sol-artifact-1",
  "contractName": "CrowdFunding",
  "sourceName": "contracts/CrowdFunding.sol",
  "abi": [
    {
      "inputs": [],
      "stateMutability": "nonpayable",
      "type": "constructor"
    },
    {
      "anonymous": false,
      "inputs": [
        {
          "indexed": true,
          "internalType": "uint256",
          "name": "campaignId",
          "type": "uint256"
        },
        {
          "indexed": false,
          "internalType": "address",
          "name": "campaignCreator",
          "type": "address"
        },
        {
          "indexed": false,
          "internalType": "string",
          "name": "title",
          "type": "string"
        },
        {
          "indexed": false,
          "internalType": "enum CrowdFunding.STATUS",
          "name": "status",
          "type": "uint8"
        }
      ],
      "name": "CampaginCreated",
      "type": "event"
    },
    {
      "anonymous": false,
      "inputs": [
        {
          "indexed": true,
          "internalType": "uint256",
          "name": "campaignId",
          "type": "uint256"
        },
        {
          "indexed": false,
          "internalType": "address",
          "name": "campaignCreator",
          "type": "address"
        },
        {
          "indexed": false,
          "internalType": "enum CrowdFunding.STATUS",
          "name": "status",
          "type": "uint8"
        }
      ],
      "name": "CampaginDeleted",
      "type": "event"
    },
    {
      "anonymous": false,
      "inputs": [
        {
          "indexed": true,
          "internalType": "uint256",
          "name": "campaignId",
          "type": "uint256"
        },
        {
          "indexed": false,
          "internalType": "address",
          "name": "contributor",
          "type": "address"
        },
        {
          "indexed": false,
          "internalType": "uint256",
          "name": "amount",
          "type": "uint256"
        }
      ],
      "name": "ContributionMade",
      "type": "event"
    },
    {
      "anonymous": false,
      "inputs": [
        {
          "indexed": true,
          "internalType": "uint256",
          "name": "campaignId",
          "type": "uint256"
        },
        {
          "indexed": false,
          "internalType": "address",
          "name": "contributor",
          "type": "address"
        },
        {
          "indexed": false,
          "internalType": "uint256",
          "name": "amount",
          "type": "uint256"
        }
      ],
      "name": "RefundMade",
      "type": "event"
    },
    {
      "inputs": [
        {
          "internalType": "uint256",
          "name": "",
          "type": "uint256"
        }
      ],
      "name": "campaigns",
      "outputs": [
        {
          "internalType": "uint256",
          "name": "id",
          "type": "uint256"
        },
        {
          "internalType": "address",
          "name": "campaignCreator",
          "type": "address"
        },
        {
          "internalType": "string",
          "name": "title",
          "type": "string"
        },
        {
          "internalType": "string",
          "name": "description",
          "type": "string"
        },
        {
          "internalType": "string",
          "name": "imageURI",
          "type": "string"
        },
        {
          "internalType": "uint256",
          "name": "goal",
          "type": "uint256"
        },
        {
          "internalType": "uint256",
          "name": "startsAt",
          "type": "uint256"
        },
        {
          "internalType": "uint256",
          "name": "endsAt",
          "type": "uint256"
        },
        {
          "internalType": "enum CrowdFunding.STATUS",
          "name": "status",
          "type": "uint8"
        },
        {
          "internalType": "uint256",
          "name": "totalContributions",
          "type": "uint256"
        }
      ],
      "stateMutability": "view",
      "type": "function"
    },
    {
      "inputs": [
        {
          "internalType": "uint256",
          "name": "campaignId",
          "type": "uint256"
        }
      ],
      "name": "contribute",
      "outputs": [],
      "stateMutability": "payable",
      "type": "function"
    },
    {
      "inputs": [
        {
          "internalType": "string",
          "name": "title",
          "type": "string"
        },
        {
          "internalType": "string",
          "name": "description",
          "type": "string"
        },
        {
          "internalType": "string",
          "name": "imageURI",
          "type": "string"
        },
        {
          "internalType": "uint256",
          "name": "goal",
          "type": "uint256"
        },
        {
          "internalType": "uint256",
          "name": "endsAt",
          "type": "uint256"
        }
      ],
      "name": "createCampaign",
      "outputs": [],
      "stateMutability": "nonpayable",
      "type": "function"
    },
    {
      "inputs": [],
      "name": "currentTime",
      "outputs": [
        {
          "internalType": "uint256",
          "name": "",
          "type": "uint256"
        }
      ],
      "stateMutability": "view",
      "type": "function"
    },
    {
      "inputs": [
        {
          "internalType": "uint256",
          "name": "campaignId",
          "type": "uint256"
        }
      ],
      "name": "deleteCampaign",
      "outputs": [],
      "stateMutability": "nonpayable",
      "type": "function"
    },
    {
      "inputs": [],
      "name": "getAllCamapigns",
      "outputs": [
        {
          "components": [
            {
              "internalType": "uint256",
              "name": "id",
              "type": "uint256"
            },
            {
              "internalType": "address",
              "name": "campaignCreator",
              "type": "address"
            },
            {
              "internalType": "string",
              "name": "title",
              "type": "string"
            },
            {
              "internalType": "string",
              "name": "description",
              "type": "string"
            },
            {
              "internalType": "string",
              "name": "imageURI",
              "type": "string"
            },
            {
              "internalType": "uint256",
              "name": "goal",
              "type": "uint256"
            },
            {
              "internalType": "uint256",
              "name": "startsAt",
              "type": "uint256"
            },
            {
              "internalType": "uint256",
              "name": "endsAt",
              "type": "uint256"
            },
            {
              "internalType": "enum CrowdFunding.STATUS",
              "name": "status",
              "type": "uint8"
            },
            {
              "internalType": "uint256",
              "name": "totalContributions",
              "type": "uint256"
            },
            {
              "internalType": "address[]",
              "name": "contributors",
              "type": "address[]"
            },
            {
              "internalType": "uint256[]",
              "name": "contributionAmounts",
              "type": "uint256[]"
            }
          ],
          "internalType": "struct CrowdFunding.Campaign[]",
          "name": "",
          "type": "tuple[]"
        }
      ],
      "stateMutability": "view",
      "type": "function"
    },
    {
      "inputs": [
        {
          "internalType": "uint256",
          "name": "campaignId",
          "type": "uint256"
        }
      ],
      "name": "getCampaignDetails",
      "outputs": [
        {
          "internalType": "uint256",
          "name": "id",
          "type": "uint256"
        },
        {
          "internalType": "address",
          "name": "campaignCreator",
          "type": "address"
        },
        {
          "internalType": "string",
          "name": "title",
          "type": "string"
        },
        {
          "internalType": "string",
          "name": "description",
          "type": "string"
        },
        {
          "internalType": "string",
          "name": "imageURI",
          "type": "string"
        },
        {
          "internalType": "uint256",
          "name": "goal",
          "type": "uint256"
        },
        {
          "internalType": "uint256",
          "name": "startsAt",
          "type": "uint256"
        },
        {
          "internalType": "uint256",
          "name": "endsAt",
          "type": "uint256"
        },
        {
          "internalType": "enum CrowdFunding.STATUS",
          "name": "status",
          "type": "uint8"
        },
        {
          "internalType": "uint256",
          "name": "totalContributions",
          "type": "uint256"
        },
        {
          "internalType": "address[]",
          "name": "contributors",
          "type": "address[]"
        },
        {
          "internalType": "uint256[]",
          "name": "contributionAmounts",
          "type": "uint256[]"
        }
      ],
      "stateMutability": "view",
      "type": "function"
    },
    {
      "inputs": [],
      "name": "getLatestCampaign",
      "outputs": [
        {
          "components": [
            {
              "internalType": "uint256",
              "name": "id",
              "type": "uint256"
            },
            {
              "internalType": "address",
              "name": "campaignCreator",
              "type": "address"
            },
            {
              "internalType": "string",
              "name": "title",
              "type": "string"
            },
            {
              "internalType": "string",
              "name": "description",
              "type": "string"
            },
            {
              "internalType": "string",
              "name": "imageURI",
              "type": "string"
            },
            {
              "internalType": "uint256",
              "name": "goal",
              "type": "uint256"
            },
            {
              "internalType": "uint256",
              "name": "startsAt",
              "type": "uint256"
            },
            {
              "internalType": "uint256",
              "name": "endsAt",
              "type": "uint256"
            },
            {
              "internalType": "enum CrowdFunding.STATUS",
              "name": "status",
              "type": "uint8"
            },
            {
              "internalType": "uint256",
              "name": "totalContributions",
              "type": "uint256"
            },
            {
              "internalType": "address[]",
              "name": "contributors",
              "type": "address[]"
            },
            {
              "internalType": "uint256[]",
              "name": "contributionAmounts",
              "type": "uint256[]"
            }
          ],
          "internalType": "struct CrowdFunding.Campaign[]",
          "name": "",
          "type": "tuple[]"
        }
      ],
      "stateMutability": "view",
      "type": "function"
    }
  ],
  "bytecode": "0x60a0604052600160005534801561001557600080fd5b5033608052604080518082018252601681527f536e65616b6572732043686172636f616c204c696d650000000000000000000060208083019190915282516060810190935260378084526100af93916128f0908301396040805180820190915260118152702f696d616765732f6368756b732e706e6760781b6020820152686c6b935b8bbd4000006100aa42620d2f00610706565b610249565b6101306040518060400160405280600b81526020016a486f6f646965204c696d6560a81b8152506040518060600160405280602d815260200161288b602d91396040805180820190915260128152712f696d616765732f677265656e742e706e6760701b602082015269010f0cf064dd592000006100aa426213c680610706565b6101cd6040518060400160405280601d81526020017f496e666c617461626c652050756666657220536d696c6579204c696d650000008152506040518060600160405280603881526020016128b86038913960408051808201909152601581527f2f696d616765732f636c6f746865732d322e706e6700000000000000000000006020820152685150ae84a8cdf000006100aa42620a8c00610706565b61024460405180604001604052806003815260200162536b7960e81b8152506040518060600160405280602281526020016129276022913960408051808201909152601081526f2f696d616765732f706970652e706e6760801b602082015269032d26d12e980b6000006100aa42621a5e00610706565b610940565b600085511161029f5760405162461bcd60e51b815260206004820152601760248201527f5469746c65206d757374206e6f7420626520656d70747900000000000000000060448201526064015b60405180910390fd5b60008451116102f05760405162461bcd60e51b815260206004820152601d60248201527f4465736372697074696f6e206d757374206e6f7420626520656d7074790000006044820152606401610296565b60008351116103415760405162461bcd60e51b815260206004820152601b60248201527f496d61676520555249206d757374206e6f7420626520656d70747900000000006044820152606401610296565b600082116103915760405162461bcd60e51b815260206004820152601e60248201527f476f616c206d7573742062652067726561746572207468616e207a65726f00006044820152606401610296565b4281116103f85760405162461bcd60e51b815260206004820152602f60248201527f456e64732074696d65206d7573742062652067726561746572207468616e207460448201526e68652063757272656e742074696d6560881b6064820152608401610296565b60016040518061018001604052806000808154809291906104189061071f565b90915550815233602082015260408101889052606081018790526080810186905260a081018590524260c082015260e0810184905261010001600081526020016000815260200160006001600160401b038111156104785761047861074e565b6040519080825280602002602001820160405280156104a1578160200160208202803683370190505b50815260200160006040519080825280602002602001820160405280156104d2578160200160208202803683370190505b50905281546001808201845560009384526020938490208351600c909302019182559282015192810180546001600160a01b0319166001600160a01b03909416939093179092556040810151909190600282019061053090826107ed565b506060820151600382019061054590826107ed565b506080820151600482019061055a90826107ed565b5060a0820151600582015560c0820151600682015560e0820151600782015561010082015160088201805460ff1916600183600381111561059d5761059d610738565b0217905550610120820151600982015561014082015180516105c991600a84019160209091019061063b565b5061016082015180516105e691600b8401916020909101906106a0565b50505060016000546105f891906108ab565b7fef17c9358e7d92d393c8b53003c67848be5034351fbdd233a1dd6e670abe80633387600060405161062c939291906108be565b60405180910390a25050505050565b828054828255906000526020600020908101928215610690579160200282015b8281111561069057825182546001600160a01b0319166001600160a01b0390911617825560209092019160019091019061065b565b5061069c9291506106db565b5090565b828054828255906000526020600020908101928215610690579160200282015b828111156106905782518255916020019190600101906106c0565b5b8082111561069c57600081556001016106dc565b634e487b7160e01b600052601160045260246000fd5b80820180821115610719576107196106f0565b92915050565b600060018201610731576107316106f0565b5060010190565b634e487b7160e01b600052602160045260246000fd5b634e487b7160e01b600052604160045260246000fd5b600181811c9082168061077857607f821691505b60208210810361079857634e487b7160e01b600052602260045260246000fd5b50919050565b601f8211156107e857806000526020600020601f840160051c810160208510156107c55750805b601f840160051c820191505b818110156107e557600081556001016107d1565b50505b505050565b81516001600160401b038111156108065761080661074e565b61081a816108148454610764565b8461079e565b6020601f82116001811461084e57600083156108365750848201515b600019600385901b1c1916600184901b1784556107e5565b600084815260208120601f198516915b8281101561087e578785015182556020948501946001909201910161085e565b508482101561089c5786840151600019600387901b60f8161c191681555b50505050600190811b01905550565b81810381811115610719576107196106f0565b60018060a01b0384168152606060208201526000835180606084015260005b818110156108fa57602081870181015160808684010152016108dd565b506000608082850101526080601f19601f8301168401019150506004831061093257634e487b7160e01b600052602160045260246000fd5b826040830152949350505050565b608051611f3361095860003960005050611f336000f3fe60806040526004361061007b5760003560e01c8063c1cbbca71161004e578063c1cbbca714610123578063d18e81b314610136578063d993de6214610159578063f48a5b591461019157600080fd5b8063141961bc146100805780636f7b57fa146100bf57806375970193146100e1578063980f2e6614610103575b600080fd5b34801561008c57600080fd5b506100a061009b3660046117f4565b6101a6565b6040516100b69a9998979695949392919061188b565b60405180910390f35b3480156100cb57600080fd5b506100d46103ae565b6040516100b6919061198c565b3480156100ed57600080fd5b506101016100fc3660046117f4565b61080b565b005b34801561010f57600080fd5b5061010161011e366004611b75565b6108a6565b6101016101313660046117f4565b610c94565b34801561014257600080fd5b5061014b610ec1565b6040519081526020016100b6565b34801561016557600080fd5b506101796101743660046117f4565b610ee0565b6040516100b69c9b9a99989796959493929190611c1b565b34801561019d57600080fd5b506100d4611290565b600181815481106101b657600080fd5b60009182526020909120600c90910201805460018201546002830180549294506001600160a01b0390911692916101ec90611ccf565b80601f016020809104026020016040519081016040528092919081815260200182805461021890611ccf565b80156102655780601f1061023a57610100808354040283529160200191610265565b820191906000526020600020905b81548152906001019060200180831161024857829003601f168201915b50505050509080600301805461027a90611ccf565b80601f01602080910402602001604051908101604052809291908181526020018280546102a690611ccf565b80156102f35780601f106102c8576101008083540402835291602001916102f3565b820191906000526020600020905b8154815290600101906020018083116102d657829003601f168201915b50505050509080600401805461030890611ccf565b80601f016020809104026020016040519081016040528092919081815260200182805461033490611ccf565b80156103815780601f1061035657610100808354040283529160200191610381565b820191906000526020600020905b81548152906001019060200180831161036457829003601f168201915b505050506005830154600684015460078501546008860154600990960154949592949193509160ff16908a565b6001546060906103fa5760405162461bcd60e51b815260206004820152601260248201527127379031b0b6b830b4b3b7103337bab7321760711b60448201526064015b60405180910390fd5b60015460009060041061040e57600061041d565b60015461041d90600490611d1f565b600154909150600090610431908390611d1f565b905060008167ffffffffffffffff81111561044e5761044e611ad0565b60405190808252806020026020018201604052801561048757816020015b6104746116c4565b81526020019060019003908161046c5790505b50905060005b82811015610803576001805482906104a6908390611d1f565b6104b09190611d1f565b815481106104c0576104c0611d38565b90600052602060002090600c020160405180610180016040529081600082015481526020016001820160009054906101000a90046001600160a01b03166001600160a01b03166001600160a01b0316815260200160028201805461052390611ccf565b80601f016020809104026020016040519081016040528092919081815260200182805461054f90611ccf565b801561059c5780601f106105715761010080835404028352916020019161059c565b820191906000526020600020905b81548152906001019060200180831161057f57829003601f168201915b505050505081526020016003820180546105b590611ccf565b80601f01602080910402602001604051908101604052809291908181526020018280546105e190611ccf565b801561062e5780601f106106035761010080835404028352916020019161062e565b820191906000526020600020905b81548152906001019060200180831161061157829003601f168201915b5050505050815260200160048201805461064790611ccf565b80601f016020809104026020016040519081016040528092919081815260200182805461067390611ccf565b80156106c05780601f10610695576101008083540402835291602001916106c0565b820191906000526020600020905b8154815290600101906020018083116106a357829003601f168201915b5050509183525050600582015460208201526006820154604082015260078201546060820152600882015460809091019060ff16600381111561070557610705611853565b600381111561071657610716611853565b815260200160098201548152602001600a820180548060200260200160405190810160405280929190818152602001828054801561077d57602002820191906000526020600020905b81546001600160a01b0316815260019091019060200180831161075f575b50505050508152602001600b82018054806020026020016040519081016040528092919081815260200182805480156107d557602002820191906000526020600020905b8154815260200190600101908083116107c1575b5050505050815250508282815181106107f0576107f0611d38565b602090810291909101015260010161048d565b509392505050565b60006001828154811061082057610820611d38565b600091825260209091206001600c90920201908101549091506001600160a01b0316331461084d57600080fd5b610856826115db565b60088101805460ff1916600190811790915560405183917f5c1e0b6eda5e226f277fba3a702146a95adf934ffdf6f06fc8199b34b05cef109161089a913391611d4e565b60405180910390a25050565b60008551116108f75760405162461bcd60e51b815260206004820152601760248201527f5469746c65206d757374206e6f7420626520656d70747900000000000000000060448201526064016103f1565b60008451116109485760405162461bcd60e51b815260206004820152601d60248201527f4465736372697074696f6e206d757374206e6f7420626520656d70747900000060448201526064016103f1565b60008351116109995760405162461bcd60e51b815260206004820152601b60248201527f496d61676520555249206d757374206e6f7420626520656d707479000000000060448201526064016103f1565b600082116109e95760405162461bcd60e51b815260206004820152601e60248201527f476f616c206d7573742062652067726561746572207468616e207a65726f000060448201526064016103f1565b428111610a505760405162461bcd60e51b815260206004820152602f60248201527f456e64732074696d65206d7573742062652067726561746572207468616e207460448201526e68652063757272656e742074696d6560881b60648201526084016103f1565b6001604051806101800160405280600080815480929190610a7090611d72565b90915550815233602082015260408101889052606081018790526080810186905260a081018590524260c082015260e08101849052610100016000815260200160008152602001600067ffffffffffffffff811115610ad157610ad1611ad0565b604051908082528060200260200182016040528015610afa578160200160208202803683370190505b5081526020016000604051908082528060200260200182016040528015610b2b578160200160208202803683370190505b50905281546001808201845560009384526020938490208351600c909302019182559282015192810180546001600160a01b0319166001600160a01b039094169390931790925560408101519091906002820190610b899082611dd9565b5060608201516003820190610b9e9082611dd9565b5060808201516004820190610bb39082611dd9565b5060a0820151600582015560c0820151600682015560e0820151600782015561010082015160088201805460ff19166001836003811115610bf657610bf6611853565b021790555061012082015160098201556101408201518051610c2291600a84019160209091019061173f565b506101608201518051610c3f91600b8401916020909101906117a4565b5050506001600054610c519190611d1f565b7fef17c9358e7d92d393c8b53003c67848be5034351fbdd233a1dd6e670abe806333876000604051610c8593929190611e98565b60405180910390a25050505050565b60025460ff1615610cd85760405162461bcd60e51b815260206004820152600e60248201526d1499595b9d1c985b9d0818d85b1b60921b60448201526064016103f1565b6002805460ff1916600190811790915580546000919083908110610cfe57610cfe611d38565b90600052602060002090600c0201905060003411610d725760405162461bcd60e51b815260206004820152602b60248201527f436f6e747269627574696f6e20616d6f756e74206d757374206265206772656160448201526a3a32b9103a3430b710181760a91b60648201526084016103f1565b600081600901548260050154610d889190611d1f565b9050803411610db05734826009016000828254610da59190611ed3565b90915550610e369050565b6000610dbc8234611d1f565b90506000610dca8234611d1f565b604051909150339083156108fc029084906000818181858888f19350505050158015610dfa573d6000803e3d6000fd5b5080846009016000828254610e0f9190611ed3565b90915550506005840154600985015410610e335760088401805460ff191660021790555b50505b600a82018054600180820183556000928352602080842090920180546001600160a01b03191633908117909155600b860180549283018155845292829020349101819055604080519384529183015284917f0a4a91237423e0a1766a761c7cb029311d8b95d6b1b81db1b949a70c98b4e08e910160405180910390a250506002805460ff1916905550565b6000610ecf426103e8611ee6565b610edb906103e8611ed3565b905090565b60008060608060606000806000806000606080600060018e81548110610f0857610f08611d38565b90600052602060002090600c020160405180610180016040529081600082015481526020016001820160009054906101000a90046001600160a01b03166001600160a01b03166001600160a01b03168152602001600282018054610f6b90611ccf565b80601f0160208091040260200160405190810160405280929190818152602001828054610f9790611ccf565b8015610fe45780601f10610fb957610100808354040283529160200191610fe4565b820191906000526020600020905b815481529060010190602001808311610fc757829003601f168201915b50505050508152602001600382018054610ffd90611ccf565b80601f016020809104026020016040519081016040528092919081815260200182805461102990611ccf565b80156110765780601f1061104b57610100808354040283529160200191611076565b820191906000526020600020905b81548152906001019060200180831161105957829003601f168201915b5050505050815260200160048201805461108f90611ccf565b80601f01602080910402602001604051908101604052809291908181526020018280546110bb90611ccf565b80156111085780601f106110dd57610100808354040283529160200191611108565b820191906000526020600020905b8154815290600101906020018083116110eb57829003601f168201915b5050509183525050600582015460208201526006820154604082015260078201546060820152600882015460809091019060ff16600381111561114d5761114d611853565b600381111561115e5761115e611853565b815260200160098201548152602001600a82018054806020026020016040519081016040528092919081815260200182805480156111c557602002820191906000526020600020905b81546001600160a01b031681526001909101906020018083116111a7575b50505050508152602001600b820180548060200260200160405190810160405280929190818152602001828054801561121d57602002820191906000526020600020905b815481526020019060010190808311611209575b5050505050815250509050806000015181602001518260400151836060015184608001518560a001518660c001518760e001518861010001518961012001518a61014001518b61016001519c509c509c509c509c509c509c509c509c509c509c509c505091939597999b5091939597999b565b60606001805480602002602001604051908101604052809291908181526020016000905b828210156115d25760008481526020908190206040805161018081018252600c86029092018054835260018101546001600160a01b0316938301939093526002830180549293929184019161130890611ccf565b80601f016020809104026020016040519081016040528092919081815260200182805461133490611ccf565b80156113815780601f1061135657610100808354040283529160200191611381565b820191906000526020600020905b81548152906001019060200180831161136457829003601f168201915b5050505050815260200160038201805461139a90611ccf565b80601f01602080910402602001604051908101604052809291908181526020018280546113c690611ccf565b80156114135780601f106113e857610100808354040283529160200191611413565b820191906000526020600020905b8154815290600101906020018083116113f657829003601f168201915b5050505050815260200160048201805461142c90611ccf565b80601f016020809104026020016040519081016040528092919081815260200182805461145890611ccf565b80156114a55780601f1061147a576101008083540402835291602001916114a5565b820191906000526020600020905b81548152906001019060200180831161148857829003601f168201915b5050509183525050600582015460208201526006820154604082015260078201546060820152600882015460809091019060ff1660038111156114ea576114ea611853565b60038111156114fb576114fb611853565b815260200160098201548152602001600a820180548060200260200160405190810160405280929190818152602001828054801561156257602002820191906000526020600020905b81546001600160a01b03168152600190910190602001808311611544575b50505050508152602001600b82018054806020026020016040519081016040528092919081815260200182805480156115ba57602002820191906000526020600020905b8154815260200190600101908083116115a6575b505050505081525050815260200190600101906112b4565b50505050905090565b6000600182815481106115f0576115f0611d38565b90600052602060002090600c0201905060005b600a8201548110156116bf57600082600a01828154811061162657611626611d38565b6000918252602082200154600b850180546001600160a01b039092169350908490811061165557611655611d38565b60009182526020822001546040519092506001600160a01b0384169183156108fc02918491818181858888f19350505050158015611697573d6000803e3d6000fd5b50808460090160008282546116ac9190611d1f565b9091555050600190920191506116039050565b505050565b6040518061018001604052806000815260200160006001600160a01b031681526020016060815260200160608152602001606081526020016000815260200160008152602001600081526020016000600381111561172457611724611853565b81526020016000815260200160608152602001606081525090565b828054828255906000526020600020908101928215611794579160200282015b8281111561179457825182546001600160a01b0319166001600160a01b0390911617825560209092019160019091019061175f565b506117a09291506117df565b5090565b828054828255906000526020600020908101928215611794579160200282015b828111156117945782518255916020019190600101906117c4565b5b808211156117a057600081556001016117e0565b60006020828403121561180657600080fd5b5035919050565b6000815180845260005b8181101561183357602081850181015186830182015201611817565b506000602082860101526020601f19601f83011685010191505092915050565b634e487b7160e01b600052602160045260246000fd5b6004811061188757634e487b7160e01b600052602160045260246000fd5b9052565b8a81526001600160a01b038a166020820152610140604082018190526000906118b69083018b61180d565b82810360608401526118c8818b61180d565b905082810360808401526118dc818a61180d565b9150508660a08301528560c08301528460e08301526118ff610100830185611869565b826101208301529b9a5050505050505050505050565b600081518084526020840193506020830160005b828110156119505781516001600160a01b0316865260209586019590910190600101611929565b5093949350505050565b600081518084526020840193506020830160005b8281101561195057815186526020958601959091019060010161196e565b6000602082016020835280845180835260408501915060408160051b86010192506020860160005b82811015611ac457603f1987860301845281518051865260208101516119e560208801826001600160a01b03169052565b5060408101516101806040880152611a0161018088018261180d565b905060608201518782036060890152611a1a828261180d565b91505060808201518782036080890152611a34828261180d565b91505060a082015160a088015260c082015160c088015260e082015160e0880152610100820151611a69610100890182611869565b50610120820151610120880152610140820151878203610140890152611a8f8282611915565b9150506101608201519150868103610160880152611aad818361195a565b9650505060209384019391909101906001016119b4565b50929695505050505050565b634e487b7160e01b600052604160045260246000fd5b600082601f830112611af757600080fd5b813567ffffffffffffffff811115611b1157611b11611ad0565b604051601f8201601f19908116603f0116810167ffffffffffffffff81118282101715611b4057611b40611ad0565b604052818152838201602001851015611b5857600080fd5b816020850160208301376000918101602001919091529392505050565b600080600080600060a08688031215611b8d57600080fd5b853567ffffffffffffffff811115611ba457600080fd5b611bb088828901611ae6565b955050602086013567ffffffffffffffff811115611bcd57600080fd5b611bd988828901611ae6565b945050604086013567ffffffffffffffff811115611bf657600080fd5b611c0288828901611ae6565b9598949750949560608101359550608001359392505050565b8c81526001600160a01b038c16602082015261018060408201526000611c4561018083018d61180d565b8281036060840152611c57818d61180d565b90508281036080840152611c6b818c61180d565b90508960a08401528860c08401528760e0840152611c8d610100840188611869565b85610120840152828103610140840152611ca78186611915565b9050828103610160840152611cbc818561195a565b9f9e505050505050505050505050505050565b600181811c90821680611ce357607f821691505b602082108103611d0357634e487b7160e01b600052602260045260246000fd5b50919050565b634e487b7160e01b600052601160045260246000fd5b81810381811115611d3257611d32611d09565b92915050565b634e487b7160e01b600052603260045260246000fd5b6001600160a01b038316815260408101611d6b6020830184611869565b9392505050565b600060018201611d8457611d84611d09565b5060010190565b601f8211156116bf57806000526020600020601f840160051c81016020851015611db25750805b601f840160051c820191505b81811015611dd25760008155600101611dbe565b5050505050565b815167ffffffffffffffff811115611df357611df3611ad0565b611e0781611e018454611ccf565b84611d8b565b6020601f821160018114611e3b5760008315611e235750848201515b600019600385901b1c1916600184901b178455611dd2565b600084815260208120601f198516915b82811015611e6b5787850151825560209485019460019092019101611e4b565b5084821015611e895786840151600019600387901b60f8161c191681555b50505050600190811b01905550565b6001600160a01b0384168152606060208201819052600090611ebc9083018561180d565b9050611ecb6040830184611869565b949350505050565b80820180821115611d3257611d32611d09565b8082028115828204841417611d3257611d32611d0956fea2646970667358221220faa335e6a71b6756d968e61aab9fe33b3991400530ed8b298fba74d8fbbce81c64736f6c634300081c00334120636f6d666f727461626c6520616e64207472656e6479206c696d652d636f6c6f72656420686f6f6469652e412066756e20616e6420696e666c617461626c6520707566666572206a61636b65742077697468206120736d696c65792064657369676e2e41207374796c6973682070616972206f6620736e65616b65727320696e2063686172636f616c20616e64206c696d6520636f6c6f72732e4120686967682d7175616c69747920736b792d7468656d65642070726f647563742e",
  "linkReferences": {},
  "deployedLinkReferences": {}
}